S01B00006275696C642F72656C656173652F7A69676265652E73333714
S214004000081000206D7C000001C40000A14D0300D4
S214004010A14D030009C4000011C40000A14D030017
S214004020A14D0300A14D0300A14D0300A14D0300C7
S21400403015C400001C960400A14D0300A14D03000A
S214004040A14D0300A14D0300A14D0300857700009C
S214004050A14D0300A14D0300A14D0300A14D030097
S214004060A14D0300A14D030015C90000A14D03009A
S214004070A14D0300A14D0300A14D0300A14D030077
S214004080A14D0300A14D0300A14D0300A14D030067
S214004090A14D0300A14D0300A14D0300A14D030057
S2140040A0A14D03003580000019800000A14D0300DB
S2140040B0A14D0300A14D0300A14D0300FD18020011
S2140040C093A903008FA9030061100200A9A90300A9
S2140040D097A90300BD1802009BA90300F1FC01008C
S2140040E03D190200A14D0300A14D0300A14D0300A0
S2140040F0A14D0300A14D0300A14D0300A14D0300F7
S214004100A14D0300A14D0300A14D0300A14D0300E6
S214004110A14D0300A14D0300A14D0300A14D0300D6
S214004120A14D0300A14D0300A14D0300A14D0300C6
S208004130A14D030095
S214004134F0B5114A114C124E00F00105E3695F0711
S21400414413D40DB9334213D103EA00078F4207D1C3
S2140041540B4A1A40002A14BF6FF001000020F0BD7D
S214004164013AEBD16FF00200F9E74FF0FF30F6E7C3
S2140041746FF00100F3E700BF80969800000003503C
S214004184020001000B4B70B5D96911F480310DD1D2
S21400419401244FF48072084E084DF46020462C64C7
S2140041A41A61FFF7C5FF3464EC6070BD6FF0010060
S2140041B4FBE700BF0000035000100350002003502C
S2140041C438B541F6713301220C4C0021E569E363EE
S2140041D40B4B05F48035DA600223606121202361ED
S2140041E4FFF7A6FF10B92120FFF7A2FF0122054B17
S2140041F4DA600DB10023E36338BD00BF000003504E
S214004204001003500020035070B5134C6061E3693E
S2140042145B071ED40E4656F8043B8D18A361AE42C7
S2140042240BD10423002121202361FFF781FF58B915
S214004234BDE870402120FFF77BBF08210846FFF742
S21400424477FF10B10423236170BD56F8043BA361C5
S214004254E5E74FF0FF30F7E7000003502DE9F84399
S214004264154641F67132164B8946DF69DA63012238
S214004274064603F58053DFF8508007F48037DA608B
S21400428455B9284601220F4BDA601FB10022A3F568
S2140042940053DA63BDE8F88306F5005404EA08041C
S2140042A4A41BAC4228BF2C46494622463046FFF79C
S2140042B4ABFF0028E6D12644A1442D1BE0E700BF4F
S2100042C4000003500020035000E0FFFF45
S2140042D02DE9F04F4FF0FD0BC9B09A460DF11B09C2
S2140042E09DF8503108AFCDF80C90CDF808B0019786
S2140042F0059303890446009383790E4690464188C9
S2140043008288407811F0CCFF054650B10090A38813
S214004310002062883A4912F007FB284649B0BDE8FB
S214004320F08F99F8000033F052FE38B12846A38883
S2140043306288344912F0F8FA8D25EEE75A46394677
S21400434099F8000033F0EBFD8346002851D0529BCD
S2140043501BB1BDF84C3198424BD8002399F8009019
S2140043600793A9F14102012A5FFA8BF123D8384658
S2140043700139254ADFF898C05FFA81FE734513DBE2
S214004380059B04210792C3B907AF18221F489FED6B
S2140043901A7B02FB060420460A460830394684ED9E
S2140043A0027B17F017F811E010F8011F0133514097
S2140043B00CFB01F2E2E7059B33B123464A4638463A
S2140043C000960FF095FEA8E70829DED9B8F1000F91
S2140043D001D088F80090BAF1000F01D0AAF800B01A
S2140043E0529B002B99D05A46184608A916F0F2FFA1
S2140043F093E7012591E700BF0000000000000000E1
S214004400B03F0400E53F0400C59D1C8180100020DD
S21400441093010001000000002DE9F04F93B0CDE9B4
S2140044200A32DDE91C530E9353EC102BCDE908013C
S214004430104619468DED060B1E9E16F055FA80B1F5
S214004440DDE906014FF0FF32C54B16F075FA40B9AC
S214004450DDE906014FF0FF326FF4801316F04EFAD6
S21400446070B1DDE908019DED060B0E9B1E96CDE9A9
S2140044701C53DDE90A3213B0BDE8F04F00F088B9EE
S2140044800022DDE90601002316F038FA002800F0C5
S2140044903381DDE906A303F1004BCBF30A5016F493
S2140044A08063A0F2FF3008BF06250F9315F04AFF81
S2140044B09BA3D3E9002315F0AFFF9BA3D3E900230A
S2140044C015F0F4FDCBF31304894644F07F51804683
S2140044D00022A44B504641F4401115F0E5FD94A38C
S2140044E0D3E9002315F098FF02460B46404649469E
S2140044F015F0DCFD16F02AFA044615F023FF8EA30D
S214004500D3E900238046894615F086FF0022964BA5
S21400451015F0CCFD16F01AFA89A3D3E90023074656
S2140045204946404615F078FF80463846894615F0DD
S21400453009FF85A3D3E9002315F06EFF02460B465C
S2140045404046494615F0B0FD02460B46CDE90C2321
S21400455015F062FFDDE90C238046894610461946B1
S21400456015F0A4FD0022CDE91001804B40464946D7
S21400457016F07CF800227E4B15F098FD02460B469E
S2140045804046494616F072F800227A4B15F08EFD2A
S21400459002460B464046494616F068F8DDE90C230D
S2140045A08046894600204FF0804115F07DFD02468A
S2140045B00B464046494615F079FD02460B46DDE9B6
S2140045C0100116F053F807F2FF3700226A4B15F079
S2140045D06DFD00223B0515F01FFF52465B468046E8
S2140045E0894616F0A9F9002840F08980CDE90C89A3
S2140045F004F16303C62B8CBF0527042731051BD5A2
S21400460053A3D3E900235046594616F08BF90028E9
S2140046107FD051A3D3E900235046594616F06EF9D1
S214004620002876D00027A542C6BF2C1B04F1FF3514
S21400463000253C4646F480660E9B9F422CBF4FF0FA
S2140046400008A3EB070816F0020903D0002F18BFD6
S2140046504FF000083CB1DDE90C235046594616F0F1
S21400466005F882468B46DDE906010022002316F097
S21400467045F910B10BF100439B46DDE9080126F42D
S2140046800063CDE90183DDE90A324BEC10AB0095FF
S21400469000F07EF802465FB3DDE9091316F0200F3E
S2140046A000F10105089E0CBF65204520B047DDE9F6
S2140046B008010523002205930A23002CCDE90232C7
S2140046C007F1FF374FEAD473B8BF64422A46019316
S2140046D004970A9B009435F0D4FA0246B9F1000F0D
S2140046E006D00B9BC41A0B9B1A190E9BA34245D8E7
S2140046F0104613B0BDE8F08FDDE906ABCDE600222C
S214004700404649461A4B15F0B1FF013CCDE90C0175
S2140047106EE7002D90D00F9B002B8DD0013D8BE7D0
S214004720FB799F501344D33FB3C8608B288AC63F9B
S21400473061436F63A787D23F71A379094F930A40FD
S2140047401655B5BBB16B0240EF39FAFE422EE63F76
S2140047502D431CEBE2361A3F0000000080842E41F9
S214004760FFFFEF7F0000F83F0000E03F00002C4016
S21400477000002440000018400000F03F2020DDE943
S2140047800913089DA8470134ADE700BF00000000EC
S2140047902DE9F04F5BEC10AB97B0CDE90501DDE9F4
S2140047A02058CDE90723504652465B465946229F7D
S2140047B016F09AF870B90323CDE902870193AA4B45
S2140047C00093DDE90501DDE9072335F08CF917B024
S2140047D0BDE8F08F4FF0FF326FF480135046594615
S2140047E016F08CF828B10423CDE9028701939F4B7D
S2140047F0E6E74FF0FF32504659469D4B16F09CF8C0
S21400480068B19C4A07F00403002B08BF03229A4BAA
S2140048101CBF13460422CDE902870192D0E750461A
S2140048208DA3D3E90023594616F086F838B98CA331
S214004830D3E900235046594616F060F868B1DDE922
S2140048400723DDE905014BEC10ABCDE92187209568
S21400485017B0BDE8F04FFFF7DFBD0022002350463B
S214004860594616F04BF8002800F091805B465246F9
S2140048700020002115F018FC012382468B46099380
S21400488017F4806400F08580092D40F285800024AE
S21400489030210EABA5F109020134202C03F8011BD0
S2140048A0A5EB040901D09442F6D15946504616F0BD
S2140048B04DF8724B054603EBC90393ED007B8DED77
S2140048C00A7B15F03FFD02460B465046594615F04A
S2140048D0EBFBDDE90A2315F09FFD02460B46CDE90A
S2140048E00C2316F05BF8064615F01CFD02460B4638
S2140048F0DDE90C0115F0D8FB02460B46CDE90C238A
S21400490000225F4B16F018F8002848D001363046D3
S21400491015F008FD02460B46DDE90A0115F0F8FF22
S21400492008B100260135B9F1000F45D1284615F02B
S21400493009FD02460B465046594615F0B5FB0022C7
S2140049404F4B15F0DBFF10B9E90700D501350A21FA
S2140049500EAB1A19202C0AD095FBF1F001FB10556E
S214004960303502F8015B013405460028F2D107F025
S2140049700302012A55D1B8F1000F52D0099A12B994
S21400498017F00C0F01D008F1FF38302240E00990F4
S21400499076E74FF0060988E7A946002485E7002257
S2140049A0DDE90C01364B15F0A9FF0028BBD10EB18E
S2140049B0F007B8D50136B6E70A210EAB1A19202C37
S2140049C00DD0B6FBF1F001FB1063092E03F13003A6
S2140049D009F1FF3904F1010402F8013B11D8302136
S2140049E0A1440EAA202CB2D04C4504F101030AD1F2
S2140049F004F158020DEB02042E2204F8202C1C466B
S214004A00A5E70646DBE7A1541C46EBE71A5501343A
S214004A10444506D2202CF9D1CDE9028701940EAB8D
S214004A20CEE6202CF8D0099B3BB12D2204F158038A
S214004A306B4403F8202C0134EEE77A0704D504F122
S214004A4058032B226B44F4E73B07E5D504F15803E3
S214004A5020226B44EDE700BF0000000065CDCD418D
S214004A600000000065CDCDC19F5D0400A35D04007D
S214004A70FFFFEF7F965D04009B5D040058A50400D1
S214004A800000E03F0000000070B58EB02C22002130
S214004A9003A816F00FFB64234FF002320893CDE90B
S214004AA005230B2301218DF834305B4B8DF8101055
S214004AB01D880D4040F0A980084639F0A1FB0A2267
S214004AC0564B574C1A704FF42873ADF812304FF00F
S214004AD0FF332360534B54491B8820460B82534BAD
S214004AE0534A1B68CD828B61524B0D621B884B82EA
S214004AF0514B1B68CB611CF097FF20B14FF41B7124
S214004B004E483AF0BEFC0521206835F0A3FA20B1E5
S214004B1040F27D2149483AF0B4FC206815F080FA4E
S214004B20474B2068196835F058FB0C2539F0D0FF44
S214004B306843099039F0CCFF68430DEB05010790F8
S214004B40206817F0C5F920B140F295213B483AF0AD
S214004B5098FC25681FF012FB00220146284635F017
S214004B60B4FB20B140F2972134483AF08AFC40F278
S214004B700353344D344E2B80052396F90000AB705A
S214004B807F2801D11DF046F83378EB7039F0A0FF8E
S214004B9000EB80008000A88039F09AFF0023C00058
S214004BA04FF0FF31E880AB604FF0FF3018A3D3E939
S214004BB0002339F077FC2549206835F03FFB206854
S214004BC002A935F05BFF20B14FF434711B483AF070
S214004BD058FC042220680DEB020135F0D3FA0428B5
S214004BE004D040F2D72115483AF04BFC01A9012029
S214004BF034F0DEFE07F048FC01201DF09DFC30F08E
S214004C00C7FE1DF0C3FC1CF09DFF0EB070BD00BFBC
S214004C100A0020FF42030000625C0020BA63002006
S214004C20945400208ABE0400746A002090BE0400DB
S214004C3029E2030088BE04008CBE0400CE94040063
S214004C40C467002088540020926D00209DE2030077
S214004C500348044B834202D0034B03B11847704706
S214004C60C46D0020C46D002000000000064B0749FC
S214004C70C91A891048BF0131491003D0044B0BB143
S214004C8001481847704700BFC46D0020C46D00205F
S214004C900000000010B5064C237843B9FFF7D8FF94
S214004CA0044B13B10448AFF300800123237010BDFA
S214004CB0681600200000000030E2040008B5044B2F
S214004CC01BB104490448AFF30080BDE80840CDE7B7
S214004CD0000000006C16002030E20400A3F5803AC5
S214004CE0704700BF154B002B08BF114B9D46FFF7C2
S214004CF0F5FF00218B460F461148124A121A16F08D
S214004D00D9F90C4B002B00D098470B4B002B00D04A
S214004D1098470020002104000D000B4816F010FDF7
S214004D2016F0A0F9200029002FF069FD16F0F6FC19
S214004D30000008000000000000000000081000202E
S214004D40081000202064002041B8010007B50121AA
S214004D5020200DF1070201F097F950B10121202023
S214004D600DF107028DF8071001F09EF903B05DF80B
S214004D7004FB9DF807100129F8D00122084815F019
S214004D8087F801210DF1070220208DF8071001F0A9
S214004D908BF92FF0B6FC4FF4FA6000F0BFFFE5E7A2
S214004DA0C8F8030038B501F007FB012805D001F06C
S214004DB003FB022801D001F025FB064D2B783BB9FA
S214004DC001F0FAFA0128044602D12FF00FFD2C70EC
S214004DD038BD00BF4E5D002010B5044600882FF099
S214004DE064FCA37884F84400834202BF0123E37086
S214004DF02371074B04F11C00C4E9073401F09AF94B
S214004E00224620880349BDE8104001F0D7B800BF0D
S214004E103B4403000544030070B5C37804460D46C2
S214004E201646002B34D1D1B1214815F031F80123B4
S214004E30E370E36CA6600BB1E06D9847E368F61A82
S214004E4063699E4221D2217E1A480131C9B2217679
S214004E5015F01EF8A36D13B1217EE06D9847E5703E
S214004E602FF062FC15B3237903BBA268238A801A4D
S214004E7083421BD801231048237115F009F8236DCF
S214004E80A3B1E06DBDE87040184701232376E6E73E
S214004E900029E4D1094814F0FBFF636DE660E57075
S214004EA02571002BDBD0E06D9847D8E770BD00BFBA
S214004EB0F0F8030001F903002FF903001CF90300C2
S214004EC070B51E46838804460D46C18002810BB12C
S214004ED0868070BD817800882FF0D0FA0123E370B9
S214004EE0064BA680C4E903340C34204601F022F9B0
S214004EF029462046BDE870402FF00DBC87440300CD
S214004F0010B501790446B1FA81F1008849092FF0FD
S214004F102CFB21796088B1FA81F149092FF025FB35
S214004F20034B1A68A24204BF00221A6010BD00BFDD
S214004F308416002070B543790446A3B100880E4E4F
S214004F4004F10805336813B10C4B1B786BB121795B
S214004F502FF00BFB64210A4B3460A3602846BDE8A3
S214004F6070402FF0D8BB4088E9E7064814F090FF61
S214004F70054B3221A360F1E7841600204F5D002028
S214004F80014F000045F90300354F000010B50446F8
S214004F90E0B10F4814F07CFF01236371A37953B985
S214004FA0217920882FF0E1FA236B7BB1606B012119
S214004FB0BDE8104018472046FFF7A2FF04F108009E
S214004FC02FF0AEFB2046FFF7B5FFEDE710BD00BFA4
S214004FD07BF9030010B50446F8B1104814F058FFEA
S214004FE000236371A3796BB921792088B1FA81F126
S214004FF049092FF0BAFA236B7BB1606B0021BDE83C
S214005000104018472046FFF77BFF04F108002FF0FA
S21400501087FB2046FFF78EFFEDE710BD86F90300FD
S21400502010B5044668B1074814F032FF637920468D
S2140050301BB1BDE81040FFF7CDBFBDE81040FFF73D
S214005040A5BF10BD92F9030010B5114C2188802928
S21400505004D9BDE810400F4814F01ABFA21C0E4831
S21400506014F016FF82210D4814F012FF822122460A
S214005070022001F019F8014628B122880848BDE848
S214005080104014F005BF0748BDE8104014F000BFFC
S214005090E4550020A1F90300CFF90300ECF9030062
S2140050A0F7F903003BFA030070B5144D82212A4637
S2140050B0022000F0E9FF0146A0B12C46104834F863
S2140050C0022B14F0E5FE0F4B03F1240253F8041BE9
S2140050D0934244F8041BF9D11A889B782280A37067
S2140050E026232B802988084B80290A46BDE8704075
S2140050F028BF8022054814F0CBBE00BFE455002030
S21400510046FA0300C8FA0300E6550020A4FA030096
S214005110034B1B781BB18B4201D82FF0F2BA7047B5
S214005120326D002010B5044601460E4814F0B0FE5D
S214005130012C11D10C4B0D481A884FF6FF739A427A
S2140051401EBF0022094B5A742FF0F5F901F034FF08
S214005150BDE8104001F0F0BD0448BDE810402FF057
S214005160ECB900BFEFFA0300E46C002050670020A3
S214005170F8B5144D04462F887B1E7F2B05D939467B
S214005180114814F085FE0020F8BD3A460021A81C00
S21400519016F0DCFA064618B10C4814F079FEF2E771
S2140051A020463A46A91C16F015F92B88E6542B889B
S2140051B01C4414F8013C3B2B01D00548EDE70120C8
S2140051C0E2E700BFE45500200EFB030031FB0300BE
S2140051D05CFB030070B500241A4D1B4E3378A342C7
S2140051E01BDC0024194D1A4E3378A3421BDC002426
S2140051F0184D194E3378A3421BDC01F0DDF8012868
S21400520016481CD12FF097F901F0D6FE01F094FD58
S214005210BDE87040124801F0EFB82846FFF7DCFD05
S21400522001346035DAE728462FF06BF9013434355F
S214005230DAE728462FF09EF901343835DAE72FF002
S2140052407CF9E5E7B8210020555D0020D825002030
S214005250565D0020881F0020545D00205067002007
S214005260255100002DE9F04FA7B005AC06462046B4
S214005270FFF77EFF18B9002027B0BDE8F08F04A81E
S21400528004942FF09BF9054604A82FF097F90446DE
S214005290284615F00BFE1F2803D9714814F0F8FDB8
S2140052A0E9E7204615F002FE1F2801D96D48F5E70C
S2140052B004A84FF000082FF081F9C2460446C34602
S2140052C04246C1464546CDF80080CDF80480237896
S2140052D09BB9019B052B0ED80B2D0CD8B9F10A0FE4
S2140052E009D8009B042B06D8042A04D84BEA0A01E6
S2140052F0032940F289805C48D0E72046CDE9023297
S21400530015F0D4FD59490746204616F029F9039AA8
S21400531008B3029B582B13D8412B6FD9A3F1420137
S21400532016296BD8DFE801F01E5C0E6A6A6A6A2EE0
S2140053306A6A2E156A6A6A6A44386A6A6A6A500035
S214005340692B5BD1012F06D82146494814F0A0FDF1
S21400535091E7012FF8D104A802922FF02FF9029AB4
S2140053600446B4E76178542904D1032F49D821466E
S2140053704048EBE7032F02D821463F48E6E70135D1
S214005380EDB2E8E7022F02D821463C48DEE7019955
S2140053900131CBB20193DEE7032F02D8214638480D
S2140053A0D4E7009B01350133DBB2EDB20093D2E7C0
S2140053B0022F02D821463348C8E709F10109013215
S2140053C05FFA89F9D2B2C6E7052F02D821462E48E1
S2140053D0BCE702350BF1010BEDB25FFA8BFBBAE7C7
S2140053E0042F02D821462948B0E709F102090AF13C
S2140053F0010A5FFA89F95FFA8AFAACE7214624487F
S214005400A4E74FF00108A6E7009B991859445144B9
S214005410C9B20A2901D91F4840E702200321009B90
S21400542000EB830011FB020011FB0B015144B8F1A5
S214005430000F00D00131202901D917482EE76EB1A0
S214005440019B75703370009B86F80290F270337182
S21400545086F805B086F806A086F8078001200BE7D8
S2140054608AFB0300A1FB0300DBFC0300B1FB030087
S214005470B5FB0300D0FB0300F3FB030015FC0300A1
S21400548034FC030056FC030077FC03009FFC03007B
S214005490C0FC03000AFD030034FD03002DE9F04FB5
S2140054A0A9B0FFF701FE05A8FFF7DCFE20B9B74854
S2140054B014F0EEFC00F026FC07AC2046FFF758FE82
S2140054C0074608B9B248F3E704A804942FF076F824
S2140054D0054615F0EBFCAF4CC2B21F2A627001D92C
S2140054E0AD48E5E72946A01C15F074FF04A82FF088
S2140054F065F8054615F0DAFCC2B21F2A84F82120AA
S21400550001D9A648D4E7294604F1220015F062FF27
S21400551004A82FF053F8322504464FF000082678EA
S214005520002E40F09180FFF755FE9D4BDFF8ACA2B1
S2140055301B789C4FDFF8A8B200939BF800309AF8CF
S21400554000203978984814F0A3FC9DF817309DF891
S2140055501850DFF880821D449DF8193032461D44ED
S2140055609DF81A3039781D4443469AF80000EDB28B
S214005570B14200F3DB82DFF83892012D38BF0125F7
S2140055804A4600234C464FF482714FF6FF760133AD
S2140055909D4213705180968002F10C02F7DC834B1B
S2140055A083497C48A36000F0EBFFE079A36800EB3A
S2140055B0400003EB800000F0B1FDE3790133E371B6
S2140055C07C4B1B88B34203D079497B4801F0DAF85C
S2140055D00023764E3A789A4200F3D0824FF00008C5
S2140055E04FF00C09754B9AF800203978424500F3C5
S2140055F0DA8202EB01090C214FF0000801FB094199
S2140056009BF80000942340456D4A00F3EC829AF81C
S21400561000303F784FF000081F440C234FF070090D
S214005620074403FB0744DFF8BCA15D4B1B784345EA
S21400563000F3EE8229465E4800F0FEFD614814F055
S21400564027FC29B0BDE8F08F532E0FD163784C2B82
S21400565040F04E81A378502B40F04A8101225A4BED
S2140056601A7004A82EF0AAFF044658E7442E13D159
S2140056706378303B092BF4D8601C2EF0AFFF534BF9
S214005680534A1978002385B2994202F16002E8DD98
S21400569022F8465C0133F7E7422E0BD16378542B91
S2140056A054D1A01C00F0D8FC424B188018462EF0AF
S2140056B086FED6E7582E33D8412ED2D9433E152E35
S2140056C0CFD801A353F826F09B5A0000635600007B
S2140056D063560000635600006356000063560000E1
S2140056E03F5800006356000063560000E95700006C
S2140056F033570000635600006356000063560000F0
S214005700635600007D590000F15800006356000003
S214005710635600006356000063560000F35900000D
S214005720692E9ED1601C2EF059FF80B22EF0E5FF48
S21400573097E71C4B012019780023264A994202F16C
S214005740A8028EDD02F8A60C0133F7E7601C00F015
S21400575083FC0646E01C2EF0B9FF012102463046C7
S2140057602EF070FF60211948194C037859436218CF
S21400577066524FF4FA6111824FF44871516116492E
S21400578055831165013303706BE700BF5DFD0300B1
S21400579086FD0300646600208AFB0300A1FB03006D
S2140057A0505D0020535D0020BDFD03005017002013
S2140057B0D8160020E46C002088160020DC1B002091
S2140057C0201A00200DFE03004F5D0020555D0020CE
S2140057D0B8210020DC1C0020A7450300525D0020F5
S2140057E0515D0020D0180020601C00F035FC00221F
S2140057F04FF034098246DFF84C8311462EF022FF24
S21400580098F80000CD4E09FB00F326F803A0F21826
S214005810E3781046693B18BF012393702EF071FEA3
S2140058200023C74998F800204B60012302FB096655
S2140058301A4488F800200E60B8460B7411E7601C06
S21400584000F00AFC0022114682462EF0FBFE3422AF
S214005850BC4EDFF8E892307802FB00F329F803A08C
S21400586009EB0301E3780846693B18BF01238B70F8
S2140058702EF047FEB44A00231046916B41BB00EB66
S21400588083103423327802FB03938363AF4A0023EA
S2140058901046D2F8A41009BBA82202FB030034234A
S2140058A0327802FB0393C0F8A430B8F1000F0BD196
S2140058B0A34A4346114652F8040BA8B9342230785E
S2140058C000FB029241F82320337801333370C8E698
S2140058D00133042B02F14002CFD1D7E70133042B6A
S2140058E002F1A802D5D1E0E70133042BE3D1EBE7C0
S2140058F0601C00F0B1FB0646E01C2EF0E7FE01211E
S214005900024630462EF09EFE4FF0600C90489149BD
S2140059100278DFF838E20CFB02FC21F80C604FF44A
S214005920487601EB0C031E825E618B4E5D839E659E
S214005930E4788A4E642C04BF01249C70A824337833
S2140059405C430EEB040C0EF804304FF40074ACF815
S214005950024003248CF804408CF8064002EB420414
S21400596001EB4411CCF8081032210133DBB20132CE
S2140059708CF805308CF8A0100270A7E7601C00F0C9
S2140059806BFB00224FF0380B8246DFF8E0911146A1
S2140059902EF058FE99F80030714E0BFB03F326F8F4
S2140059A003A04FF0010AF21882F804A0E37873B15E
S2140059B0E01C00F051FB0022044611462EF042FE89
S2140059C099F800300BFB03635C8083F806A06548FB
S2140059D05D4A03789901535499F8001002EB83143A
S2140059E0C1EBC10206EBC2064A1C666389F80020BA
S2140059F0C8E6601C00F030FB8146E01C00F02CFB83
S214005A000646601D2EF062FE044602460121484608
S214005A102EF018FE2246304601212EF013FE60209E
S214005A204FF4487CDFF828E14A4A9EF8003000FB35
S214005A3003F422F80490DFF820911119A1F810C0A1
S214005A40C1F814C04D83C1F85890591CC9B24843D8
S214005A501418A4F810C0C4F814C06583C4F858908D
S214005A6094241652404E981C8EF800003078DFF8CA
S214005A7004C1444303EB430301EB41010CEB040E6A
S214005A8002EB431302EB41120CF80400CEF804308C
S214005A90CEF8082001303070E3E5601C00F0DCFA38
S214005AA08146E01C00F0D8FA002206461146484619
S214005AB02EF0C8FD00223824114630462EF0C2FDD6
S214005AC02A48274A03784FF0000E04FB03FC22F80E
S214005AD00C904FF0010902EB0C0181F806E081F80A
S214005AE0049003EB0901C9B24C4302EB040C1653B5
S214005AF09C1C047070241E4E8CF806E030788CF8DF
S214005B0004904443DFF870C0C3EBC303C1EBC1018C
S214005B100CEB040E02EBC30302EBC1020CF804000C
S214005B20CEF80430CEF808204844B4E75C79013655
S214005B30844284BF1A715A71A83319E5D82500200B
S214005B4050670020565D0020DC1B0020DC1C002077
S214005B50555D0020B821002011510000535D002043
S214005B60881F0020525D0020515D0020545D0020FB
S214005B70505D0020201A0020D01800203BB119F8F4
S214005B80052C02EB420206EB8206C9F8086049467D
S214005B904046039301F0E8FB039B08F1A808013395
S214005BA009F10C0916E518EB01010AD04A1E09FB9B
S214005BB00242D27902EB420206EB820609FB014260
S214005BC09660184609FB0141039301F085F9397880
S214005BD01A48414409FB014101F094F8039B08F17F
S214005BE001084033FFE418EB090F18BF11F8050C45
S214005BF003911EBF00EB400006EB80068E6003FBA1
S214005C00082000F095FF039908F101080C31F7E42D
S214005C1018EB070F18BF14F8053C21461CBF03EB12
S214005C20430306EB830609FB08A018BFA66000F036
S214005C304FFE08F101080C34F7E400BF7C1F00207B
S214005C4007B5012121200DF1070200F01DFA18B951
S214005C509DF80720024B1A7003B05DF804FB00BFE6
S214005C60326D002007B5064B8DF80700187001212D
S214005C700DF10702212000F017FA03B05DF804FBCF
S214005C80326D002007B5022101200DF1060200F05A
S214005C90FBF938B9044814F0FBF8BDF8060003B069
S214005CA05DF804FB0020FAE72AFE030007B5022190
S214005CB0ADF806000DF10602012000F0F5F90146E8
S214005CC010B1034814F0E4F803B05DF804FB00BF1D
S214005CD04BFE030010B5FFF7D5FF04460146074804
S214005CE014F0D6F80121064814F0D2F824B9BDE81D
S214005CF010400120FFF7DABF10BD00BF7BFE030097
S214005D008DFE030008B5044814F0C2F800F0DCF974
S214005D102EF0F7FC2EF0F2FCA3FE030038B5044686
S214005D20084D094B28462B6000F004FA002C18BFDB
S214005D3021462846BDE8384008BF4FF496712EF03D
S214005D40EABC00BFDC260020FB4503002DE9F0433B
S214005D50384D91B008AC0746894690460FCD0FC423
S214005D6095E80F00002684E80F0001250323324C37
S214005D703248CDE90366CDE905668DF80E30079604
S214005D80029539F027FB2E4839F024FB32462D4980
S214005D9020468DF8176004F013FC334632462A4935
S214005DA08DF81900009020468DF82390CDF82C80B1
S214005DB08DF8216004F01EFC0A9020468DF80970CC
S214005DC004F080FB204608AA05A904F039FC02AAC4
S214005DD0204603A92FF038FD4FF400721B4B5A6281
S214005DE0194BE560626A920510D46BB94FF40072E5
S214005DF0164B11485A6204F065FB114839F0EDFA6B
S214005E00002011B0BDE8F083013BEBE7002BEDD09E
S214005E10094908A82FF04BFD4FF400720B4B0648BB
S214005E205A6204F04FFB064839F0D7FABDF8200056
S214005E30E7E700BFD49504000040005A7C980400B1
S214005E407898040080841E0040420F000060005ACC
S214005E500122034B1870034B1980034B1A707047CE
S214005E60585D0020EC6C0020575D0020F8B5454BCF
S214005E701B780BB90020F8BD434B1B78012B03D1D0
S214005E80BDE8F8402EF0BCBB404B1C884FF6FF73B5
S214005E909C42EFD03E4839F09DFA0023260AE4B231
S214005EA01A462146304604F0CDFA012E354604F057
S214005EB0010335D015D9B51E012DDBD8002B0BBF3D
S214005EC04FF480754FF080754FF470614FF070613D
S214005ED00BBF01274FF480370F204FF470202D4B57
S214005EE011E0002B0BBF4FF480754FF080754FF418
S214005EF070614FF070610BBF01274FF480370F20A1
S214005F004FF47020244B1A6802401CD0BA421AD0B4
S214005F101A680A4032D11A6822EA01022A4316E0B9
S214005F20002B0BBF4FF480754FF080754FF47061F7
S214005F304FF070610BBF01274FF480370F204FF4EE
S214005F407020164BDFE71A6822EA00023A431A600E
S214005F502EF056FB054600288CD0083644EA06107C
S214005F602A460321C0B2FFF7F1FE40F6FF736843EE
S214005F7000F2FF70B0FBF3F080B27CE795427FF44E
S214005F8079AFC8E7575D0020585D0020EC6C002014
S214005F907C98040028C3035020C3035024C3035036
S214005FA010B5044C237823B9034839F013FA0123BB
S214005FB0237010BD5A5D00207C9804002DE9F04344
S214005FC01F4C85B0074688469146FFF7E9FF2378C1
S214005FD01BB901F0E7FE012323707BBAADF80C3045
S214005FE030220023174E02FB03F4315DA51901BBD6
S214005FF0012333554FF0FF3304F1100012493044AB
S214006000AB606F80C5F80480C5F80C9009F05CF9A9
S21400601004F10801042231440C4B009503A801F05A
S21400602097FFA96802460A4813F032FF05B0BDE89C
S214006030F0830133102BD6D1064813F029FFF5E77D
S214006040595D00200427002025460300374603003C
S214006050B0FE0300DEFE030080B10278A2F1410329
S214006060032B0BD840783038C0B2082806D8054B2A
S214006070134413F8413C40EA032070474FF6FF7084
S214006080704700BFF495040008B50B4642B10146C0
S2140060900448006803F0A0F8BDE808402EF027BBCF
S2140060A0022008BDBC67002008B50B4642B1014679
S2140060B00448006803F018FABDE808402EF017BB45
S2140060C0022008BDBC670020F0B50026124F8DB038
S2140060D0FF2300930A223346386802A92FF071F98D
S2140060E0C0B102AB1D4603EB800404E055F8043B48
S2140060F0B34228BF5E1CAC423868E9D9296803F071
S21400610079FB0028F2D02D28F0D00DB0BDE8F04085
S2140061102EF0EDBA0DB0F0BDBC67002028B1034BE1
S2140061200360034B4360002383607047190000033D
S21400613064670020FF2307B50021044A0093083057
S21400614009F046F803B05DF804FB00BF11470300F2
S2140061500B460449024608680349097808B12EF040
S214006160EABA7047102A00205C5D0020F7B50C469E
S21400617018B12921194839F084F9246823685E7912
S2140061805F8830463946FFF7E3FFF0B18568E5B132
S214006190A089227D3946904291BF0020801AA368CC
S2140061A080B294BF03469B18E27C00903046A84716
S2140061B00138032803D8DFE800F0080F0B0D002491
S2140061C0204632F06EFC204600E0812003B0F0BD91
S2140061D08024F5E79324F3E78724F1E706FF03001E
S2140061E0F8B515460D4A044610680D4A0B46117858
S2140061F050B122462EF09FFA034628B100210C2704
S214006200C678B14201DB0020F8BD07FB01F45A68EE
S2140062101019125BAA42F7D00131F2E7102A0020CB
S2140062205C5D002008B5034B1B6803B1984700204F
S21400623008BD00BF0C2A00202DE9F74F04460D4686
S2140062400026454B454F1860454B19703301002119
S214006250F85C01360FF012FE0C2EF7D10C2D28BF7D
S2140062600C254FF0000901953C4EDFF800A13D4D8E
S214006270DFF8FC80019B4B4502DC03B0BDE8F08FE5
S21400628023784FF0000B337063887380A388B38045
S214006290A379C6F80880B371E379C8F8005088F887
S2140062A004304FF00003A768A8F80630E3795B4592
S2140062B00ADC012116F8100B0FF0E0FD08F10808C3
S2140062C009F101090C34D5E74FF0000338886B81DB
S2140062D02880FB784FF0000C2B81BA78C5F804A014
S2140062E0002A00920CBF802240222A7379680AF1A5
S2140062F00C02634513DC03EB43030AEB830ABB681B
S21400630043B1009A4FF6FF71B2FA82F2164B520969
S21400631032F057FB14350BF1010B0C37C6E7B1F81A
S21400632000E00CF1010C22F80CEC91F802E00C32C3
S21400633002F816EC91F804E00C3102F815EC11F8AE
S21400634009ECBEF1010F14BF4FF0100E4FF0110E06
S21400635002F814ECCDE700BF102A0020E840002029
S2140063605C5D0020143000206D610000142A0020BF
S21400637094320020014B1860704700BF082A0020A6
S21400638070B5128805460E46FFF72AFF044670B120
S21400639002790499806814F0DFFE064B1B680BB97F
S2140063A0002070BD3146284622889847F8E78620A8
S2140063B0F7E700BF082A002008B50EF0FBFD02280C
S2140063C006D0012806D0044B18784000C0B208BD9D
S2140063D00120FCE70220FAE75B5D0020054B10B5C4
S2140063E01C682CB1FFF7E8FF2346BDE810401847AD
S2140063F010BD00BF042A0020014B1860704700BF84
S214006400042A0020034B1A781AB901221A700AF0DF
S214006410D7BD70475B5D00200022024B1A70FFF765
S214006420DDBF00BF5B5D002037B50446002832D0D4
S2140064300EF0C0FD022830D1608932F0AFFEE07960
S214006440237A003818BF0120012B637A08BF40F07A
S21400645008000BB140F0100063890BB140F0040057
S214006460257CA188A2790DB1E36873B90C4B10F0B6
S214006470E1F82178084610F059F932F09BF9002827
S21400648014BF0320002003B030BDCDE90035054B16
S21400649010F0D0F8EDE70220F5E70120F3E700BFA3
S2140064A0C94C0400CC1B040008B50CF0E7FE0146FE
S2140064B030B1044813F0ECFCBDE808400DF082BA99
S2140064C008BD00BF78FF0300034B044A5B7C012134
S2140064D003201370FFF7E8BD506700205D5D0020C5
S2140064E038B50446FFF7F0FFB4F57F4F17D12EF00E
S2140064F072F8054660B91449144813F0C9FCFEF753
S214006500D3FD22462946BDE8384001202EF035B995
S214006510FEF79AFDBDE838400020FFF7FFBB4FF6B8
S21400652001739C4204D1BDE8384009482DF0EBBF0A
S2140065304FF602739C4205D1064B1878BDE83840EA
S214006540FFF790BB38BD00BFA5FF03002FFC03007C
S21400655050670020326D002010B5074C01212246FE
S2140065600320FFF791FD28B92378044A003B18BFA3
S2140065700123537410BD00BF5D5D002050670020EE
S214006580F8B5564B32251A884FF6FF739A4218BF55
S21400659003234FF00802524C18BF2370514B1A7059
S2140065A030225D70DD7036259A705A7134221D7166
S2140065B031259A711A724FF40012DD714A4D426409
S2140065C0C5644A4D01220565494D86188565494DC5
S2140065D0C667C565484D494E4566494D80F8482012
S2140065E08566484D80F854200567474D80F8602042
S2140065F04567202580F8785080F8845000F1210502
S214006600C0F88850414D80F86C20C0F88C50C0F817
S214006610806080F89020C0F89440C0F8B8303C4BBA
S2140066203C4CC0F8BC300223C0F898403A4C80F886
S214006630C030C0F8A4400F24384B80F8A840C0F8FB
S214006640C430374B374CC0F8C8308223C0F8AC4053
S214006650354C80F8CC30C0F8B0400924334B344D6C
S214006660C0F8D030334B80F8B440C0F8D4302C7C1F
S214006670314B80F89C20C0F8A00080F8D820C0F8E5
S214006680DC3044B12D4B80F8E420C0F8E03005F152
S2140066901103C0F8E8304FF0000CCA798E6802EBA0
S2140066A042039F00443006EB830326F807C0586079
S2140066B001200D349870DC701318CB71FFF7C0FA08
S2140066C0FFF74AFFFFF778FE012806D12B7C23B19F
S2140066D0BDE8F84016482DF016BFF8BDE46C002063
S2140066E0336D00205E5D00200D9604000100200042
S2140066F00C960400020020000B96040005004200E1
S214006700030020000A960400040042000700300040
S214006710FDFF210012001001004042000896040010
S21400672000FF4401F895040006004200E4550020EE
S2140067305067002002FF2001326D002001FF10018B
S21400674013B504460D482DF045FE6422C0F30F43F2
S214006750637083B2B3FBF2F3A0782370202201218A
S2140067602EF00BF8A078212201212EF006F804491D
S214006770201D02B0BDE810402DF0CDBFE46C002017
S214006780E09304000B7870B583704CF61E0303800C
S2140067904FF02013C362012380F8303080F83C307D
S2140067A0C3180364124B044643640223114A80F85C
S2140067B04830114B8263C3644063CA798D6802EB2C
S2140067C0420305EB830004F12C0646600B4E45F8A9
S2140067D0236000238360531CCB71094B201DC4E942
S2140067E00134FFF7A7FC2046BDE87040FFF7A8BFBE
S2140067F0FDFF2100210020000E9604000100010389
S21400680041670000437B044A012113700078113071
S214006810C0B2FFF749BC00BF685D002038B504462B
S2140068200078054D11302A460121C0B2FFF72CFC36
S21400683008B92B78637338BD685D00200A2805D830
S214006840034B53F8200008B12EF05EB8704700BF27
S214006850F4320020012908B506D0022907D049B92C
S2140068602EF049F8002008BD2EF048F8FAE72EF082
S21400687048F8F7E7024813F00BFB0120F3E700BFE8
S214006880D2FF030010B40A2811461A46BDF8043099
S21400689007D8064C54F8200018B15DF8044BFFF7F3
S2140068A0D9BF01205DF8044B704700BFF4320020CA
S2140068B0002310B5044683810364A0F844304830B2
S2140068C0FFF738FC014BC4E9123410BDEF48030053
S2140068D038B50B7804460A2B0D4632D8194A437051
S2140068E042F82300FFF7E4FF2046FFF797FF4FF438
S2140068F0401323610123144A2375A261134A84F8C6
S2140069002030E261124A84F82C306262114A84F820
S2140069103830A26204F10C0222630F4A04F10D0320
S2140069206263E363EA79A86802EB420300EB830143
S21400693010344C60094C40F82340094B8B60531CC4
S214006940EB7138BDF4320020675D0020080020009F
S214006950346D002000FF300001FF10010201010429
S2140069608568000010B47024427B0D48013A012966
S21400697004FB020006D0022908D059B95DF8044B82
S2140069802DF0B9BF5DF8044B2DF0B8BF5DF8044B91
S2140069902DF0B7BF03485DF8044B13F079BA00BF7B
S2140069A0D0180020EEFF0300B0F85C302DE9F0416F
S2140069B08B4204460E4638D0437B077C8BB31C4A7A
S2140069C012789A422DD370251A4A013B05FB032301
S2140069D090F80F801B7B42462DF0A4FFB845054675
S2140069E001D1FF281FD13A463146204694F8903010
S2140069F02DF098FF2F460546552212216078A4F800
S214006A005C602DF0BAFEFF2F03D039462046FFF714
S214006A10A9FFFF2D09D029462046BDE8F0412DF0FC
S214006A20C1BFFF25DFE70746E6E7BDE8F08100BF08
S214006A30505D0020D018002041688268C978D2785E
S214006A4049B112B10321FFF7AFBF837B002B0CBF08
S214006A5001210221F7E72AB1837B002B0CBF02211C
S214006A600121F0E7014813F013BA00BFFFFF03004F
S214006A70037BD3B14368DA7812B18268D278A2B9C0
S214006A801B7933B1837B002B0CBF04210521FFF754
S214006A908BBF83681B792BB1837B002B0CBF052132
S214006AA00421F4E7014813F0F3B9704731000400FD
S214006AB0084A437B05211370837B5370C37B937016
S214006AC0037CD370037B137100780E30C0B2FFF7DF
S214006AD0EBBA00BF695D002038B5044600780C4D5F
S214006AE00E302A460521C0B2FFF7CEFA20B1BDE827
S214006AF03840084813F0CCB92B7863736B78A373CF
S214006B00AB78E373EB7823742B79237338BD00BF1F
S214006B10695D00206D0004000A2805D8034B53F871
S214006B20200008B12DF088BF704700BF203300203A
S214006B30F8B50B7804460A2B0D4600F28280414ACF
S214006B40437042F82300404E2DF094FFFFF7C4FF39
S214006B506268A3683D483E49D6641165D4655065B1
S214006B60C3E91410DE64DC654FF098730226636197
S214006B70012304F10C01E16136491032216204F16F
S214006B800D01A16234492376E16204F10E016163CE
S214006B90324984F82430A16304F10F01216430499E
S214006BA084F83030616404F11001E1642D4984F802
S214006BB03C3084F84830216584F85460A265E87952
S214006BC0A96800EB400201EB820704F1140CC7F839
S214006BD004C04FF4817C244F41F82270C218D2B210
S214006BE002EB420241F822C001EB820700227A60E3
S214006BF01E4A84F8703022661D4A84F88830A266E1
S214006C001C4A1D4BE2661D4AC4F88C3062671C4A5B
S214006C108319A26704F15C02C4F88020DBB2194A2B
S214006C2003EB4303C4F8842084F8646084F87C6033
S214006C3001EB830260345460134A033041F823208A
S214006C40E871F8BD20330020396A0000FB490300D4
S214006C50716A0000010020010200100103003001EB
S214006C60040030010500210101FC01064A00210054
S214006C7010960400510010001296040013960400AB
S214006C80550021006F0018001200010470B50D4673
S214006C900646144613460A460146164813F0F8F808
S214006CA025B92046BDE87040FFF71ABC072D05D170
S214006CB021463046BDE8704000F016BB4FF6014353
S214006CC09D4205D121463046BDE87040FFF724BFFF
S214006CD0062D05D121463046BDE8704000F0B2B81A
S214006CE0B5F5817F05D121463046BDE87040FFF7F7
S214006CF0A5BD70BD9C0004000148FFF73BBB00BF6C
S214006D008D6C00004FF4C01330B50360012303718F
S214006D10074B8C688360CA7902EB420304EB830559
S214006D206860044844F82300531CCB7130BD00BF94
S214006D30149604000400010138B50024044D55F8EB
S214006D40040B08B12DF0A6FE01340B2CF7D138BD8C
S214006D504C330020042908B50AD172B16BB1137800
S214006D601BB92DF0C2FE002008BD2DF0B4FEFAE7D8
S214006D70034813F08DF80120F6E70320F4E700BF80
S214006D80CF00040010B40A2811461A46BDF8043095
S214006D9007D8064C54F8200018B15DF8044BFFF7EE
S214006DA0D9BF01205DF8044B704700BF4C3300206C
S214006DB00229024608B50ED004D839B910462DF07F
S214006DC094FE06E04029F9D0412907D110462DF05F
S214006DD082FE002008BD2DF092FEFAE7024813F06E
S214006DE057F80120F6E700BFEF00040010B40A28A9
S214006DF011461A46BDF8043007D8064C54F8200051
S214006E0018B15DF8044BFFF7D3BF01205DF8044BC3
S214006E10704700BF4C330020426B094B52791A7002
S214006E2082785A70C2789A70826B12B190F83C20C1
S214006E30DA70007804210930014AC0B2FFF734B98D
S214006E406E5D00200A2805D8034B53F8200008B1D1
S214006E502DF071BE704700BF4C33002038B5044695
S214006E600078084D09302A460421C0B2FFF70CF915
S214006E7030B96B78A370AB78E370EB7884F83C306D
S214006E8038BD00BF6E5D002038B504460078114D51
S214006E9009302A460421C0B2FFF7F6F8C8B9A3782D
S214006EA02A78022B0CD004D863B920462DF01DFE9C
S214006EB001E0FF2B0AD02046BDE838402DF0EABDA1
S214006EC0002AF2D120462DF006FEF4E7002AF9D17A
S214006ED0EBE738BD6E5D0020F8B50B7804460A2B4C
S214006EE00D464ED8274A42F823004370FFF7B6FFF8
S214006EF0636B254A5C631A632046FFF7C5FF20468E
S214006F002DF0C8FD4FF4801363600123626BA66BFF
S214006F100532E2601D4A23722261A21C2375A2611B
S214006F2066B11B4A84F82030E261E21C6262194AAC
S214006F3084F82C3004F13C03A26223630627EA7926
S214006F40A96802EB4203002E21F8237001EB8300B0
S214006F500CBF02230423C370012383700E4B04343A
S214006F608360531C4460DBB20C4C03EB430341F8D4
S214006F70234001EB830000234360094B0232836009
S214006F80EA71F8BD4C330020134B03000340300178
S214006F9001FF300102FF1001ED6D00000800010046
S214006FA0856D000028B1034B1B78834234BF002058
S214006FB001207047525D002070B500250A4C0B4E2C
S214006FC03378AB4200DC70BDD4F8A42042B12379FC
S214006FD01BB16079FFF7E6FF10B910462DF084FA72
S214006FE00135A834ECE700BFDC1C0020535D002010
S214006FF008B5427901461046FFF7D4FFA8B1CB7812
S2140070000A48013A042B00EB82100ED8012B08D850
S2140070101BB9BDE808402DF05EBDBDE808402DF068
S21400702064BDBDE808402DF06ABD08BDDC1B00202D
S21400703008B5427901461046FFF7B4FFA8B1CB78F1
S2140070400A48013A042B00EB82100ED8012B08D810
S2140070501BB9BDE808402DF048BDBDE808402DF03E
S2140070603ABDBDE808402DF04ABD08BDDC1B002037
S21400707010B586B00446FFF79FF9012830D1E278B4
S214007080042A2DD8DFE802F01332340303006179B6
S2140070900846FFF787FF58B31648032A00EB81100F
S2140070A050F80C3C58791DD1003818BF0120637881
S2140070B04FF480728DF804304FF48273ADF80630CA
S2140070C00623ADF8083001238DF80B3000238DF829
S2140070D00A0001A8CDE903238DF81430FFF7A4F9C0
S2140070E006B010BDB0FA80F04009E0E70020DEE709
S2140070F00220DCE7DC1B002010B586B00446FFF754
S2140071005BF9012830D1E278042A2DD8DFE802F0B6
S21400711013133203030061790846FFF743FF48B3B1
S2140071201548032A00EB811050F80C3C5B791DD102
S2140071301A1E18BF012263788DF80A208DF80430D5
S2140071404FF48273ADF806300623ADF808300123FD
S2140071504FF480728DF80B30002301A8CDE903238D
S2140071608DF81430FFF760F906B010BDB3FA83F25D
S2140071705209E0E70222DEE7DC1B002010B586B0ED
S2140071800446FFF719F9012812D16378094A8DF8E9
S21400719004304FF48273ADF806304FF48073CDE9B7
S2140071A00223002301A804938DF81430FFF73CF95E
S2140071B006B010BD0800070110B586B00446FFF7FC
S2140071C0FBF8012820D16278104B8DF804204FF48C
S2140071D0827294F8A01094F8A10059701870ADF857
S2140071E0062004934FF480720223094901A88DF803
S2140071F01430CDE90212FFF717F994F8A130013BDD
S21400720018BF012384F8A13006B010BD725D0020BF
S2140072100800050110B58378044603B30379022BF2
S2140072200AD142791046FFF7BDFE28B10C48013A54
S21400723000EB82102DF063FCA379022B02D12046CE
S214007240FFF716FF2046FFF7B7FF02236078A4F883
S2140072506C305522BDE8104012212DF08EBA10BDBC
S214007260DC1B00204388094A08211380838853804A
S21400727083681B8A938090F8A03093718379D371CA
S21400728000780430C0B2FEF70FBF00BF665600207D
S21400729038B50D4604460178114812F0F9FD4FF650
S2140072A002739D420ED10F4B1B782BB9637120469B
S2140072B0BDE83840FFF7D6BF62790AB19342F6D2EE
S2140072C00123F3E7B5F57F4FF1D120462DF0B0FC52
S2140072D0A378022B0CBF01220022A3689A70E6E76F
S2140072E00B010400525D00200A2805D8034B53F812
S2140072F0200008B1FFF7CCBF704700BF78330020EE
S21400730038B504460078144D04302A460821C0B229
S214007310FEF7BAFE20B1BDE83840104812F0B8BDFE
S2140073202B8863806B88E978A380AA88A3681A8272
S214007330AB7984F8A030EB79A371094B1B780BB9B5
S214007340637138BD09B19942FBD9064812F0A0FD19
S21400735023780133F4E700BF6656002025010400B9
S214007360525D00204E010400F8B50B7804460A2B47
S2140073700D4600F28D80474A022642F823004370ED
S214007380FFF7BEFFA268444BD465D364434BA11CF1
S2140073905365434B103213644FF44013E3600123EC
S2140073A06161E1623F49226521633F4A211DA16375
S2140073B03E483F49626504F1A002A061E163E265D0
S2140073C0E01C611D3B4A206261643B483B492266E3
S2140073D0A21D2374237784F8283084F8343084F888
S2140073E04030A16484F84C6084F8583084F86430E7
S2140073F06062A266E879AA6800EB400102EB8107AA
S21400740004F10C0CC7F804C04FF0060C2C4F42F8E1
S2140074102170C118C9B201EB410142F821C002EB4C
S214007420810700217960274F84F880302767264F30
S21400743084F89830A767254F254BE767254F84F8D3
S214007440746084F88C60C4F89C3004F16C06831C6D
S214007450C4F88470C4F890601F4F204EDBB203EB74
S2140074604303C4F89460C4F8887002EB8306703453
S214007470746008261A4C42F82340C31CDBB203EBA8
S214007480430302EB8304043042F823606160E87132
S214007490F8BD00BF78330020874B0300D14B0300B4
S2140074A01572000001FF300104FF200110003001BA
S2140074B002FF200105FF300100FF300103FF21011C
S2140074C0070001084A00210016960400510010002B
S2140074D01896040019960400550021006F00180045
S2140074E01200010400239B6AB3F5804F03D219688B
S2140074F0064A914203D0002303708360704701223E
S21400750002709A689B694260F7E700BF07B0CD5EDD
S214007510024B034A1A602EF0AFBF00BF00000020E7
S21400752002020FF073B53F4B04461A781AB10222D6
S2140075301A7002B070BDCDE900220028F9D00126ED
S2140075401E7037F0A9FE384D384B186017F0CEFA8B
S2140075502B785BB902F0F2F940B935480823354A72
S2140075603549006801F038FE00B92E70334B5A6872
S214007570E260334A9A601A6E22605A6E6260D3F8EE
S2140075807021A2601B6E5C042CD52E4AD368D807E7
S214007590FCD42D4B1A68531C29D04FF4801393400B
S2140075A02A4A13660423294C4FF0804223664FF480
S2140075B080632366102323664FF4005368462366D1
S2140075C001A9226663662DF04BFB009B2366019B98
S2140075D063662B78002BACD0164B1A6822665B6865
S2140075E06366A6E71A4AD368D907FCD4D1E7194BD5
S2140075F01B78002BD6D1184B5A68144B12B94FF48F
S21400760080121A66154A526812B94FF400121A66AA
S214007610134B5B68002BC5D14FF480020B4B1A66E8
S214007620C0E700BF755D0020765D0020B433002003
S214007630BC670020B83300200071080000800044BA
S21400764055CEAC000000044088670020009000443F
S21400765000000450745D00200080055000C00550F6
S2140076600000065038B5224D04462B78012B02D078
S21400767001232B7038BD0028FCD02DF016FB0130FE
S21400768009D02DF012FB40F20113984203D0194A9C
S214007690D368DB07FCD42268174B1A6662685A6602
S2140076A0A268C3F87021E268D40744BF00229A603B
S2140076B0124B1A68013213D1114A127882B9114955
S2140076C04968C80748BF1A600F4A5268D10744BFC6
S2140076D001221A600D4A5268D20744BF02221A607D
S2140076E017F00CFA0A4B186837F0D1FD0023C0E7F4
S2140076F0755D00200000044000800044886700207C
S214007700745D00200080055000C005500000065043
S214007710B433002070B50024A36AB3F5804F23D29B
S2140077201A68134B9A421FD1124E337813F0FD0598
S21400773018D14FF480341048FFF7F4FE032004F00D
S2140077404FFC0E4B0320DC6004F02EFC0C4B1C613F
S214007750AB6ADB69984704460748FFF783FF0CB916
S21400776001233370204670BD4FF48174FAE700BFE2
S21400777007B0CD5E745D0020A433002000A0004456
S2140077800090004413B5204B1B7803B9FEE7002396
S2140077901E4CCDE900336A4608231D49206801F0D7
S2140077A01BFDF8B91B4AD2F84031D2F840211F2BF6
S2140077B04FF0010311D9203A9340019A1A430192DF
S2140077C008236A461249206801F08EFE124B134ABF
S2140077D01A602EF051FE02B010BD9340009A1A4374
S2140077E00092EDE72D28F1D10A4AD2F84031D2F8BE
S2140077F040211F2B4FF0010385BF203A9340934052
S214007800019398BF0093DBE7755D0020BC670020FE
S2140078100071080000800044000000200B020FF0FA
S21400782038B50025AB6A0446B3F5804F10D21B6B03
S214007830B3F5804F0CD20748FFF774FEAB6A2046BC
S2140078401B6B5B689847BDE838400248FFF70ABFE5
S21400785038BD00BFC033002013B50024A36A0190D2
S214007860B3F5804F13D21B6BB3F5804F0FD2094888
S214007870FFF758FEA36A01211B6B01A89B69984776
S21400788004460448FFF7EEFE204602B010BD4FF453
S2140078908174F9E7C033002070B50026B36A044649
S2140078A0B3F5804F0D4612D21B6BB3F5804F0ED248
S2140078B00848FFF737FEB36A20461B6B29469B69CC
S2140078C0984704460348FFF7CDFE204670BD4FF4A8
S2140078D08174FAE7C033002070B50026B36A044608
S2140078E0B3F5804F0D4612D21B6BB3F5804F0ED208
S2140078F00848FFF717FEB36A20461B6B2946DB696C
S214007900984704460348FFF7ADFE204670BD4FF487
S2140079108174FAE7C0330020F8B50027BB6A044636
S214007920B3F5804F0D46164611D21B6B7BB1094846
S214007930FFF7F8FDBB6A20461B6B324629465B6A9A
S214007940984704460348FFF78DFE2046F8BD4FF4DF
S2140079500174FAE7C033002070B50026B36A044607
S214007960B3F5804F0D4612D21B6BB3F5804F0ED287
S2140079700848FFF7D7FDB36A20461B6B29469B6A6B
S214007980984704460348FFF76DFE204670BD4FF447
S2140079900174FAE7C0330020F0B50027BB6A04463E
S2140079A0B3F5804F0D461646ADF5337D20D21B6BE2
S2140079B0B3F5804F1CD21048FFF7B4FDBB6A2046D3
S2140079C01B6B40F2C1225B6A01A99847044630B19E
S2140079D00948FFF747FE20460DF5337DF0BD836A64
S2140079E032461B6B2946DB6A01A898470446EFE738
S2140079F04FF40174EFE700BFC033002010B5002439
S214007A00A36AB3F5804F10D21B6BB3F5804F0CD230
S214007A100748FFF787FDA36A1B6B1B6B9847044656
S214007A200348FFF71FFE204610BD0124FBE700BFFA
S214007A30C0330020F0B58FB0044601A80E461546A8
S214007A40FFF7EEFE9DF80C30012B12D1B5F5402F56
S214007A5027D8B4F5402F24D86319B3F5402F20D883
S214007A6021462A46304613F0B5FC002420460FB0C7
S214007A70F0BD0027BB6AB3F5804F15D21B6BB3F57C
S214007A80804F11D20A48FFF74DFDBB6A2A461B6B92
S214007A90314620465B6B984704460548FFF7E2FDF3
S214007AA0E4E740F20244E1E740F20114DEE700BFFB
S214007AB0C0330020F0B58FB0044601A80E46154628
S214007AC0FFF7AEFE9DF80C30012B1FD1B5F5402F09
S214007AD006D8B4F5402F03D86319B3F5402F13D951
S214007AE040F2024420460FB0F0BDE258013225D1E4
S214007AF004339D42F9D82A46314620462DF005F932
S214007B000028EDD00024EDE70023F2E70027BB6A4B
S214007B10B3F5804F15D21B6BB3F5804F11D20A48D0
S214007B20FFF700FDBB6A2A461B6B314620469B6B5F
S214007B30984704460448FFF795FDD3E740F2034410
S214007B40D0E740F20114CDE7C033002070B58EB008
S214007B50044601A80D46FFF763FE9DF80C30012B86
S214007B6022D144EA0503C3F30C03002B33D1B5F549
S214007B70402F04D940F2024420460EB070BDB4F542
S214007B80402FF7D82544B5F5402FF3D8204604F506
S214007B9000542DF0B3F8AC4202D00028F6D1E9E745
S214007BA00028E7D00024E7E70026B36AB3F5804F45
S214007BB014D21B6BB3F5804F10D20A48FFF7B2FC05
S214007BC0B36A29461B6B2046DB6B9847044605487C
S214007BD0FFF748FDD0E740F20444CDE740F2011439
S214007BE0CAE700BFC0330020BFF34F8F0549064BDE
S214007BF0CA6802F4E0621343CB60BFF34F8F00BF46
S214007C00FDE700BF00ED00E00400FA0570B5D0B156
S214007C10C9B10E4E431E013913F8014F2046325D9E
S214007C2002F00302012A11F8012F08BF04F1200018
S214007C30B55C05F00305012D08BF2032801A01D17E
S214007C40002CE9D170BD0120FCE700BF79BD04001F
S214007C500348044A0449121A92102DF0A2B800BF35
S214007C6034410000D0420000BC64002008B5154B2B
S214007C7083F30A8800F030F8FFF7EAFF124B134947
S214007C808B4212D30020124B12498B4218D3FDF7B9
S214007C9029F8186850F82240586840F82240013207
S214007CA098688242F5D30C33EAE70022F8E71C68AE
S214007CB044F8220001325C68A242F8D30833E4E7B5
S214007CC00022F8E70800002038E2040044E204003E
S214007CD044E2040044E20400124B134A70B59A6072
S214007CE0D3F88820114D42F47002C3F888206FF054
S214007CF0010205F50054226641F2FF726266022216
S214007D00C3F8D020BFF34F8FBFF36F8F4FF44036CA
S214007D10032004F065F90320E66004F045F92E61BF
S214007D2070BD00BF00ED00E0004000000080004491
S214007D30014B1860704700BF90670020054B186025
S214007D40054B1B6F03F00703032B01D135F056BB21
S214007D50704700BF98670020008000502DE9F04172
S214007D6004464FF001080C250D4E0CB9BDE8F08115
S214007D7094FAA4F0B0FA80F00F2808FA00F2C8BF10
S214007D80103824EA0204CABF05FB006205FB006245
S214007D90B4325768002FE8D09168C0B2B847E4E71D
S214007DA0D033002008B50C4837F014FB192004F037
S214007DB009F928B1192004F013F9192004F0F4F891
S214007DC01A2004F0FFF828B11A2004F009F91A2046
S214007DD004F0EAF8002008BD7C9804002DE9F04184
S214007DE00E461746054618B30F2923D80378DBB18D
S214007DF0013BDBB2022B19D8104AD35C6A78D34019
S214007E00DB0717D50E4BD3F81043ACB937F044FA5E
S214007E1080463A462846314602F042FE404637F053
S214007E2036FA2046BDE8F0817F23E7E70023E5E742
S214007E302224F6E72124F4E70224F2E76C960400F5
S214007E4000C0035010B5044610B30378E3B1013BFD
S214007E50DBB2022B1AD8104AD35C6278D340DB0719
S214007E6018D537F019FA0122617823788A40302134
S214007E704B4341F2100103F1A04303F570335A500F
S214007E8037F005FA002010BD7F23E6E70023E4E77D
S214007E902220F8E72120F6E76C96040010B5044689
S214007EA010B30378E3B1013BDBB2022B1AD8104AB9
S214007EB0D35C6278D340DB0718D537F0EDF90122A2
S214007EC0617823788A4030214B4342F2100103F157
S214007ED0A04303F570335A5037F0D9F9002010BD8F
S214007EE07F23E6E70023E4E72220F8E72120F6E7F1
S214007EF06C96040038B50D46044618B311B30378E3
S214007F00E3B1013BDBB2022B1AD8104AD35C62788D
S214007F10D340DB0718D537F0BFF930222378534318
S214007F2003F1A04303F570335B696278D34003F036
S214007F3001032B7037F0ABF9002038BD7F23E6E74E
S214007F400023E4E72220F8E72120F6E76C960400F9
S214007F502DE9F0410D4616469846044600284FD0B7
S214007F6000294DD00178002940D04B1EDBB2022BF1
S214007F703ED8254AD25C6378DA40D20701D4FF297E
S214007F8040D1022E01D9042E3CD137F085F9237852
S214007F900746FF2B05D032462046296802F0C6FD6C
S214007FA028602B68013309D12378FF2B06D1174BA5
S214007FB06078D3F824142DF0CFFC286029684B1C79
S214007FC018D00C23124A03FB0122069BC2F8048039
S214007FD093602378FF2B04D001230E4A8B40C2F80F
S214007FE02434384637F053F9002007E07F22C2E7F2
S214007FF00022C0E7384637F04AF92D20BDE8F08168
S2140080002220FBE72120F9E76C96040000C003500D
S214008010D033002000D0035008B502F037FD044BE3
S21400802000F05530C3F82004BDE80840FFF796BEC0
S21400803000E0035008B502F029FD044B00F0AA301A
S214008040C3F82004BDE80840FFF788BE00E00350F0
S2140080502DE9F04F144605460E469B46C36B87B087
S21400806001225B6902A960689847EB6B01225B6995
S21400807003A93046984702A82DF092FA074648B161
S2140080800023A37563754FF0FF33A360002007B08D
S214008090BDE8F08F03A82DF090FA0123A375237E88
S2140080A004EBC303DE611F846368B3420ED1206015
S2140080B003A82DF0A4FA4FF0FF332075A360237DAC
S2140080C0043B022B26D80023A375DFE723681A1A81
S2140080D053425341A37503A82DF091FA237D8342A2
S2140080E018BFA77503A82DF06CFA074602A82DF056
S2140080F068FA874218BF002303A818BFA3752DF09F
S21400810068FA074602A82DF064FA87421CBF0023CF
S214008110A375D4E703A82DF054FA80B1EB6B0222C6
S21400812030465B6904A9984704A82DF059FA03461F
S214008130207D032839D8DFE800F03838040903A882
S214008140F3E7CC22237E04EBC3031A8401F06EFC13
S214008150109B187003A8277E2DF027FA04EBC7079C
S21400816087F82200237E03A804EBC303B3F820900D
S21400817093F822702DF025FA804603A82DF029FAF0
S2140081808246B8F1000F15D0EB6B022230465B69D1
S21400819004A9984704A82DF0E8F96075637D6BB9CB
S2140081A00023A3754FF0000838E0227E04EBC202DD
S2140081B01384CBE703A82DF0C3F9EEE794F81680F6
S2140081C0B8F1000FEED0B9F1000F09D1DFB10123ED
S2140081D0E375637E002B4FD1012F42D1677614E002
S2140081E06B6C06EB0A015A4286EA010010421CBF7D
S2140081F00022A2755A1E0A409B1A9945D0D8A37D24
S214008200002BE3D1CEE7E37D43B94FF000084B46A1
S2140082105246314628462CF00EFFA060A27D12B1D1
S21400822023694B4423611A49237E097899422AD947
S21400823001332376BBF1000F27D032B3E37D23B39F
S214008240B8F1000F21D1032F1FD0A1684B1C1CD002
S214008250109B2246009328460123FFF7F9FEA075DF
S21400826013E095F8343063B9EB6A0133CFD1032FAE
S214008270CDD10123A376C8E7012FCFD0032FC4D1D9
S214008280F7E79846C3E70023A375A07DFFE600BF87
S214008290909604002DE9F04F0E46984600238BB0CA
S2140082A004464FF0FF31104617468DF8133001F0A4
S2140082B0A7FBB6F5801F20D2314605AA04F10800B8
S2140082C02DF0C0F8451C014603D1237CBBB92D20F8
S2140082D010E0384601F094FB0122394620460DF1A5
S2140082E013032CF0FAFE0028EFD09DF8133088F820
S2140082F0003000200BB0BDE8F08FB01CE5D1E56A79
S214008300691C36D12046616A2CF0DBFD0546B31C9D
S21400831018BF0123DFF8CC900193636A626C029366
S214008320236805A902FB053AE36B05225B69504604
S214008330984705A82DF0CFF92DF0F2F950462DF00C
S214008340FAF94FF0000B824601464B1C05D0636CD1
S21400835081EA0A025B42134211D0294620462CF0DD
S214008360B0FD029BAB422CD0BBF1000F2CD10546D2
S214008370D3E72368ED1A636CB5FBF3F5C7E7484609
S21400838001F03EFB0DF1130349462046019A2CF0FE
S214008390A4FE034690B1B21C03D0D9F80020B24226
S2140083A00CD19DF8132003930D4B88F80020494606
S2140083B01A68384613F00EF8039B9B46D9F8081047
S2140083C0C3E7BBF1000F82D0B6F5801F91D23146CD
S2140083D098F800307A6804F1080001F03FFA88E760
S2140083E08C960400AC3B00202DE9F341044617466A
S2140083F098460E46184D816AE36A8B4201D04B1CA4
S21400840002D102B0BDE8F081284601F0F9FA012257
S214008410294620460DF107032CF05FFE38B143468F
S214008420294620469DF80720B8470028E9D0A968C5
S2140084304A1C04D1696820462CF0D0FD0146012E66
S214008440DAD16B6881EA0302636C5B421A4218BF9A
S2140084504FF0FF31D0E700BF803B00202DE9F04F02
S2140084604FF0FF334FF6FF720025044600F1080672
S214008470C0E909238BB0C3620562056330468846AF
S2140084802CF0B1FF20462CF0ECFC60BB20464146A9
S2140084902CF067FD20462CF0E4FC60BB5E200BB0A1
S2140084A0BDE8F08F2368E26B606C576900FB05300F
S2140084B0052205A9B84705A82DF00DF9012807469D
S2140084C00CD1294620462CF01DFD012F024600D176
S2140084D00132294620462CF0E3FC03E02DF025F976
S2140084E00028EED10135E3699D42DBD320462CF00F
S2140084F0B8FC0028CAD000254FF0FF394FF6FF73AE
S214008500CA46A846C4E90853E36998450AD3A5EBCA
S2140085100905012D2CD84FF6FF72636A93423CD1B1
S2140085206720BCE72368E26B606C576900FB083085
S214008530052205A9B84705A82DF0CDF8834605A85D
S2140085402DF0A0F8074658462DF0EAF868B15745D2
S21400855038BFC4F82480B94528BFB946BD4238BFE5
S2140085603D46BA46236A0133236208F10108CBE789
S2140085704FF6FF7300256362E3699D42CBD2676CBA
S2140085802068E36B052207FB05005B6905A9984791
S21400859005A82DF077F80135EEE7E26B676C2068EA
S2140085A0694607FB030055690522A84768462DF073
S2140085B069F8626A2368606C4B4D00FB02302DF050
S2140085C0BAF84FF0FF33A062E3622A466FF001016B
S2140085D0204605ABFFF75EFE002846D1AD6829466B
S2140085E02046E5622CF019FC206320B92046E16A9B
S2140085F02CF0F4FCE062294620462CF0EFFC054601
S214008600A36A9D4233D120462CF0DAFB0027804631
S214008610B946E36999453CD3B84559D92046616ABD
S2140086202CF04FFC0026054604F1400AB74212D84B
S214008630626C2368694602FB0539E36B05225B69B9
S2140086404846984768462DF01DF853460246494668
S214008650E06B2DF072F8294620462CF032FC0136ED
S214008660B0450546E2D1642019E7A56AB7E7294672
S21400867020462CF0D2FB236B29460344074623638F
S21400868020462CF0ABFC0546002FB9D1C4E90B07F9
S214008690B6E7636C2568052203FB0955E36B05A95D
S2140086A05B692846984705A82DF015F82DF038F890
S2140086B058B128462DF03FF8014620462CF0ADFB79
S2140086C0636C143B984208BF013709F10109A0E723
S2140086D030462CF088FE002320461946034AFFF752
S2140086E083FE0020DBE600BFD83B0020C950030015
S2140086F02DE9F041036B9046826B07689A4288BF6B
S2140087008363426C436A90B002FB0377C36B0E46EA
S214008710052201A95B6904463846984701A82CF053
S214008720DAFF01280146307057D0656CE26B23688B
S214008730606AD2F814C005FB0030052206A9E0479F
S21400874006A82CF0C8FF01284FF0000523D0D4E976
S2140087500A3201219342CDE90B458DF834800E95FF
S2140087608DF83C102AD1194620462CF037FC236B96
S214008770626C14339B1AE06223630C9B53B99DF81A
S2140087803C303BB1626A616C2368E06B01FB0231EE
S2140087902CF059FF0C9DE36B05225B6901A9384656
S2140087A0984701A82CF097FF30702846236BA26BE1
S2140087B09A4288BFA36310B0BDE8F081237C33B92A
S2140087C01C490BAA04F1080001F096F8D5E72046EC
S2140087D0194A0BABFFF708FECFE7237C23BB2246E4
S2140087E0164904F1080001F087F8616A20462CF06B
S2140087F089FB616A421C20462CF052FB054620B9D4
S214008800236B626C1344143B23632046A16A2CF04E
S214008810E5FB2368A062C01A636CB0FBF3F06062ED
S21400882020462CF01EFCB6E700232046044AFFF73D
S214008830DBFDDAE7958F0000118F0000635103001F
S214008840FF50030073B50D46D11E4A421C461B7EE0
S2140088504A419A4226D129682368994222D36368FE
S21400886099421FD8114E0DF107033246FFF712FD4D
S214008870C0B972686B689A4214D19DF80730DA1E48
S21400888053425341227E93420CD1636901336361A4
S214008890D4E90323934205D22968A26842F823103C
S2140088A001332361012002B070BD00BFD83B002019
S2140088B02DE9F04F9B4689B09DF848309046514AC6
S2140088C00193136907465B450D46C0F09580D9466F
S2140088D053680093B9F1000F7BD0FB6B01225B69F4
S2140088E005A90098984705A82CF067FE454B1B681D
S2140088F0984240F0848005A82CF06BFE04280646BB
S21400890015D105A82CF06CFE009B04461E44019B66
S214008910002B3ED1804512D91C46A8EB00083846ED
S21400892000992CF05BFBA9EB04090090D2E7FB6BE7
S21400893002225B69009806A9984706A8E2E7A0EB22
S21400894008045C4528BF5C46032C4644ABEB040B8E
S2140089501DD9FB6B294630465B69A208984724F070
S214008960030304F0030A1E441D44DDF80480BAF134
S214008970000FD4D0FB6B012206A930465B699847EE
S2140089805246284606A912F025FD5544C7E7A246DA
S214008990EBE7824600F0030302932B18039306448A
S2140089A0039BA6EB0A00A3EB0A05029B9A4514D18B
S2140089B0BAF1000FB3D0FB6B012206A95B6998479A
S2140089C05246284606A912F00DFF0028DDD04FF0CB
S2140089D03609484609B0BDE8F08FFB6B012206A9B0
S2140089E05B6998470422284606A912F0FBFE002879
S2140089F0EDD1AAF1040AD3E74FF06309E9E74FF097
S214008A006F09E6E7043C00202DE9F0410F461646C4
S214008A109846044688B060B390F83450FDB1012102
S214008A202CF014FA00210E9BCDE90511CDE9023792
S214008A309DF83C30CDF804808DF81C30237C0496DD
S214008A408BB90D4901AA04F1080000F055FFDDE9D5
S214008A500553E06B002E08BF1D462CF090FB284601
S214008A6008B0BDE8F0812046044A01ABFFF7BCFC25
S214008A70EDE70546F3E700BF2D51030045880000EB
S214008A807FB590F84260044601920DF10B030A464A
S214008A90304611492CF07BFB012E0546E36B17D1BF
S214008AA032465B6903A998479DF80B10039B019A11
S214008AB059B19BB243EA0243012228460393E36B73
S214008AC003A99B69984704B070BD62F30F03F3E7F0
S214008AD001229B6901A9F5E7043C00202DE9F04F2F
S214008AE099B00E460D920A69416C0B931439D31D4A
S214008AF0B3FBF1F3013302EBC302036B044693426C
S214008B00C0F001820023DFF804940893E36A484625
S214008B101946059300F074FFD6E9033707930B9BBD
S214008B20022B4DD1CC2F40F0D7810D9B3BB1314667
S214008B3020462CF082FB656C1490012044E0012056
S214008B40079B656C1B68149300F0010000280CBF9F
S214008B5004230823782F0E9349D8059A6B1E1340DA
S214008B60ED1A3B1D9D423CD2002F3DD0082D3ED82D
S214008B700023042506934FF0040A336806990B98E1
S214008B80C9F80030C9F810702CF03DFD4FEA9A0382
S214008B900F93059B89F814000393002309930C9305
S214008BA004930A93616C039B4A1E1A408B1A27B3E0
S214008BB05544AB4223D8236B5B1A134423632FE13F
S214008BC0782F656CB9D8F07D0D9B002BBCD0E36B7D
S214008BD001225B69706816A9984716A82CF0F1FC6C
S214008BE0B4E700250695C6E704250697C3E70123E4
S214008BF000254FF0080A0693BFE75345DBD3A3EBE7
S214008C000A029742039BB84628BF904697425344B1
S214008C1028D90122D9F8101089F817208F4226D1BA
S214008C200399C9F80410049299F817200AB399F822
S214008C3018100398CA1C09EBC20250600498013150
S214008C40A2F80880907289F81810B8F1000F07D0C3
S214008C500B9A022A40F08180099A72B10122099289
S214008C609B46ABE0049A002A18BF0322DBE70222E9
S214008C70D9E7039AC9F80420E7E70C9A4244032A86
S214008C80EED9E26B1846956914A901220993A84704
S214008C90099B05460028E1D03D2D40F01E8104F1D9
S214008CA0080303932368059A606CA2EB030ABAFBD9
S214008CB0F0FA00FB0A302CF03EFDE16A80462046C2
S214008CC02CF08CF9A26A824200F00F81626CD9F80F
S214008CD00830511E0B40216B2768891A0B4423630A
S214008CE0089BE062DF1BB7FBF2F7BA4540F0FA805C
S214008CF0059BB3EB080A12D0E36B4FEA9A02414693
S214008D009B6998478346E36A059A5344E362236B5C
S214008D1003989B1A434423632CF065FBDA462368CA
S214008D20616CE06B01FB07312CF07AFC20462CF0DE
S214008D3098F820462CF095F92063BAF1000F00F061
S214008D40D4803269616CD31D1439B3FBF1F301335F
S214008D5002EBC3029042A5D2BFE00D9A002A77D15B
S214008D60B8F1030F4FEA98026ED9E16B18468D6989
S214008D7007991093A847109B0546C0B918F003053D
S214008D8015D0079A28F0030B02EB0B019B444FF01B
S214008D90FF3215A815922A46109312F01BFBE26BC1
S214008DA05846956915A90122A8470546109B9B467B
S214008DB0079A42440792002D40F08B80049B16A829
S214008DC00193069B009399F814204346316800F0FF
S214008DD0CDFDE36B0F9A9B69039816A99847039AF3
S214008DE0051E089B18BF1346089343465246204666
S214008DF003992CF020F9236B08F10302A3EB0A0376
S214008E0022F003029B1AC9F808002363002D7FF4A2
S214008E1043AF0C9BA7EB080743440C93CDF80CB06C
S214008E20204603992CF0DAF800250390002F7FF4F3
S214008E30B9AE364A3168936804F10800E3625268B6
S214008E400B9B00F00BFD49E09B46454607999EE7C5
S214008E509B4606F120021092F27D7068A2B10022B5
S214008E6096F818C00A99D5B2AC4511D9109D02F1F2
S214008E70010E35F832508D4228D90E9806EBC20204
S214008E800144D069084403E00E9A0A990A44104443
S214008E90E26B15A9556901221193A847159A0A9BFA
S214008EA01392E26B043395695846012213A90A937C
S214008EB0A847119B054603EB0802A2EB0B02042A07
S214008EC07FF679AF28B90BF1040BC5E77246491B4C
S214008ED0C9E7CDF820B088E770252F46384619B088
S214008EE0BDE8F08F4FF0000A19E73269616CD31DB8
S214008EF01439B3FBF1F3013302EBC302236B934245
S214008F00BFF404AEE9E71C27E8E700BFAC3B00204F
S214008F10032A2DE9F34106460D4617461C4606D1A0
S214008F20237A012B23D0012002B0BDE8F081DFF8C0
S214008F306080096842460DF10703FFF7ABF96060F1
S214008F400028EDD19DF80720237A032AE8D0D8F828
S214008F5004106A689142E3D1012B2969D4F80CC049
S214008F6007D172690CEB0103934202D92074207C6E
S214008F70DAE708316144E1603B4601222946304683
S214008F80FFF7ACFD60600028CAD00020CCE700BF29
S214008F90D83B00202DE9F341089C032A1746266893
S214008FA006D1237A012B24D0012002B0BDE8F0813F
S214008FB0DFF89080304642460DF10703FFF76AF966
S214008FC060600028EDD12568D8F80400A96AD5F8B5
S214008FD044C04840CCF100031840227AE1D1012A6F
S214008FE009D1E268D8F8103013447269934202D966
S214008FF02074207CD9E72868EB6A1B1A081AB3FB92
S214009000FCF3B0FBFCF083420BD1706CF36A421E9B
S2140090101340326B121A1344284633632BF0DEFFDC
S214009020E862D8F81020E36808321344E3600122AF
S2140090303B4604492068FFF751FD60600028B0D029
S2140090400020B2E7D83B00202DE9F0410025604B18
S2140090500E46D3F8008004461D6018B92125284620
S214009060BDE8F08190F8347007B30A6803689A4246
S21400907040F0A3804A6843689A4240F09E808A681F
S21400908083689A4240F09980CA68C3689A4240F062
S21400909094800A6943699A4240F08F808A69C36B5C
S2140090A09A4240F08A804B698361D8E76822394645
S2140090B0856B11F0FFFFD6E90212336804F1080051
S2140090C023607368A5636360336963617369A36132
S2140090D02CF09BF9B36904F14000E3639B68984762
S2140090E020B9676C17B16368B3FBF7F794F84330A1
S2140090F0E761002BB2D00023656C2366002D64D098
S214009100002F62D02368B3FBF5F205FB1233002B69
S21400911055D16668B6FBF5F305FB1363002B4ED1FD
S21400912020462BF06AFEA369043303449E4248D3CC
S21400913040F634726369CC3B934244D8B5F5805F01
S21400914043D3032120462BF081FED4E90001E36BD4
S2140091501B6898470546E36B0220DB689847CDB945
S21400916041462046FFF77AF96428054604D1414671
S2140091702046FFF773F90546666C5DB9236A2046FC
S214009180143E5E432BF039FEA369043303449E422B
S21400919038BF5A25002D0CBF0123002384F8343035
S2140091A007D1D4E900010B4A1368013313602CF091
S2140091B0C6F9E06B2BF0E3FF51E75D254FE7592535
S2140091C04DE75A254BE75F2549E75B2547E700BF94
S2140091D03C350020383500202DE9FF410C46164668
S2140091E01F46054680B390F834307BB3B1F5801F38
S2140091F02ED2DFF8608001212BF028FE2146424661
S21400920028460DF10F03FFF745F8044670B99DF8A0
S2140092100F30012B11D1D8F81030BB4212D10246C4
S214009220009031462846FFF743FB0446E86B2BF0D8
S214009230A6FF204604B0BDE8F081022B14BF2D2403
S2140092406024F3E76324F1E72124F2E71124F0E732
S2140092502924EEE7043C00202DE9F04385B00C46B7
S21400926017461E460546DDF8308098B390F8343031
S21400927093B3B1F5801F31D2DFF8649001212BF053
S214009280E5FD21464A4628460DF10F03FFF702F892
S214009290044688B99DF80F30012B14D1D9F8102058
S2140092A006EB08039A4213D30090434632463946EB
S2140092B02846FFF7FDFA0446E86B2BF060FF2046D1
S2140092C005B0BDE8F083022B14BF2D246024F3E71D
S2140092D06324F1E72124F2E71124F0E72924EEE7DE
S2140092E0043C002073B50C461646054630B390F88D
S2140092F034302BB3B1F5801F24D201212BF0A6FD0C
S21400930021462846104A0DF10703FEF7C3FF044620
S21400931080B99DF80730032B0CD0022B0CD12846C1
S21400932009492BF08AFF3060E86B2BF028FF2046B7
S21400933002B070BD2D24F7E76124F5E72124F6E797
S2140093401124F4E72924F2E7043C00202DE9F34138
S2140093501E4600230C4617460546336050B390F869
S21400936034304BB3B1F5801F28D2DFF8548001218A
S2140093702BF06CFD2146424628460DF10703FEF70A
S21400938089FF0446A0B99DF80730032B10D0022BA6
S21400939003BF01233B600423D8F8103018BF3860A1
S2140093A03360E86B2BF0EBFE204602B0BDE8F081A0
S2140093B02D24F6E72124F7E71124F5E72924F3E71F
S2140093C0043C002073B50446056B2BF016FD636E57
S2140093D003449D422CBF00230123854294BF0025F1
S2140093E02D1A207C84F85030656584F85800A8B1A2
S2140093F000230C4E1A461946204600962BF0E1FF35
S214009400002305461A461946204600962BF0E2FF32
S214009410E3682844984294BF0020C01AE06502B072
S21400942070BD00BFFFFF0F002DE9F3471E464369DE
S2140094300446B342884617469DF828904ED300252A
S2140094408DF8075020462BF0D8FCD4F830A0824583
S2140094500AD2236AB5EB430F06D2002220460DF14E
S2140094600701FFF745F9B8B39DF80730012B05D182
S214009470002220460DF10701FFF73AF9B9F1030F74
S21400948006D0314620462BF0A8FC256B854227D314
S214009490144D4FF0FF31284600F0B2FA4B462946ED
S2140094A000222046C5E90376C5F80080FFF716FBC4
S2140094B0236E054663B12046FFF784FF94F85030CC
S2140094C013B994F858301BB1236E04F15000984736
S2140094D0284602B0BDE8F0870135B3E76225F7E716
S2140094E01C25F5E7D83B00202DE9FF410F469046A6
S2140094F01E46054698B390F8343093B3B1F5801FF6
S21400950031D21A4C02212BF0A1FC224639462846BD
S2140095100DF10F03FEF7BEFE024678B10123424668
S2140095200093394633462846FFF77EFF0446E86B2D
S2140095302BF025FE204604B0BDE8F0819DF80F30E4
S214009540012BEBD12169B142E8D100934146334665
S2140095502846FFF7ADF904460028DFD1E7E72124C7
S214009560E8E71124E6E72924E4E700BF043C0020EE
S2140095702DE9F04790F8423086B0012B054603915E
S214009580A1EB020740F0AA80FF2F03D81E464FF03B
S214009590640807E00226012B14BF4FF032084FF094
S2140095A06408013600244FF6FF79DFF844A195F8E9
S2140095B04230012B14BF322364239C4202D35FFA4D
S2140095C088F40DE005AB2246514628462BF013FEE4
S2140095D095F84230012B059B34D14B452DD1E4B292
S2140095E095F84230012B14BF32226422121BB2427D
S2140095F017D3012E39D10022012B05978DF81320A1
S21400960027D1082205A90DF113002CF0B0F89DF81B
S2140096101330059A42EA032221462846FFF730FA1D
S21400962040B10223324900932846CC23096803AA96
S214009630FFF7FAFE06B0BDE8F087DBB203B90234E6
S2140096400134B4E7591CCAD09BB2002BF8D10134C0
S214009650F6E7102205A90DF113002CF088F89DF806
S2140096601330059A42EA0342D6E7039A012B059285
S21400967023D10823202205A90DF113008DF81330FD
S2140096802CF075F89DF81320120221462846FFF7A5
S214009690F7F995F84230611C012BC9B21AD100289F
S2140096A0BFD12846BDF81420FFF7EAF90028B8D144
S2140096B00234BDF81620E1B2AFE71023202205A938
S2140096C00DF113008DF813302CF051F89DF813208F
S2140096D01204DAE70028A4D1059A9EE7B7F5803F82
S2140096E04FF00106BFF457AF4FF032085AE700BFFD
S2140096F0043C002070B586B00E4605460392A0B323
S21400970090F834309BB3B1F5801F32D202212BF093
S2140097109DFB31462846184A0DF11703FEF7BAFDA1
S214009720044618B99DF81730032B0ED10223314694
S21400973000932846CC2303AAFFF776FE0446E86B80
S2140097402BF01DFD204606B070BD022B0BD10A493A
S21400975028462BF072FD039902468142EFD0284638
S214009760FFF706FFEAE76124E9E72124EAE7112488
S214009770E8E72924E6E700BF043C0020F7B50C46DE
S2140097801646054668B390F8343063B3B1F5801FCB
S2140097902BD202212BF05AFB21462846144A0DF103
S2140097A00703FEF777FDC0B99DF80730032B14D0EA
S2140097B0022B14D10E4928462BF03FFD471C0246CB
S2140097C039462846FFF7D4FE044606B13760E86BF4
S2140097D02BF0D5FC204603B0F0BD2D24F7E761241E
S2140097E0F5E72124F6E71124F4E72924F2E700BF81
S2140097F0043C002030B50C46054685B028B390F8EA
S214009800343023B3B1F5801F23D202212BF01EFB88
S2140098100DF10F03214628460F4AFEF73BFD03468F
S21400982088B99DF80F20032A0DD003222146009206
S21400983002462846FFF7F8FD0446E86B2BF09FFC2F
S214009840204605B030BD2D24F7E72124F8E7112483
S214009850F6E72924F4E700BF043C00202DE9F04396
S214009860466886B3056898464FF0000CA946AE4693
S21400987055F83C400CF1010CC4F31307013401D039
S214009880B94217D0B4450EF1080EF1D12F46002488
S21400989003E0B44207F1080712D055F8343001341B
S2140098A00133F6D1C1F3130141EA0851C7E90012AA
S2140098B0BDE8F08341EA0851CEE90012BDE8F08326
