S01B00006275696C642F72656C656173652F7A69676265652E73333714
S2140040000810002025800000B9C70000C30A03007E
S214004010C30A0300C1C70000C9C70000C30A0300E3
S214004020C30A0300C30A0300C30A0300C30A03004B
S214004030CDC70000DC500400C30A0300C30A030017
S214004040C30A0300C30A0300C30A03003D7B000043
S214004050C30A0300C30A0300C30A0300C30A03001B
S214004060C30A0300C30A0300CDCC0000C30A030042
S214004070C30A0300C30A0300C30A0300C30A0300FB
S214004080C30A0300C30A0300C30A0300C30A0300EB
S214004090C30A0300C30A0300C30A0300C30A0300DB
S2140040A0C30A0300ED830000D1830000C30A0300A7
S2140040B0C30A0300C30A0300C30A03004D2102001B
S2140040C0D5650300D1650300B1180200EB65030057
S2140040D0D96503000D210200DD65030041050200DD
S2140040E08D210200C30A0300C30A0300C30A0300AB
S2140040F0C30A0300C30A0300C30A0300C30A03007B
S214004100C30A0300C30A0300C30A0300C30A03006A
S214004110C30A0300C30A0300C30A0300C30A03005A
S214004120C30A0300C30A0300C30A0300C30A03004A
S208004130C30A0300B6
S214004134F0B5114A114C124E00F00105E3695F0711
S21400414413D40DB9334213D103EA00078F4207D1C3
S2140041540B4A1A40002A14BF6FF001000020F0BD7D
S214004164013AEBD16FF00200F9E74FF0FF30F6E7C3
S2140041746FF00100F3E700BF80969800000003503C
S214004184020001000B4B70B5D96911F480310DD1D2
S21400419401244FF48072084E084DF46020462C64C7
S2140041A41A61FFF7C5FF3464EC6070BD6FF0010060
S2140041B4FBE700BF0000035000100350002003502C
S2140041C438B541F6713301220C4C0021E569E363EE
S2140041D40B4B05F48035DA600223606121202361ED
S2140041E4FFF7A6FF10B92120FFF7A2FF0122054B17
S2140041F4DA600DB10023E36338BD00BF000003504E
S214004204001003500020035070B5134C6061E3693E
S2140042145B071ED40E4656F8043B8D18A361AE42C7
S2140042240BD10423002121202361FFF781FF58B915
S214004234BDE870402120FFF77BBF08210846FFF742
S21400424477FF10B10423236170BD56F8043BA361C5
S214004254E5E74FF0FF30F7E7000003502DE9F84399
S214004264154641F67132164B8946DF69DA63012238
S214004274064603F58053DFF8508007F48037DA608B
S21400428455B9284601220F4BDA601FB10022A3F568
S2140042940053DA63BDE8F88306F5005404EA08041C
S2140042A4A41BAC4228BF2C46494622463046FFF79C
S2140042B4ABFF0028E6D12644A1442D1BE0E700BF4F
S2100042C4000003500020035000E0FFFF45
S2140042D02DE9F04F4FF0FD0BC9B09A460DF11B09C2
S2140042E09DF8503108AFCDF80C90CDF808B0019786
S2140042F0059303890446009383790E4690464188C9
S2140043008288407812F022FC054650B10090A388BF
S214004310002062883A4912F05DFF284649B0BDE8A1
S214004320F08F99F800002FF0A7FC38B12846A38834
S2140043306288344912F04EFF8D25EEE75A4639461C
S21400434099F800002FF040FC8346002851D0529B7D
S2140043501BB1BDF84C3198424BD8002399F8009019
S2140043600793A9F14102012A5FFA8BF123D8384658
S2140043700139254ADFF898C05FFA81FE734513DBE2
S214004380059B04210792C3B907AF18221F489FED6B
S2140043901A7B02FB060420460A460830394684ED9E
S2140043A0027B17F03FFC11E010F8011F013351406B
S2140043B00CFB01F2E2E7059B33B123464A4638463A
S2140043C0009610F045FBA8E70829DED9B8F1000FE3
S2140043D001D088F80090BAF1000F01D0AAF800B01A
S2140043E0529B002B99D05A46184608A917F01AFC7B
S2140043F093E7012591E700BF0000000000000000E1
S214004400B1F90300E6F90300C59D1C818010002069
S21400441093010001000000002DE9F04F93B0CDE9B4
S2140044200A32DDE91C530E9353EC102BCDE908013C
S214004430104619468DED060B1E9E16F07DFE80B1C9
S214004440DDE906014FF0FF32C54B16F09DFE40B980
S214004450DDE906014FF0FF326FF4801316F076FEAA
S21400446070B1DDE908019DED060B0E9B1E96CDE9A9
S2140044701C53DDE90A3213B0BDE8F04F00F088B9EE
S2140044800022DDE90601002316F060FE002800F099
S2140044903381DDE906A303F1004BCBF30A5016F493
S2140044A08063A0F2FF3008BF06250F9316F072FB5C
S2140044B09BA3D3E9002316F0D7FB9BA3D3E90023E5
S2140044C016F01CFACBF31304894644F07F5180465D
S2140044D00022A44B504641F4401116F00DFA94A366
S2140044E0D3E9002316F0C0FB02460B464046494679
S2140044F016F004FA16F052FE044616F04BFB8EA396
S214004500D3E900238046894616F0AEFB0022964B80
S21400451016F0F4F916F042FE89A3D3E90023074605
S2140045204946404616F0A0FB80463846894616F0B7
S21400453031FB85A3D3E9002316F096FB02460B4613
S2140045404046494616F0D8F902460B46CDE90C23FC
S21400455016F08AFBDDE90C2380468946104619468C
S21400456016F0CCF90022CDE91001804B40464946B2
S21400457016F0A4FC00227E4B16F0C0F902460B464D
S2140045804046494616F09AFC00227A4B16F0B6F9D9
S21400459002460B464046494616F090FCDDE90C23E1
S2140045A08046894600204FF0804116F0A5F9024665
S2140045B00B464046494616F0A1F902460B46DDE991
S2140045C0100116F07BFC07F2FF3700226A4B16F04C
S2140045D095F900223B0516F047FB52465B4680469F
S2140045E0894616F0D1FD002840F08980CDE90C8977
S2140045F004F16303C62B8CBF0527042731051BD5A2
S21400460053A3D3E900235046594616F0B3FD0028BD
S2140046107FD051A3D3E900235046594616F096FDA5
S214004620002876D00027A542C6BF2C1B04F1FF3514
S21400463000253C4646F480660E9B9F422CBF4FF0FA
S2140046400008A3EB070816F0020903D0002F18BFD6
S2140046504FF000083CB1DDE90C235046594616F0F1
S2140046602DFC82468B46DDE906010022002316F06B
S2140046706DFD10B10BF100439B46DDE9080126F401
S2140046800063CDE90183DDE90A324BEC10AB0095FF
S21400469000F07EF802465FB3DDE9091316F0200F3E
S2140046A000F10105089E0CBF65204520B047DDE9F6
S2140046B008010523002205930A23002CCDE90232C7
S2140046C007F1FF374FEAD473B8BF64422A46019316
S2140046D004970A9B009431F0EBF80246B9F1000FFC
S2140046E006D00B9BC41A0B9B1A190E9BA34245D8E7
S2140046F0104613B0BDE8F08FDDE906ABCDE600222C
S214004700404649461A4B16F0D9FB013CCDE90C0150
S2140047106EE7002D90D00F9B002B8DD0013D8BE7D0
S214004720FB799F501344D33FB3C8608B288AC63F9B
S21400473061436F63A787D23F71A379094F930A40FD
S2140047401655B5BBB16B0240EF39FAFE422EE63F76
S2140047502D431CEBE2361A3F0000000080842E41F9
S214004760FFFFEF7F0000F83F0000E03F00002C4016
S21400477000002440000018400000F03F2020DDE943
S2140047800913089DA8470134ADE700BF00000000EC
S2140047902DE9F04F5BEC10AB97B0CDE90501DDE9F4
S2140047A02058CDE90723504652465B465946229F7D
S2140047B016F0C2FC70B90323CDE902870193AA4B19
S2140047C00093DDE90501DDE9072330F0A3FF17B00C
S2140047D0BDE8F08F4FF0FF326FF480135046594615
S2140047E016F0B4FC28B10423CDE9028701939F4B51
S2140047F0E6E74FF0FF32504659469D4B16F0C4FC94
S21400480068B19C4A07F00403002B08BF03229A4BAA
S2140048101CBF13460422CDE902870192D0E750461A
S2140048208DA3D3E90023594616F0AEFC38B98CA305
S214004830D3E900235046594616F088FC68B1DDE9F6
S2140048400723DDE905014BEC10ABCDE92187209568
S21400485017B0BDE8F04FFFF7DFBD0022002350463B
S214004860594616F073FC002800F091805B465246CD
S2140048700020002116F040F8012382468B4609935B
S21400488017F4806400F08580092D40F285800024AE
S21400489030210EABA5F109020134202C03F8011BD0
S2140048A0A5EB040901D09442F6D15946504616F0BD
S2140048B075FC724B054603EBC90393ED007B8DED4B
S2140048C00A7B16F067F902460B465046594616F024
S2140048D013F8DDE90A2316F0C7F902460B46CDE9C0
S2140048E00C2316F083FC064616F044F902460B46E7
S2140048F0DDE90C0116F000F802460B46CDE90C2364
S21400490000225F4B16F040FC002848D001363046A7
S21400491016F030F902460B46DDE90A0116F020FCD7
S21400492008B100260135B9F1000F45D1284616F02A
S21400493031F902460B465046594615F0DDFF002277
S2140049404F4B16F003FC10B9E90700D501350A21D4
S2140049500EAB1A19202C0AD095FBF1F001FB10556E
S214004960303502F8015B013405460028F2D107F025
S2140049700302012A55D1B8F1000F52D0099A12B994
S21400498017F00C0F01D008F1FF38302240E00990F4
S21400499076E74FF0060988E7A946002485E7002257
S2140049A0DDE90C01364B16F0D1FB0028BBD10EB169
S2140049B0F007B8D50136B6E70A210EAB1A19202C37
S2140049C00DD0B6FBF1F001FB1063092E03F13003A6
S2140049D009F1FF3904F1010402F8013B11D8302136
S2140049E0A1440EAA202CB2D04C4504F101030AD1F2
S2140049F004F158020DEB02042E2204F8202C1C466B
S214004A00A5E70646DBE7A1541C46EBE71A5501343A
S214004A10444506D2202CF9D1CDE9028701940EAB8D
S214004A20CEE6202CF8D0099B3BB12D2204F158038A
S214004A306B4403F8202C0134EEE77A0704D504F122
S214004A4058032B226B44F4E73B07E5D504F15803E3
S214004A5020226B44EDE700BF0000000065CDCD418D
S214004A600000000065CDCDC1D4160400D8160400A1
S214004A70FFFFEF7FCB160400D01604001060040082
S214004A800000E03F0000000070B58EB02C22002130
S214004A9003A816F037FF64234FF002320893CDE9DF
S214004AA005230B2301218DF834305B4B8DF8101055
S214004AB01D880D4040F0A980084634F055FF0A22B4
S214004AC0564B574C1A704FF42873ADF812304FF00F
S214004AD0FF332360534B54491B8820460B82534BAD
S214004AE0534A1B68CD828B61524B0D621B884B82EA
S214004AF0514B1B68CB611DF0BFFB20B14FF41B71FF
S214004B004E4835F0CCFF0521206831F0C4F820B1BE
S214004B1040F27D21494835F0C2FF206815F0A8FE16
S214004B20474B2068196831F079F90C2535F084FB7D
S214004B306843099035F080FB68430DEB050107904C
S214004B40206817F0EDFD20B140F295213B4835F086
S214004B50A6FF25681FF0C8FD00220146284631F052
S214004B60D5F920B140F29721344835F098FF40F24D
S214004B700353344D344E2B80052396F90000AB705A
S214004B807F2801D11DF06EFC3378EB7035F054FBB6
S214004B9000EB80008000A88035F04EFB0023C000AC
S214004BA04FF0FF31E880AB604FF0FF3018A3D3E939
S214004BB0002335F02BF82549206831F060F920688D
S214004BC002A931F07CFD20B14FF434711B4835F05A
S214004BD066FF042220680DEB020131F0F4F8042889
S214004BE004D040F2D721154835F059FF01A901201D
S214004BF030F0F5FC07F024FE01201EF0B7F82CF08C
S214004C0058FD1EF0DDF81DF0C5FB0EB070BD00BFF0
S214004C100A0020FF420300000E5A00203B610020DD
S214004C2034540020BE790400EC670020C4790400E8
S214004C3091990300BC790400C07904009D4F0400DC
S214004C403465002028540020C26A0020059A03001C
S214004C500348044B834202D0034B03B11847704706
S214004C60F06A0020F06A002000000000064B0749AA
S214004C70C91A891048BF0131491003D0044B0BB143
S214004C8001481847704700BFF06A0020F06A00200D
S214004C900000000010B5064C237843B9FFF7D8FF94
S214004CA0044B13B10448AFF300800123237010BDFA
S214004CB0B015002000000000449D040008B5044B19
S214004CC01BB104490448AFF30080BDE80840CDE7B7
S214004CD000000000B4150020449D0400A3F5803AAF
S214004CE0704700BF154B002B08BF114B9D46FFF7C2
S214004CF0F5FF00218B460F461148124A121A16F08D
S214004D0001FE0C4B002B00D098470B4B002B00D01D
S214004D1098470020002104000D000B4817F038F9D2
S214004D2016F0C8FD200029002BF0E7FB17F01EF94F
S214004D30000008000000000000000000081000202E
S214004D40081000209061002091C0010007B50121E5
S214004D5020200DF1070201F0A9F958B10223012124
S214004D6020200DF107028DF8073001F0AFF903B0EF
S214004D705DF804FB9DF807100229F8D002220948C6
S214004D8015F0AEFC022301210DF1070220208DF85C
S214004D90073001F09BF92BF00AFB4FF4FA6000F0A5
S214004DA0CFFFE4E7C8AE030038B502F075F901F0AE
S214004DB01BFB012805D001F017FB022801D001F0EB
S214004DC039FB064D2B783BB901F00EFB0128044653
S214004DD002D12BF075FB2C7038BD00BFEC5A0020BA
S214004DE010B5044600882BF0B6FAA37884F8440081
S214004DF0834202BF0123E3702371074B04F11C00BA
S214004E00C4E9073401F0A8F9224620880349BDE822
S214004E10104001F0E5B800BFE7000300B100030052
S214004E2070B5C37804460D461646002B34D1D1B172
S214004E30214815F055FC0123E370E36CA6600BB126
S214004E40E06D9847E368F61A63699E4221D2217E98
S214004E501A480131C9B2217615F042FCA36D13B190
S214004E60217EE06D9847E5702BF0B4FA15B32379F0
S214004E7003BBA268238A801A83421BD801231048EA
S214004E80237115F02DFC236DA3B1E06DBDE87040D5
S214004E90184701232376E6E70029E4D1094815F0F0
S214004EA01FFC636DE660E5702571002BDBD0E06DBE
S214004EB09847D8E770BD00BFF0AE030001AF03000F
S214004EC02FAF03001CAF030070B51E468388044650
S214004ED00D46C18002810BB1868070BD8178008846
S214004EE02BF022F90123E370064BA680C4E90334B5
S214004EF00C34204601F030F929462046BDE87040C3
S214004F002BF05FBA3301030010B501790446B1FAFD
S214004F1081F1008849092BF07EF921796088B1FA81
S214004F2081F149092BF077F9034B1A68A24204BFB6
S214004F3000221A6010BD00BFCC15002070B5437962
S214004F400446A3B100880E4E04F10805336813B179
S214004F500C4B1B786BB121792BF05DF964210A4B61
S214004F603460A3602846BDE870402BF02ABA40881B
S214004F70E9E7064815F0B4FB054B3221A360F1E7DC
S214004F80CC150020ED5A0020094F000045AF030065
S214004F903D4F000010B50446E0B10F4815F0A0FBE9
S214004FA001236371A37953B9217920882BF033F953
S214004FB0236B7BB1606B0121BDE81040184720468B
S214004FC0FFF7A2FF04F108002BF000FA2046FFF7D7
S214004FD0B5FFEDE710BD00BF7BAF030010B504467C
S214004FE0F8B1104815F07CFB00236371A3796BB908
S214004FF021792088B1FA81F149092BF00CF9236B4D
S2140050007BB1606B0021BDE8104018472046FFF7D3
S2140050107BFF04F108002BF0D9F92046FFF78EFF3E
S214005020EDE710BD86AF030010B5044668B107482B
S21400503015F056FB637920461BB1BDE81040FFF71C
S214005040CDBFBDE81040FFF7A5BF10BD92AF03006F
S21400505010B5114C2188802904D9BDE810400F48AE
S21400506015F03EBBA21C0E4815F03AFB82210D48F7
S21400507015F036FB82212246022001F027F8014671
S21400508028B122880848BDE8104015F029BB07481B
S214005090BDE8104015F024BB78550020A1AF0300F2
S2140050A0CFAF0300ECAF0300F7AF03003BB0030045
S2140050B070B5144D82212A46022000F0F7FF014603
S2140050C0A0B12C46104834F8022B15F009FB0F4B04
S2140050D003F1240253F8041B934244F8041BF9D14D
S2140050E01A889B782280A37026232B802988084B59
S2140050F080290A46BDE8704028BF8022054815F082
S214005100EFBA00BF7855002046B00300C8B00300D1
S2140051107A550020A4B00300034B1B781BB18B42CA
S21400512001D82BF044B97047686A002010B50446D1
S21400513001460E4815F0D4FA012C11D10C4B0D483F
S2140051401A884FF6FF739A421EBF0022094B5A7404
S2140051502BF047F802F00CF9BDE8104001F0C8BF8C
S2140051600448BDE810402BF03EB800BFEFB0030087
S2140051701C6A0020C0640020F8B5144D04462F8831
S2140051807B1E7F2B05D93946114815F0A9FA002059
S214005190F8BD3A460021A81C16F000FF064618B1D6
S2140051A00C4815F09DFAF2E720463A46A91C16F080
S2140051B039FD2B88E6542B881C4414F8013C3B2B05
S2140051C001D00548EDE70120E2E700BF7855002052
S2140051D00EB1030031B103005CB1030070B50024CA
S2140051E01A4D1B4E3378A3421BDC0024194D1A4E71
S2140051F03378A3421BDC0024184D194E3378A342A3
S2140052001BDC01F0F1F8012816481CD12AF0E9FF52
S21400521002F0AEF801F06CFFBDE87040124801F0F5
S21400522003B92846FFF7DCFD01346035DAE7284687
S2140052302AF0BDFF01343435DAE728462AF0F0FFBD
S21400524001343835DAE72AF0CEFFE5E7782100208A
S214005250F35A002098250020F45A0020481F00200A
S214005260F25A0020C06400202D5100002DE9F04FB6
S214005270A7B005AC06462046FFF77EFF18B900200B
S21400528027B0BDE8F08F04A804942AF0EDFF054689
S21400529004A82AF0E9FF0446284616F02FFA1F282D
S2140052A003D9724815F01CFAE9E7204616F026FAEC
S2140052B01F2801D96E48F5E704A84FF000082AF029
S2140052C0D3FFC2460446C3464246C1464546CDF8CD
S2140052D00080CDF8048023789BB9019B052B0ED85F
S2140052E00B2D0CD8B9F10A0F09D8009B042B06D851
S2140052F0042A04D84BEA0A01032940F289805D4853
S214005300D0E72046CDE9023216F0F8F95A490746AA
S214005310204616F04DFD039A08B3029B582B13D86F
S214005320412B6FD9A3F1420116296BD8DFE801F0B3
S2140053301E5C0E6A6A6A6A2E6A6A2E156A6A6A6A4B
S21400534044386A6A6A6A5000692B5BD1012F06D816
S21400535021464A4815F0C4F991E7012FF8D104A870
S21400536002922AF081FF029A0446B4E76178542933
S21400537004D1032F49D821464148EBE7032F02D832
S21400538021464048E6E70135EDB2E8E7022F02D8AD
S21400539021463D48DEE701990131CBB20193DEE7B5
S2140053A0032F02D821463948D4E7009B0135013344
S2140053B0DBB2EDB20093D2E7022F02D82146344882
S2140053C0C8E709F1010901325FFA89F9D2B2C6E7E6
S2140053D0052F02D821462F48BCE702350BF1010BFA
S2140053E0EDB25FFA8BFBBAE7042F02D821462A48B3
S2140053F0B0E709F102090AF1010A5FFA89F95FFAD2
S2140054008AFAACE721462548A4E74FF00108A6E74C
S214005410009B991859445144C9B20A2901D9204819
S21400542040E702200321009B00EB830011FB0200F3
S21400543011FB0B015144B8F1000F00D001310131CE
S214005440202901D917482DE76EB1019B757033707E
S214005450009B86F80290F270337186F805B086F8E5
S21400546006A086F8078001200AE700BF8AB103007D
S214005470A1B10300DBB20300B1B10300B5B1030074
S214005480D0B10300F3B1030015B2030034B2030039
S21400549056B2030077B203009FB20300C0B2030007
S2140054A00AB3030034B303002DE9F04FA9B0FFF7A9
S2140054B0FFFD05A8FFF7DAFE20B9BE4815F010F983
S2140054C000F032FC07AC2046FFF756FE074608B948
S2140054D0B948F3E704A804942AF0C6FE054616F079
S2140054E00DF9B64CC2B21F2A627001D9B448E5E77E
S2140054F02946A01C16F096FB04A82AF0B5FE054621
S21400550016F0FCF8C2B21F2A84F8212001D9AD4853
S214005510D4E7294604F1220016F084FB04A82AF0FA
S214005520A3FE322504464FF000082678002E40F0F1
S2140055309F80FFF753FEA44BDFF8CC921B78DFF872
S214005540BC82DFF8C8A200939AF8003099F80020D1
S21400555098F800109D4815F0C3F89DF817309DF890
S2140055601850DFF89CB21D449DF8193032461D4491
S2140055709DF81A3098F800101D445B4699F8000014
S214005580EDB2B14200F3E882914F012D38BF0125FC
S2140055903A4600233C464FF482714FF6FF760133BD
S2140055A09D4213705180968002F10C02F7DC894B05
S2140055B087498248A36000F0FBFFE079A36800EB10
S2140055C0400003EB800000F0BBFDE3790133E3719C
S2140055D0814B1A88B24204D07D49804801F0EAF82F
S2140055E07D4B1A884FF6FF73D21A18BF01227849EE
S2140055F07B4801F0BDFC0023764E98F800209A42C6
S21400560000F3D28200274FF00C0B764B99F800205F
S21400561098F80010BA4200F3DA8202EB010B0C2174
S214005620002701FB0B419AF800009423B8426E4A0B
S21400563000F3EC8299F8003098F800704FF070098B
S2140056401F440C234FF00008074403FB0744DFF811
S214005650C0A15D4B1B78434500F3EC8229465C48AD
S21400566000F0FCFD614815F03BF829B0BDE8F08F6E
S214005670532E0FD163784C2B40F05081A378502BDB
S21400568040F04C8101225A4B1A7004A82AF0ECFD17
S21400569004464AE7442E13D16378303B092BF4D8EE
S2140056A0601C2AF0F1FD534B534A1978002385B24B
S2140056B0994202F16002E8DD22F8465C0133F7E722
S2140056C0422E0BD16378542B54D1A01C00F0D6FC8C
S2140056D0414B188018462AF0C8FCD6E7582E33D817
S2140056E0412ED2D9433E152ECFD801A353F826F02B
S2140056F0C75A00008B5600008B5600008B560000E1
S2140057008B5600008B5600006B5800008B5600002E
S2140057108B560000155800005B5700008B560000A3
S2140057208B5600008B5600008B560000A9590000CF
S2140057301D5900008B5600008B5600008B5600004B
S2140057408B5600001F5A0000692E9ED1601C2AF05E
S2140057509BFD80B22AF027FE97E7284B0120197898
S2140057600023274A994202F1A8028EDD02F8A60C11
S2140057700133F7E7601C00F081FC0646E01C2AF0C7
S214005780FBFD0121024630462AF0B2FD6021194891
S214005790194C03785943621866524FF4FA61118225
S2140057A04FF44871516117495583116501330370F1
S2140057B06BE700BF5DB3030086B30300D46300202D
S2140057C08AB10300A1B10300EE5A0020BDB3030066
S2140057D098160020101700201C6A0020481600208B
S2140057E0D01500209C1B0020E01900200DB40300FB
S2140057F0ED5A0020F35A002078210020F15A0020AC
S2140058009C1C002053020300F05A0020EF5A002090
S21400581090180020601C00F031FC00224FF0340984
S2140058208246DFF84C8311462AF062FD98F80000A5
S214005830CD4E09FB00F326F803A0F218E3781046D5
S214005840693B18BF012393702AF0B1FC0023C749B7
S21400585098F800204B60012302FB09661A4488F87A
S21400586000200E60B8460B740FE7601C00F006FCC4
S2140058700022114682462AF03BFD3422BC4EDFF859
S214005880E892307802FB00F329F803A009EB030145
S214005890E3780846693B18BF01238B702AF087FC23
S2140058A0B44A00231046916B41BB00EB83103423AF
S2140058B0327802FB03938363AF4A00231046D2F884
S2140058C0A41009BBA82202FB03003423327802FB93
S2140058D00393C0F8A430B8F1000F0BD1A34A434697
S2140058E0114652F8040BA8B93422307800FB029215
S2140058F041F82320337801333370C6E60133042B96
S21400590002F14002CFD1D7E70133042B02F1A802FF
S214005910D5D1E0E70133042BE3D1EBE7601C00F0C0
S214005920ADFB0646E01C2AF027FD01210246304664
S2140059302AF0DEFC4FF0600C904891490278DFF8C0
S21400594038E20CFB02FC21F80C604FF4487601EBC1
S2140059500C031E825E618B4E5D839E65E4788A4EE4
S214005960642C04BF01249C70A82433785C430EEB9F
S214005970040C0EF804304FF40074ACF80240032414
S2140059808CF804408CF8064002EB420401EB44110C
S214005990CCF8081032210133DBB201328CF8053026
S2140059A08CF8A0100270A7E7601C00F067FB0022CE
S2140059B04FF0380B8246DFF8E09111462AF098FC4B
S2140059C099F80030714E0BFB03F326F803A04FF056
S2140059D0010AF21882F804A0E37873B1E01C00F024
S2140059E04DFB0022044611462AF082FC99F800304E
S2140059F00BFB03635C8083F806A065485D4A03786A
S214005A009901535499F8001002EB8314C1EBC102BC
S214005A1006EBC2064A1C666389F80020C6E6601CD0
S214005A2000F02CFB8146E01C00F028FB0646601DBB
S214005A302AF0A2FC04460246012148462AF058FCF9
S214005A402246304601212AF053FC60204FF4487C61
S214005A50DFF828E14A4A9EF8003000FB03F422F8FB
S214005A600490DFF820911119A1F810C0C1F814C0F5
S214005A704D83C1F85890591CC9B248431418A4F86D
S214005A8010C0C4F814C06583C4F858909424165205
S214005A90404E981C8EF800003078DFF804C144436E
S214005AA003EB430301EB41010CEB040E02EB431343
S214005AB002EB41120CF80400CEF80430CEF80820B1
S214005AC001303070E1E5601C00F0D8FA8146E01C39
S214005AD000F0D4FA00220646114648462AF008FC92
S214005AE000223824114630462AF002FC2A48274A6B
S214005AF003784FF0000E04FB03FC22F80C904FF0E6
S214005B00010902EB0C0181F806E081F8049003EB32
S214005B100901C9B24C4302EB040C16539C1C0470DA
S214005B2070241E4E8CF806E030788CF804904443BF
S214005B30DFF870C0C3EBC303C1EBC1010CEB040E6E
S214005B4002EBC30302EBC1020CF80400CEF80430EB
S214005B50CEF808204844B4E75C790136844284BF16
S214005B601A715A71A8330CE598250020C0640020ED
S214005B70F45A00209C1B00209C1C0020F35A002096
S214005B807821002019510000F15A0020481F0020FB
S214005B90F05A0020EF5A0020F25A0020EE5A002059
S214005BA0E01900209018002033B117F8052C02EBFE
S214005BB0420206EB8206BE6039465846039301F061
S214005BC0AFFD039B0BF1A80B01330C3715E57918D5
S214005BD00AD04A1E0BFB0242D27902EB420206EBC7
S214005BE082060BFB0142966018460BFB01410393AD
S214005BF001F04EFB98F80010194839440BFB0141A0
S214005C0001F0A0F8039B01374033FFE417EB0B0FBE
S214005C1018BF11F8050C03911EBF00EB400006EB01
S214005C2080068E6003FB072000F09AFF0399013779
S214005C300C31F8E418EB070F18BF14F8053C2146A2
S214005C401CBF03EB430306EB830609FB08A018BF43
S214005C50A66000F055FE08F101080C34F9E400BF18
S214005C603C1F002007B5012121200DF1070200F09E
S214005C701DFA18B99DF80720024B1A7003B05DF89C
S214005C8004FB00BF686A002007B5064B8DF80700C6
S214005C90187001210DF10702212000F017FA03B059
S214005CA05DF804FB686A002007B5022101200DF1AB
S214005CB0060200F0FBF938B9044814F011FDBDF8EF
S214005CC0060003B05DF804FB0020FAE72AB40300E0
S214005CD007B50221ADF806000DF10602012000F01E
S214005CE0F5F9014610B1034814F0FAFC03B05DF86C
S214005CF004FB00BF4BB4030010B5FFF7D5FF044606
S214005D000146074814F0ECFC0121064814F0E8FCB4
S214005D1024B9BDE810400120FFF7DABF10BD00BF70
S214005D207BB403008DB4030008B5044814F0D8FC17
S214005D3000F0DCF92AF03BFB2AF036FBA3B40300A4
S214005D4038B50446084D094B28462B6000F004FA87
S214005D50002C18BF21462846BDE8384008BF4FF43F
S214005D6096712AF02EBB00BF9C260020A7020300D7
S214005D702DE9F043384D91B008AC07468946904669
S214005D800FCD0FC495E80F00002684E80F0001250C
S214005D900323324C3248CDE90366CDE905668DF81B
S214005DA00E300796029534F023FE2E4834F020FE7F
S214005DB032462D4920468DF8176004F0DDFD334647
S214005DC032462A498DF81900009020468DF8239017
S214005DD0CDF82C808DF8216004F0E8FD0A9020466E
S214005DE08DF8097004F04AFD204608AA05A904F0BB
S214005DF003FE02AA204603A92BF0B7FB4FF400725D
S214005E001B4B5A62194BE560626A920510D46BB957
S214005E104FF40072164B11485A6204F02FFD1148D9
S214005E2034F0E9FD002011B0BDE8F083013BEBE75C
S214005E30002BEDD0094908A82BF0CAFB4FF40072DE
S214005E400B4B06485A6204F019FD064834F0D3FDA1
S214005E50BDF82000E7E700BF945004000040005A59
S214005E603C5304003853040080841E0040420F0058
S214005E700060005A0122034B1870034B1980034B35
S214005E801A707047F65A0020246A0020F55A00203F
S214005E90F8B5454B1B780BB90020F8BD434B1B7873
S214005EA0012B03D1BDE8F8402AF000BA404B1C880D
S214005EB04FF6FF739C42EFD03E4834F099FD002326
S214005EC0260AE4B21A462146304604F097FC012E14
S214005ED0354604F0010335D015D9B51E012DDBD8A3
S214005EE0002B0BBF4FF480754FF080754FF4706138
S214005EF04FF070610BBF01274FF480370F204FF42F
S214005F0070202D4B11E0002B0BBF4FF480754FF027
S214005F1080754FF470614FF070610BBF01274FF42E
S214005F2080370F204FF47020244B1A6802401CD094
S214005F30BA421AD01A680A4032D11A6822EA010216
S214005F402A4316E0002B0BBF4FF480754FF0807588
S214005F504FF470614FF070610BBF01274FF480372C
S214005F600F204FF47020164BDFE71A6822EA000273
S214005F703A431A602AF09AF9054600288CD008366B
S214005F8044EA06102A460321C0B2FFF7F1FE40F6A7
S214005F90FF73684300F2FF70B0FBF3F080B27CE75B
S214005FA095427FF479AFC8E7F55A0020F65A0020EC
S214005FB0246A00203C53040028C3035020C3035027
S214005FC024C3035010B5044C237823B9034834F097
S214005FD00FFD0123237010BDF85A00203C53040027
S214005FE02DE9F0431F4C85B0074688469146FFF7DB
S214005FF0E9FF23781BB902F0B1F8012323707BBABE
S214006000ADF80C3030220023174E02FB03F4315D4E
S214006010A51901BB012333554FF0FF3304F11000DF
S21400602012493044AB606F80C5F80480C5F80C9008
S21400603009F026FB04F10801042231440C4B0095BC
S21400604003A802F061F9A96802460A4814F048FB62
S21400605005B0BDE8F0830133102BD6D1064814F006
S2140060603FFBF5E7F75A0020C4260020D1020300C4
S214006070E3020300B0B40300DEB4030080B102788C
S214006080A2F14103032B0BD840783038C0B2082861
S21400609006D8054B134413F8413C40EA03207047EA
S2140060A04FF6FF70704700BFB450040008B50B46AB
S2140060B042B101460448006803F06AFABDE80840A9
S2140060C02AF06BB9022008BD2C65002008B50B46E7
S2140060D042B101460448006803F0E2FBBDE8084010
S2140060E02AF05BB9022008BD2C650020F0B500261A
S2140060F0124F8DB0FF2300930A223346386802A958
S2140061002AF0F0FFC0B102AB1D4603EB800404E0AA
S21400611055F8043BB34228BF5E1CAC423868E9D948
S214006120296803F043FD0028F2D02D28F0D00DB0EA
S214006130BDE8F0402AF031B90DB0F0BD2C65002066
S21400614028B1034B0360034B436000238360704712
S21400615019000003D4640020FF2307B50021044A79
S2140061600093083009F010FA03B05DF804FB00BF96
S214006170BD0303000B460449024608680349097834
S21400618008B12AF042B97047D0290020FA5A0020F8
S214006190F7B50C4618B12921194834F080FC24685C
S2140061A023685E795F8830463946FFF7E3FFF0B133
S2140061B08568E5B1A089227D3946904291BF0020CE
S2140061C0801AA36880B294BF03469B18E27C0090B6
S2140061D03046A8470138032803D8DFE800F0080F48
S2140061E00B0D002420462EF0AFFA204600E081205A
S2140061F003B0F0BD8024F5E79324F3E78724F1E7A6
S21400620006B50300F8B515460D4A044610680D4A53
S2140062100B46117850B122462AF0F7F8034628B10B
S21400622000210C27C678B14201DB0020F8BD07FB31
S21400623001F45A681019125BAA42F7D00131F2E74E
S214006240D0290020FA5A002008B5034B1B6803B17A
S2140062509847002008BD00BFCC2900202DE9F74F45
S21400626004460D460026454B454F1860454B1970B1
S21400627033010021F85C013610F056FA0C2EF7D1E7
S2140062800C2D28BF0C254FF0000901953C4EDFF879
S21400629000A13D4DDFF8FC80019B4B4502DC03B0BE
S2140062A0BDE8F08F23784FF0000B3370638873805F
S2140062B0A388B380A379C6F80880B371E379C8F8D9
S2140062C0005088F804304FF00003A768A8F806309E
S2140062D0E3795B450ADC012116F8100B10F024FA6E
S2140062E008F1080809F101090C34D5E74FF000035E
S2140062F038886B812880FB784FF0000C2B81BA78A9
S214006300C5F804A0002A00920CBF802240222A73FF
S21400631079680AF10C02634513DC03EB43030AEBCE
S214006320830ABB6843B1009A4FF6FF71B2FA82F255
S214006330164B52092EF098F914350BF1010B0C3759
S214006340C6E7B1F800E00CF1010C22F80CEC91F86D
S21400635002E00C3202F816EC91F804E00C3102F878
S21400636015EC11F809ECBEF1010F14BF4FF0100E3A
S2140063704FF0110E02F814ECCDE700BFD029002034
S21400638018410020FA5A0020D42F00209161000006
S214006390D429002054320020014B1860704700BFFB
S2140063A0C8290020014B1860704700BFCC29002088
S2140063B070B5128805460E46FFF724FF044670B1F6
S2140063C002790499806815F0EFFA064B1B680BB942
S2140063D0002070BD3146284622889847F8E7862078
S2140063E0F7E700BFC829002008B50FF039FA0228E1
S2140063F006D0012806D0044B18784000C0B208BD6D
S2140064000120FCE70220FAE7F95A0020054B10B5F8
S2140064101C682CB1FFF7E8FF2346BDE8104018477C
S21400642010BD00BFC4290020014B1860704700BF94
S214006430C4290020034B1A781AB901221A700BF0EF
S2140064406FBA7047F95A00200022024B1A70FFF705
S214006450DDBF00BFF95A002037B50446002832D009
S2140064600FF0FEF9022830D160892EF0CFFCE079DB
S214006470237A003818BF0120012B637A08BF40F04A
S21400648008000BB140F0100063890BB140F0040027
S214006490257CA188A2790DB1E36873B90C4B10F086
S2140064A01FFD2178084610F097FD2DF0D8FF002834
S2140064B014BF0320002003B030BDCDE90035054BE6
S2140064C010F00EFDEDE70220F5E70120F3E700BF30
S2140064D0FE050400C7D5030008B50DF07FFB014696
S2140064E030B1044814F0FCF8BDE808400DF01ABFBF
S2140064F008BD00BF78B50300034B044A5B7C01214E
S21400650003201370FFF7E2BDC0640020FB5A002092
S21400651038B50446FFF7F0FFB4F57F4F17D129F0E2
S214006520B0FE054660B91449144814F0D9F8FEF7D1
S214006530BFFD22462946BDE83840012029F087BF26
S214006540FEF786FDBDE838400020FFF7F9BB4FF6A2
S21400655001739C4204D1BDE83840094829F029BEA1
S2140065604FF602739C4205D1064B1878BDE83840BA
S214006570FFF78ABB38BD00BFA5B503002FB20300E6
S214006580C0640020686A002010B5074C012122462E
S2140065900320FFF78BFD28B92378044A003B18BF79
S2140065A00123537410BD00BFFB5A0020C0640020B6
S2140065B0F8B5564B32251A884FF6FF739A4218BF25
S2140065C003234FF00802524C18BF2370514B1A7029
S2140065D030225D70DD7036259A705A7134221D7136
S2140065E031259A711A724FF40012DD714A4D4264D9
S2140065F0C5644A4D01220565494D86188565494D95
S214006600C667C565484D494E4566494D80F84820E1
S2140066108566484D80F854200567474D80F8602011
S2140066204567202580F8785080F8845000F12105D1
S214006630C0F88850414D80F86C20C0F88C50C0F8E7
S214006640806080F89020C0F89440C0F8B8303C4B8A
S2140066503C4CC0F8BC300223C0F898403A4C80F856
S214006660C030C0F8A4400F24384B80F8A840C0F8CB
S214006670C430374B374CC0F8C8308223C0F8AC4023
S214006680354C80F8CC30C0F8B0400924334B344D3C
S214006690C0F8D030334B80F8B440C0F8D4302C7CEF
S2140066A0314B80F89C20C0F8A00080F8D820C0F8B5
S2140066B0DC3044B12D4B80F8E420C0F8E03005F122
S2140066C01103C0F8E8304FF0000CCA798E6802EB70
S2140066D042039F00443006EB830326F807C0586049
S2140066E001200D349870DC701318CB71FFF7BAFADE
S2140066F0FFF74AFFFFF778FE012806D12B7C23B16F
S214006700BDE8F840164829F054BDF8BD1C6A0020C4
S214006710696A0020FC5A0020CD50040001002000C9
S214006720CC50040002002000CB50040005004200BC
S21400673003002000CA500400040042000700300096
S214006740FDFF21001200100100404200C850040066
S21400675000FF4401B85004000600420078550020AF
S214006760C064002002FF2001686A002001FF1001BB
S21400677013B504460D4829F083FC6422C0F30F438A
S214006780637083B2B3FBF2F3A0782370202201215A
S21400679029F05DFEA0782122012129F058FE044947
S2140067A0201D02B0BDE8104029F00BBE1C6A002078
S2140067B0E09304000B7870B583704CF61E030380DC
S2140067C04FF02013C362012380F8303080F83C304D
S2140067D0C3180364124B044643640223114A80F82C
S2140067E04830114B8263C3644063CA798D6802EBFC
S2140067F0420305EB830004F12C0646600B4E45F879
S214006800236000238360531CCB71094B201DC4E911
S2140068100134FFF7A1FC2046BDE87040FFF7A8BF93
S214006820FDFF210021002000CE50040001000103DE
S21400683071670000437B044A012113700078113011
S214006840C0B2FFF743BC00BF065B002038B5044665
S2140068500078054D11302A460121C0B2FFF726FC0C
S21400686008B92B78637338BD065B00200A2805D864
S214006870034B53F8200008B129F0C4BE704700BF90
S214006880B4320020012908B506D0022907D049B93C
S21400689029F0AFFE002008BD29F0AEFEFAE729F089
S2140068A0AEFEF7E7024813F01BFF0120F3E700BF38
S2140068B0D2B5030010B40A2811461A46BDF80430B3
S2140068C007D8064C54F8200018B15DF8044BFFF7C3
S2140068D0D9BF01205DF8044B704700BFB4320020DA
S2140068E0002310B5044683810364A0F84430483082
S2140068F0FFF732FC014BC4E9123410BDEB05030070
S21400690038B50B7804460A2B0D4632D8194A437020
S21400691042F82300FFF7E4FF2046FFF797FF4FF407
S214006920401323610123144A2375A261134A84F895
S2140069302030E261124A84F82C306262114A84F8F0
S2140069403830A26204F10C0222630F4A04F10D03F0
S2140069506263E363EA79A86802EB420300EB830113
S21400696010344C60094C40F82340094B8B60531C94
S214006970EB7138BDB4320020055B00200800200013
S2140069806A6A002000FF300001FF100102010104C6
S214006990B568000010B47024427B0D48013A012906
S2140069A004FB020006D0022908D059B95DF8044B52
S2140069B029F01FBE5DF8044B29F01EBE5DF8044B9F
S2140069C029F01DBE03485DF8044B13F089BE00BFD6
S2140069D090180020EEB50300B0F85C302DE9F041C9
S2140069E08B4204460E4638D0437B077C8BB31C4A4A
S2140069F012789A422DD370251A4A013B05FB0323D1
S214006A0090F80F801B7B424629F00AFEB8450546E3
S214006A1001D1FF281FD13A463146204694F89030DF
S214006A2029F0FEFD2F460546552212216078A4F86F
S214006A305C6029F00CFDFF2F03D039462046FFF797
S214006A40A9FFFF2D09D029462046BDE8F04129F0D0
S214006A5027BEFF25DFE70746E6E7BDE8F08100BF73
S214006A60EE5A00209018002041688268C978D278D3
S214006A7049B112B10321FFF7AFBF837B002B0CBFD8
S214006A8001210221F7E72AB1837B002B0CBF0221EC
S214006A900121F0E7014813F023BE00BFFFB5030055
S214006AA0037BD3B14368DA7812B18268D278A2B990
S214006AB01B7933B1837B002B0CBF04210521FFF724
S214006AC08BBF83681B792BB1837B002B0CBF052102
S214006AD00421F4E7014813F003BE704731B6030003
S214006AE0084A437B05211370837B5370C37B9370E6
S214006AF0037CD370037B137100780E30C0B2FFF7AF
S214006B00E5BA00BF075B002038B5044600780C4D98
S214006B100E302A460521C0B2FFF7C8FA20B1BDE8FC
S214006B203840084813F0DCBD2B7863736B78A3738A
S214006B30AB78E373EB7823742B79237338BD00BFEF
S214006B40075B00206DB603000A2805D8034B53F8F0
S214006B50200008B129F0EEBD704700BFE0320020EB
S214006B60F8B50B7804460A2B0D4600F28280414A9F
S214006B70437042F82300404E29F0FAFDFFF7C4FFA9
S214006B806268A3683D483E49D6641165D465506581
S214006B90C3E91410DE64DC654FF098730226636167
S214006BA0012304F10C01E16136491032216204F13F
S214006BB00D01A16234492376E16204F10E0161639E
S214006BC0324984F82430A16304F10F01216430496E
S214006BD084F83030616404F11001E1642D4984F8D2
S214006BE03C3084F84830216584F85460A265E87922
S214006BF0A96800EB400201EB820704F1140CC7F809
S214006C0004C04FF4817C244F41F82270C218D2B2DF
S214006C1002EB420241F822C001EB820700227A60B2
S214006C201E4A84F8703022661D4A84F88830A266B0
S214006C301C4A1D4BE2661D4AC4F88C3062671C4A2B
S214006C408319A26704F15C02C4F88020DBB2194AFB
S214006C5003EB4303C4F8842084F8646084F87C6003
S214006C6001EB830260345460134A033041F823205A
S214006C70E871F8BDE0320020696A0000F7060300FC
S214006C80A16A00000100200102001001030030018B
S214006C90040030010500210101FC01064A00210024
S214006CA0D050040051001000D2500400D35004000D
S214006CB0550021006F0018001200010470B50D4643
S214006CC00646144613460A4601461A4813F008FDBF
S214006CD025B92046BDE87040FFF71ABC072D05D140
S214006CE021463046BDE8704000F0DABC4FF601435E
S214006CF09D4205D121463046BDE87040FFF724BFCF
S214006D00062D05D121463046BDE8704000F076BA23
S214006D10B5F5817F05D121463046BDE87040FFF7C6
S214006D20A5BD202D04D12046BDE8704000F0ECB88B
S214006D3070BD00BF9CB603000148FFF72DBB00BF27
S214006D40BD6C00004FF4C01330B50360012303711F
S214006D50074B8C688360CA7902EB420304EB830519
S214006D606860044844F82300531CCB7130BD00BF54
S214006D70D4500400040001010368064A0C21136085
S214006D804368536003891381438922205381FFF7A8
S214006D909DB900BF0C33002010B50368044686B0CA
S214006DA0FBB1114813F09CFCA37B104A8DF804300D
S214006DB04FF48273ADF806300123CDE90223002399
S214006DC001A804938DF81430FFF746FB204661892E
S214006DD029F0DEFC2046FA2150F8143B594329F0EE
S214006DE0F0FA06B010BD00BFCFB6030020000001C9
S214006DF010B5064C236843B1054813F071FC2068B3
S214006E00BDE81040418929F0C3BC10BD18330020EE
S214006E10F0B6030070B5364910460C68BDF8102071
S214006E20002C5ED003285CD8DFE800F0021E274561
S214006E30002B5AD0022A58D91D78B3F80160291EB3
S214006E4018BF012132462B4813F04AFC2DB13146BB
S214006E50204629F09DFC002070BDE573FA2063688B
S214006E60584329F035FBF6E7234813F039FCE37B5B
S214006E70002B38D00023E373F0E7002B35D0032A2D
S214006E8033D91D681D48294613F02AFC1C4B2A1FBF
S214006E909A4201D90220DFE723680BB19D42F9D858
S214006EA023899D42F6D3E37B6560B3B9FA20684335
S214006EB029F00EFB11E0002BCED0012ACCD91D887C
S214006EC01048294613F00CFC002DE3D063689D4261
S214006ED0E0D8E37B2581002BE8D12046FFF74CFF66
S214006EE0B9E70120B8E70420B6E70320B4E700BFFF
S214006EF01833002013B703004AB7030069B703002E
S214006F00FCFF6D0094B7030038B5154B1C6834B30E
S214006F10F0B92168134813F0E3FB23683BB16268BD
S214006F20934204D2104813F0DBFB6368236004F13D
S214006F301405284629F04AFA236823B1FA21284680
S214006F40594329F03EFA2046BDE83840FFF714BF03
S214006F50032804D16189054813F0C2FBF3E738BD66
S214006F6018330020BFB70300EDB7030022B80300B4
S214006F7070B53E4B0D46044609781860002A6FD15E
S214006F8001231A46A1730021E1730121A1814FF468
S214006F906151C4E900132823354E22810C21324664
S214006FA022206381FFF782F860B9D6E900230AB190
S214006FB09A4207D3318999429FBFC4E90023738957
S214006FC0218163812B4B2C4AE363042384F84030F1
S214006FD084F84C30E3182365284BA26463650223CB
S214006FE004F10802E265264A84F85830226604F165
S214006FF00A02A266234A84F8643084F8703004F1EA
S2140070000C03E26663676464EA79A86802EB4203ED
S21400701000EB830104F13C064E601B4E40F82360F3
S214007020FA261A4B1A488B60531CEB71FFF7BAF915
S214007030208904F11405704329F04AFA6189204634
S21400704029F0A6FB134B2846C4E90534FFF784F85D
S214007050216849B128467143BDE8704029F0B1B9AE
S2140070604FF4F07302228DE770BD00BF1833002086
S2140070700C33002000002301010023000200210041
S21400708003002101FDFF210020000105156E000010
S214007090F16D0000996D0000134B10B51C680CB321
S2140070A0E37BEBB129F096F92369C01A002809DBC7
S2140070B00E4813F015FB0023FA20E3736368584369
S2140070C029F006FAE37B5BB12489FA235C4329F0B6
S2140070D00AFAA04206D02046BDE8104029F0F8B9CA
S2140070E06468F2E710BD00BF183300204FB80300F5
S2140070F038B50024044D55F8040B08B129F05BFBA5
S21400710001340B2CF7D138BD1C330020042908B5F8
S2140071100AD172B16BB113781BB929F077FB002046
S21400712008BD29F069FBFAE7034813F0D9FA0120F5
S214007130F6E70320F4E700BF89B8030010B40A2876
S21400714011461A46BDF8043007D8064C54F82000FD
S21400715018B15DF8044BFFF7D9BF01205DF8044B6A
S214007160704700BF1C3300200229024608B50ED027
S21400717004D839B9104629F049FB06E04029F9D071
S214007180412907D1104629F037FB002008BD29F019
S21400719047FBFAE7024813F0A3FA0120F6E700BF20
S2140071A0A9B8030010B40A2811461A46BDF80430E0
S2140071B007D8064C54F8200018B15DF8044BFFF7CA
S2140071C0D3BF01205DF8044B704700BF1C3300207E
S2140071D0426B094B52791A7082785A70C2789A704C
S2140071E0826B12B190F83C20DA70007804210930E6
S2140071F0014AC0B2FEF76ABF0C5B00200A2805D819
S214007200034B53F8200008B129F026BB704700BF97
S2140072101C33002038B504460078084D09302A464D
S2140072200421C0B2FEF742FF30B96B78A370AB788A
S214007230E370EB7884F83C3038BD00BF0C5B002070
S21400724038B504460078114D09302A460421C0B2EC
S214007250FEF72CFFC8B9A3782A78022B0CD004D8E6
S21400726063B9204629F0D2FA01E0FF2B0AD0204667
S214007270BDE8384029F09FBA002AF2D1204629F00E
S214007280BBFAF4E7002AF9D1EBE738BD0C5B002027
S214007290F8B50B7804460A2B0D464ED8274A42F816
S2140072A023004370FFF7B6FF636B254A5C631A63DF
S2140072B02046FFF7C5FF204629F07DFA4FF48013DD
S2140072C063600123626BA66B0532E2601D4A23727F
S2140072D02261A21C2375A26166B11B4A84F8203085
S2140072E0E261E21C6262194A84F82C3004F13C0325
S2140072F0A26223630627EA79A96802EB4203002EFE
S21400730021F8237001EB83000CBF02230423C37013
S214007310012383700E4B04348360531C4460DBB23D
S2140073200C4C03EB430341F8234001EB830000239E
S2140073304360094B02328360EA71F8BD1C330020BB
S214007340350803000340300101FF300102FF100141
S214007350A5710000080001003D71000028B1034B34
S2140073601B78834234BF002001207047F05A00206B
S21400737070B500250A4C0B4E3378AB4200DC70BD6E
S214007380D4F8A42042B123791BB16079FFF7E6FF59
S21400739010B9104628F0FEFE0135A834ECE700BF11
S2140073A09C1C0020F15A002008B542790146104680
S2140073B0FFF7D4FFA8B1CB780A48013A042B00EBBC
S2140073C082100ED8012B08D81BB9BDE8084029F05A
S2140073D013BABDE8084029F019BABDE8084029F0FC
S2140073E01FBA08BD9C1B002008B54279014610460E
S2140073F0FFF7B4FFA8B1CB780A48013A042B00EB9C
S21400740082100ED8012B08D81BB9BDE8084029F019
S214007410FDB9BDE8084029F0EFB9BDE8084029F0FD
S214007420FFB908BD9C1B002010B586B00446FEF7C9
S214007430DBFF012830D1E278042A2DD8DFE802F0FD
S21400744013323403030061790846FFF787FF58B309
S2140074501648032A00EB811050F80C3C58791DD1D1
S214007460003818BF012063784FF480728DF804301E
S2140074704FF48273ADF806300623ADF808300123CA
S2140074808DF80B3000238DF80A0001A8CDE9032300
S2140074908DF81430FEF7E0FF06B010BDB0FA80F0AD
S2140074A04009E0E70020DEE70220DCE79C1B002026
S2140074B010B586B00446FEF797FF012830D1E27873
S2140074C0042A2DD8DFE802F0131332030300617993
S2140074D00846FFF743FF48B31548032A00EB811020
S2140074E050F80C3C5B791DD11A1E18BF0122637838
S2140074F08DF80A208DF804304FF48273ADF806300C
S2140075000623ADF8083001234FF480728DF80B3057
S214007510002301A8CDE903238DF81430FEF79CFF65
S21400752006B010BDB3FA83F25209E0E70222DEE7A6
S2140075309C1B002010B586B00446FEF755FF0128B8
S21400754012D16378094A8DF804304FF48273ADF88F
S21400755006304FF48073CDE90223002301A804937C
S2140075608DF81430FEF778FF06B010BD080007014E
S21400757010B586B00446FEF737FF012820D16278A2
S214007580104B8DF804204FF4827294F8A01094F8F3
S214007590A10059701870ADF8062004934FF480725D
S2140075A00223094901A88DF81430CDE90212FEF72E
S2140075B053FF94F8A130013B18BF012384F8A13093
S2140075C006B010BD105B00200800050110B58378DA
S2140075D0044603B30379022B0AD142791046FFF71B
S2140075E0BDFE28B10C48013A00EB821029F018F9CC
S2140075F0A379022B02D12046FFF716FF2046FFF79D
S214007600B7FF02236078A4F86C305522BDE810401E
S214007610122128F01CBF10BD9C1B00204388094A7D
S214007620082113808388538083681B8A938090F890
S214007630A03093718379D37100780430C0B2FEF71E
S21400764045BD00BFFA55002038B50D460446017802
S214007650114813F045F84FF602739D420ED10F4BBA
S2140076601B782BB963712046BDE83840FFF7D6BFBC
S21400767062790AB19342F6D20123F3E7B5F57F4F5C
S214007680F1D1204629F065F9A378022B0CBF012220
S2140076900022A3689A70E6E7C5B80300F05A0020F7
S2140076A00A2805D8034B53F8200008B1FFF7CCBFD3
S2140076B0704700BF4833002038B504460078144DA4
S2140076C004302A460821C0B2FEF7F0FC20B1BDE81F
S2140076D03840104813F004B82B8863806B88E9782C
S2140076E0A380AA88A3681A82AB7984F8A030EB79C5
S2140076F0A371094B1B780BB9637138BD09B1994268
S214007700FBD9064812F0ECFF23780133F4E700BFFC
S214007710FA550020DFB80300F05A002008B903002D
S214007720F8B50B7804460A2B0D4600F28D80474AC2
S214007730022642F823004370FFF7BEFFA268444BC0
S214007740D465D364434BA11C5365434B103213647A
S2140077504FF44013E36001236161E1623F49226513
S21400776021633F4A211DA1633E483F49626504F1FB
S214007770A002A061E163E265E01C611D3B4A206255
S21400778061643B483B492266A21D2374237784F834
S214007790283084F8343084F84030A16484F84C6093
S2140077A084F8583084F864306062A266E879AA6883
S2140077B000EB400102EB810704F10C0CC7F804C093
S2140077C04FF0060C2C4F42F82170C118C9B201EBDD
S2140077D0410142F821C002EB810700217960274F62
S2140077E084F880302767264F84F89830A767254F9F
S2140077F0254BE767254F84F8746084F88C60C4F8DE
S2140078009C3004F16C06831CC4F88470C4F8906045
S2140078101F4F204EDBB203EB4303C4F89460C4F85A
S214007820887002EB83067034746008261A4C42F89F
S2140078302340C31CDBB203EB430302EB8304043098
S21400784042F823606160E871F8BD00BF483300204D
S214007850A9080300F3080300CD75000001FF3001FE
S21400786004FF20011000300102FF200105FF300157
S21400787000FF300103FF2101070001084A00210034
S214007880D650040051001000D8500400D95004000F
S214007890550021006F0018001200010400239B6AA7
S2140078A0B3F5804F03D21968064A914203D00023ED
S2140078B0037083607047012202709A689B69426079
S2140078C0F7E700BF07B0CD5E024B034A1A602AF006
S2140078D064BC00BF0000002002020FF073B53F4BEF
S2140078E004461A781AB102221A7002B070BDCDE9A9
S2140078F000220028F9D001261E7032F0DBFF384D3A
S214007900384B186017F01AFD2B785BB902F0F2F9C5
S21400791040B935480823354A3549006801F038FE35
S21400792000B92E70334B5A68E260334A9A601A6E7A
S21400793022605A6E6260D3F87021A2601B6E5C04EF
S2140079402CD52E4AD368D807FCD42D4B1A68531C66
S21400795029D04FF4801393402A4A13660423294CF7
S2140079604FF0804223664FF480632366102323661D
S2140079704FF400536846236601A92266636629F021
S21400798000F8009B2366019B63662B78002BACD027
S214007990164B1A6822665B686366A6E71A4AD368BF
S2140079A0D907FCD4D1E7194B1B78002BD6D1184B3E
S2140079B05A68144B12B94FF480121A66154A526868
S2140079C012B94FF400121A66134B5B68002BC5D130
S2140079D04FF480020B4B1A66C0E700BF135B002013
S2140079E0145B0020843300202C65002088330020A0
S2140079F0007108000080004455CEAC000000044032
S214007A00F86400200090004400000450125B002040
S214007A100080055000C005500000065038B5224DC5
S214007A2004462B78012B02D001232B7038BD00288A
S214007A30FCD028F0CBFF013009D028F0C7FF40F279
S214007A400113984203D0194AD368DB07FCD4226896
S214007A50174B1A6662685A66A268C3F87021E26815
S214007A60D40744BF00229A60124B1A68013213D121
S214007A70114A127882B911494968C80748BF1A6086
S214007A800F4A5268D10744BF01221A600D4A526855
S214007A90D20744BF02221A6017F058FC0A4B186837
S214007AA032F003FF0023C0E7135B00200000044011
S214007AB000800044F8640020125B0020008005501F
S214007AC000C00550000006508433002070B5002426
S214007AD0A36AB3F5804F23D21A68134B9A421FD17C
S214007AE0124E337813F0FD0518D14FF48034104849
S214007AF0FFF7F4FE032004F04FFC0E4B0320DC607F
S214007B0004F02EFC0C4B1C61AB6ADB6998470446FC
S214007B100748FFF783FF0CB901233370204670BD7A
S214007B204FF48174FAE700BF07B0CD5E125B002009
S214007B307433002000A000440090004413B5204B8E
S214007B401B7803B9FEE700231E4CCDE900336A46D6
S214007B5008231D49206801F01BFDF8B91B4AD2F81E
S214007B604031D2F840211F2B4FF0010311D9203AA3
S214007B709340019A1A43019208236A4612492068E4
S214007B8001F08EFE124B134A1A602AF006FB02B072
S214007B9010BD9340009A1A430092EDE72D28F1D1CC
S214007BA00A4AD2F84031D2F840211F2B4FF0010389
S214007BB085BF203A93409340019398BF0093DBE73C
S214007BC0135B00202C650020007108000080004434
S214007BD0000000200B020FF038B50025AB6A044603
S214007BE0B3F5804F10D21B6BB3F5804F0CD207480D
S214007BF0FFF774FEAB6A20461B6B5B689847BDE8D0
S214007C0038400248FFF70ABF38BD00BF9033002057
S214007C1013B50024A36A0190B3F5804F13D21B6BF3
S214007C20B3F5804F0FD20948FFF758FEA36A01212B
S214007C301B6B01A89B69984704460448FFF7EEFEB5
S214007C40204602B010BD4FF48174F9E7903300204F
S214007C5070B50026B36A0446B3F5804F0D4612D2BF
S214007C601B6BB3F5804F0ED20848FFF737FEB36A9A
S214007C7020461B6B29469B69984704460348FFF736
S214007C80CDFE204670BD4FF48174FAE79033002095
S214007C9070B50026B36A0446B3F5804F0D4612D27F
S214007CA01B6BB3F5804F0ED20848FFF717FEB36A7A
S214007CB020461B6B2946DB69984704460348FFF7B6
S214007CC0ADFE204670BD4FF48174FAE79033002075
S214007CD0F8B50027BB6A0446B3F5804F0D46164636
S214007CE011D21B6B7BB10948FFF7F8FDBB6A204633
S214007CF01B6B324629465B6A984704460348FFF7E3
S214007D008DFE2046F8BD4FF40174FAE7903300204C
S214007D1070B50026B36A0446B3F5804F0D4612D2FE
S214007D201B6BB3F5804F0ED20848FFF7D7FDB36A3A
S214007D3020461B6B29469B6A984704460348FFF774
S214007D406DFE204670BD4FF40174FAE790330020B4
S214007D50F0B50027BB6A0446B3F5804F0D461646BD
S214007D60ADF5337D20D21B6BB3F5804F1CD2104887
S214007D70FFF7B4FDBB6A20461B6B40F2C1225B6A6C
S214007D8001A99847044630B10948FFF747FE204648
S214007D900DF5337DF0BD836A32461B6B2946DB6AE0
S214007DA001A898470446EFE74FF40174EFE700BFD9
S214007DB09033002010B50024A36AB3F5804F10D28C
S214007DC01B6BB3F5804F0CD20748FFF787FDA36AFD
S214007DD01B6B1B6B984704460348FFF71FFE2046A5
S214007DE010BD0124FBE700BF90330020F0B58FB034
S214007DF0044601A80E461546FFF7EEFE9DF80C3029
S214007E00012B12D1B5F5402F27D8B4F5402F24D832
S214007E106319B3F5402F20D821462A46304613F082
S214007E2001FF002420460FB0F0BD0027BB6AB3F563
S214007E30804F15D21B6BB3F5804F11D20A48FFF75F
S214007E404DFDBB6A2A461B6B314620465B6B984746
S214007E5004460548FFF7E2FDE4E740F20244E1E7A6
S214007E6040F20114DEE700BF90330020F0B58FB07B
S214007E70044601A80E461546FFF7AEFE9DF80C30E8
S214007E80012B1FD1B5F5402F06D8B4F5402F03D8E7
S214007E906319B3F5402F13D940F2024420460FB0C1
S214007EA0F0BDE258013225D104339D42F9D82A4666
S214007EB03146204628F0BAFD0028EDD00024EDE734
S214007EC00023F2E70027BB6AB3F5804F15D21B6B81
S214007ED0B3F5804F11D20A48FFF700FDBB6A2A4669
S214007EE01B6B314620469B6B984704460448FFF7B9
S214007EF095FDD3E740F20344D0E740F20114CDE706
S214007F009033002070B58EB0044601A80D46FFF7EA
S214007F1063FE9DF80C30012B22D144EA0503C3F31F
S214007F200C03002B33D1B5F5402F04D940F20244A0
S214007F3020460EB070BDB4F5402FF7D82544B5F5F1
S214007F40402FF3D8204604F5005428F068FDAC42D4
S214007F5002D00028F6D1E9E70028E7D00024E7E7BA
S214007F600026B36AB3F5804F14D21B6BB3F5804F6F
S214007F7010D20A48FFF7B2FCB36A29461B6B2046AC
S214007F80DB6B984704460548FFF748FDD0E740F20C
S214007F900444CDE740F20114CAE700BF9033002046
S214007FA0BFF34F8F0549064BCA6802F4E0621343DD
S214007FB0CB60BFF34F8F00BFFDE700BF00ED00E0D2
S214007FC00400FA0570B5D0B1C9B10E4E431E013992
S214007FD013F8014F2046325D02F00302012A11F821
S214007FE0012F08BF04F12000B55C05F00305012D44
S214007FF008BF2032801A01D1002CE9D170BD0120C3
S214008000FCE700BFAD7804000348044A0449121A8E
S214008010921028F057BD00BF34410000D042000047
S2140080202C62002008B5154B83F30A8800F030F860
S214008030FFF7EAFF124B13498B4212D30020124B74
S21400804012498B4218D3FCF74DFE186850F82240B0
S214008050586840F82240013298688242F5D30C33C3
S214008060EAE70022F8E71C6844F8220001325C6860
S214008070A242F8D30833E4E70022F8E7080000201D
S2140080804C9D0400589D0400589D0400589D040013
S214008090124B134A70B59A60D3F88820114D42F4FB
S2140080A07002C3F888206FF0010205F500542266BE
S2140080B041F2FF7262660222C3F8D020BFF34F8FF0
S2140080C0BFF36F8F4FF44036032004F065F90320AA
S2140080D0E66004F045F92E6170BD00BF00ED00E0DB
S2140080E00040000000800044014B1860704700BF4D
S2140080F000650020054B1860054B1B6F03F0070357
S214008100032B01D130F02EBD704700BF086500205C
S214008110008000502DE9F04104464FF001080C2580
S2140081200D4E0CB9BDE8F08194FAA4F0B0FA80F0D8
S2140081300F2808FA00F2C8BF103824EA0204CABFA3
S21400814005FB006205FB0062B4325768002FE8D0DA
S2140081509168C0B2B847E4E7A033002008B50C48E1
S21400816032F046FC192004F009F928B1192004F071
S21400817013F9192004F0F4F81A2004F0FFF828B1D7
S2140081801A2004F009F91A2004F0EAF8002008BDC5
S2140081903C5304002DE9F0410E461746054618B339
S2140081A00F2923D80378DBB1013BDBB2022B19D8A9
S2140081B0104AD35C6A78D340DB0717D50E4BD3F84A
S2140081C01043ACB932F076FB80463A462846314634
S2140081D002F042FE404632F068FB2046BDE8F081E1
S2140081E07F23E7E70023E5E72224F6E72124F4E7E8
S2140081F00224F2E72C51040000C0035010B50446D8
S21400820010B30378E3B1013BDBB2022B1AD8104A55
S214008210D35C6278D340DB0718D532F04BFB0122E3
S214008220617823788A4030214B4341F2100103F1F4
S214008230A04303F570335A5032F037FB002010BDD0
S2140082407F23E6E70023E4E72220F8E72120F6E78D
S2140082502C51040010B5044610B30378E3B1013B7B
S214008260DBB2022B1AD8104AD35C6278D340DB0705
S21400827018D532F01FFB0122617823788A4030211E
S2140082804B4342F2100103F1A04303F570335A50FA
S21400829032F00BFB002010BD7F23E6E70023E4E767
S2140082A02220F8E72120F6E72C51040038B50D46C9
S2140082B0044618B311B30378E3B1013BDBB2022BDB
S2140082C01AD8104AD35C6278D340DB0718D532F050
S2140082D0F1FA30222378534303F1A04303F57033B9
S2140082E05B696278D34003F001032B7032F0DDFA4D
S2140082F0002038BD7F23E6E70023E4E72220F8E7E6
S2140083002120F6E72C5104002DE9F0410D461646D3
S2140083109846044600284FD000294DD00178002901
S21400832040D04B1EDBB2022B3ED8254AD25C637887
S214008330DA40D20701D4FF2940D1022E01D9042EFB
S2140083403CD132F0B7FA23780746FF2B05D03246E9
S2140083502046296802F0C6FD28602B68013309D143
S2140083602378FF2B06D1174B6078D3F8241429F016
S21400837084F9286029684B1C18D00C23124A03FB8A
S2140083800122069BC2F8048093602378FF2B04D05A
S21400839001230E4A8B40C2F82434384632F085FA60
S2140083A0002007E07F22C2E70022C0E7384632F00E
S2140083B07CFA2D20BDE8F0812220FBE72120F9E79A
S2140083C02C51040000C00350A033002000D00350FE
S2140083D008B502F037FD044B00F05530C3F8200412
S2140083E0BDE80840FFF796BE00E0035008B502F06F
S2140083F029FD044B00F0AA30C3F82004BDE808406D
S214008400FFF788BE00E003502DE9F04F14460546FE
S2140084100E469B46C36B87B001225B6902A9606863
S2140084209847EB6B01225B6903A93046984702A880
S21400843028F047FF074648B10023A37563754FF041
S214008440FF33A360002007B0BDE8F08F03A828F034
S21400845045FF0123A375237E04EBC303DE611F845F
S2140084606368B3420ED1206003A828F059FF4FF08E
S214008470FF332075A360237D043B022B26D8002300
S214008480A375DFE723681A1A53425341A37503A85E
S21400849028F046FF237D834218BFA77503A828F05F
S2140084A021FF074602A828F01DFF874218BF0023B9
S2140084B003A818BFA37528F01DFF074602A828F0DA
S2140084C019FF87421CBF0023A375D4E703A828F032
S2140084D009FF80B1EB6B022230465B6904A998471E
S2140084E004A828F00EFF0346207D032839D8DFE8CD
S2140084F000F03838040903A8F3E7CC22237E04EB07
S214008500C3031A8401F06EFC109B187003A8277E24
S21400851028F0DCFE04EBC70787F82200237E03A8BA
S21400852004EBC303B3F8209093F8227028F0DAFE29
S214008530804603A828F0DEFE8246B8F1000F15D06C
S214008540EB6B022230465B6904A9984704A828F022
S2140085509DFE6075637D6BB90023A3754FF0000820
S21400856038E0227E04EBC2021384CBE703A828F08F
S21400857078FEEEE794F81680B8F1000FEED0B9F169
S214008580000F09D1DFB10123E375637E002B4FD1C5
S214008590012F42D1677614E06B6C06EB0A015A4253
S2140085A086EA010010421CBF0022A2755A1E0A402D
S2140085B09B1A9945D0D8A37D002BE3D1CEE7E37D67
S2140085C043B94FF000084B4652463146284628F03D
S2140085D0C3FBA060A27D12B123694B4423611A49F4
S2140085E0237E097899422AD901332376BBF1000FFE
S2140085F027D032B3E37D23B3B8F1000F21D1032F88
S2140086001FD0A1684B1C1CD0109B22460093284606
S2140086100123FFF7F9FEA07513E095F8343063B92F
S214008620EB6A0133CFD1032FCDD10123A376C8E760
S214008630012FCFD0032FC4D1F7E79846C3E7002316
S214008640A375A07DFFE600BF505104002DE9F04F52
S2140086500E46984600238BB004464FF0FF31104676
S21400866017468DF8133001F0A7FBB6F5801F20D211
S214008670314605AA04F1080028F075FD451C0146A0
S21400868003D1237CBBB92D2010E0384601F094FBC3
S2140086900122394620460DF1130328F0AFFB0028CF
S2140086A0EFD09DF8133088F8003000200BB0BDE8FE
S2140086B0F08FB01CE5D1E56A691C36D12046616AA8
S2140086C028F090FA0546B31C18BF0123DFF8CC90BB
S2140086D00193636A626C0293236805A902FB053A5C
S2140086E0E36B05225B695046984705A828F084FE90
S2140086F028F0A7FE504628F0AFFE4FF0000B82464B
S21400870001464B1C05D0636C81EA0A025B421342A9
S21400871011D02946204628F065FA029BAB422CD0A1
S214008720BBF1000F2CD10546D3E72368ED1A636C26
S214008730B5FBF3F5C7E7484601F03EFB0DF1130322
S21400874049462046019A28F059FB034690B1B21CD0
S21400875003D0D9F80020B2420CD19DF81320039321
S2140087600D4B88F8002049461A68384613F05AFA26
S214008770039B9B46D9F80810C3E7BBF1000F82D0D5
S214008780B6F5801F91D2314698F800307A6804F129
S214008790080001F03FFA88E74C5104007C3B0020BB
S2140087A02DE9F3410446174698460E46184D816A51
S2140087B0E36A8B4201D04B1C02D102B0BDE8F081C7
S2140087C0284601F0F9FA0122294620460DF1070352
S2140087D028F014FB38B14346294620469DF807206A
S2140087E0B8470028E9D0A9684A1C04D16968204621
S2140087F028F085FA0146012EDAD16B6881EA030279
S214008800636C5B421A4218BF4FF0FF31D0E700BFDF
S214008810503B00202DE9F04F4FF0FF334FF6FF722C
S2140088200025044600F10806C0E909238BB0C362A0
S214008830056205633046884628F066FC204628F028
S214008840A1F960BB2046414628F01CFA204628F0D5
S21400885099F960BB5E200BB0BDE8F08F2368E26B31
S214008860606C576900FB0530052205A9B84705A8C6
S21400887028F0C2FD012807460CD12946204628F0DC
S214008880D2F9012F024600D101322946204628F0AF
S21400889098F903E028F0DAFD0028EED10135E36907
S2140088A09D42DBD3204628F06DF90028CAD000256B
S2140088B04FF0FF394FF6FF73CA46A846C4E908537F
S2140088C0E36998450AD3A5EB0905012D2CD84FF688
S2140088D0FF72636A93423CD16720BCE72368E26B71
S2140088E0606C576900FB0830052205A9B84705A843
S2140088F028F082FD834605A828F055FD0746584611
S21400890028F09FFD68B1574538BFC4F82480B945A4
S21400891028BFB946BD4238BF3D46BA46236A013332
S214008920236208F10108CBE74FF6FF730025636268
S214008930E3699D42CBD2676C2068E36B052207FB98
S21400894005005B6905A9984705A828F02CFD0135A8
S214008950EEE7E26B676C2068694607FB0300556923
S2140089600522A847684628F01EFD626A2368606CE8
S2140089704B4D00FB023028F06FFD4FF0FF33A06236
S214008980E3622A466FF00101204605ABFFF75EFE64
S214008990002846D1AD6829462046E56228F0CEF884
S2140089A0206320B92046E16A28F0A9F9E06229464A
S2140089B0204628F0A4F90546A36A9D4233D12046F6
S2140089C028F08FF800278046B946E36999453CD3DE
S2140089D0B84559D92046616A28F004F900260546AC
S2140089E004F1400AB74212D8626C2368694602FB5B
S2140089F00539E36B05225B6948469847684628F0C8
S214008A00D2FC534602464946E06B28F027FD29462D
S214008A10204628F0E7F80136B0450546E2D1642046
S214008A2019E7A56AB7E72946204628F087F8236B9A
S214008A302946034407462363204628F060F9054686
S214008A40002FB9D1C4E90B07B6E7636C2568052289
S214008A5003FB0955E36B05A95B692846984705A8FB
S214008A6028F0CAFC28F0EDFC58B1284628F0F4FCA3
S214008A700146204628F062F8636C143B984208BF13
S214008A80013709F10109A0E7304628F03DFB002335
S214008A9020461946034AFFF783FE0020DBE600BFA8
S214008AA0A83B0020EB0D03002DE9F041036B904638
S214008AB0826B07689A4288BF8363426C436A90B0B1
S214008AC002FB0377C36B0E46052201A95B690446C9
S214008AD03846984701A828F08FFC012801463070D8
S214008AE057D0656CE26B2368606AD2F814C005FB49
S214008AF00030052206A9E04706A828F07DFC0128DC
S214008B004FF0000523D0D4E90A3201219342CDE983
S214008B100B458DF834800E958DF83C102AD11946F9
S214008B20204628F0ECF8236B626C14339B1AE06244
S214008B3023630C9B53B99DF83C303BB1626A616C71
S214008B402368E06B01FB023128F00EFC0C9DE36B02
S214008B5005225B6901A93846984701A828F04CFC15
S214008B6030702846236BA26B9A4288BFA36310B06E
S214008B70BDE8F081237C33B91C490BAA04F1080038
S214008B8001F096F8D5E72046194A0BABFFF708FE2A
S214008B90CFE7237C23BB2246164904F1080001F0E8
S214008BA087F8616A204628F03EF8616A421C204633
S214008BB028F007F8054620B9236B626C1344143B73
S214008BC023632046A16A28F09AF82368A062C01A98
S214008BD0636CB0FBF3F06062204628F0D3F8B6E78B
S214008BE000232046044AFFF7DBFDDAE74D9300003A
S214008BF0C9920000850E0300210E030073B50D46D2
S214008C00D11E4A421C461B7E4A419A4226D12968FA
S214008C102368994222D3636899421FD8114E0DF1FA
S214008C2007033246FFF712FDC0B972686B689A42B6
S214008C3014D19DF80730DA1E53425341227E9342E8
S214008C400CD1636901336361D4E90323934205D2EF
S214008C502968A26842F8231001332361012002B07C
S214008C6070BD00BFA83B00202DE9F04F9B4689B0A1
S214008C709DF848309046514A0193136907465B4574
S214008C800D46C0F09580D94653680093B9F1000FA1
S214008C907BD0FB6B01225B6905A90098984705A865
S214008CA028F01CFB454B1B68984240F0848005A8C2
S214008CB028F020FB0428064615D105A828F021FB3D
S214008CC0009B04461E44019B002B3ED1804512D9D2
S214008CD01C46A8EB00083846009928F010F8A9EBC7
S214008CE004090090D2E7FB6B02225B69009806A994
S214008CF0984706A8E2E7A0EB08045C4528BF5C4658
S214008D00032C4644ABEB040B1DD9FB6B29463046BF
S214008D105B69A208984724F0030304F0030A1E4484
S214008D201D44DDF80480BAF1000FD4D0FB6B01229D
S214008D3006A930465B6998475246284606A912F0AF
S214008D4071FF5544C7E7A246EBE7824600F00303EF
S214008D5002932B1803930644039BA6EB0A00A3EB8F
S214008D600A05029B9A4514D1BAF1000FB3D0FB6BEB
S214008D70012206A95B6998475246284606A913F0C1
S214008D8059F90028DDD04FF03609484609B0BDE84D
S214008D90F08FFB6B012206A95B69984704222846E0
S214008DA006A913F047F90028EDD1AAF1040AD3E783
S214008DB04FF06309E9E74FF06F09E6E7D43B002080
S214008DC02DE9F0410F4616469846044688B060B333
S214008DD090F83450FDB1012127F0C9FE00210E9B0A
S214008DE0CDE90511CDE902379DF83C30CDF8048079
S214008DF08DF81C30237C04968BB90D4901AA04F12A
S214008E00080000F055FFDDE90553E06B002E08BFB3
S214008E101D4628F045F8284608B0BDE8F0812046F3
S214008E20044A01ABFFF7BCFCEDE70546F3E700BFDD
S214008E304F0E0300FD8B00007FB590F8426004469D
S214008E4001920DF10B030A463046114928F030F81E
S214008E50012E0546E36B17D132465B6903A9984796
S214008E609DF80B10039B019A59B19BB243EA02434B
S214008E70012228460393E36B03A99B69984704B035
S214008E8070BD62F30F03F3E701229B6901A9F5E7C2
S214008E90D43B00202DE9F04F99B00E460D920A699A
S214008EA0416C0B931439D31DB3FBF1F3013302EB82
S214008EB0C302036B04469342C0F001820023DFF82E
S214008EC004940893E36A48461946059300F074FF35
S214008ED0D6E9033707930B9B022B4DD1CC2F40F0DE
S214008EE0D7810D9B3BB13146204628F037F8656C9C
S214008EF01490012044E00120079B656C1B681493C6
S214008F0000F0010000280CBF04230823782F0E93DE
S214008F1049D8059A6B1E1340ED1A3B1D9D423CD264
S214008F20002F3DD0082D3ED80023042506934FF091
S214008F30040A336806990B98C9F80030C9F810700F
S214008F4028F0F2F94FEA9A030F93059B89F814006C
S214008F500393002309930C9304930A93616C039B79
S214008F604A1E1A408B1A27B35544AB4223D8236BAC
S214008F705B1A134423632FE1782F656CB9D8F07D14
S214008F800D9B002BBCD0E36B01225B69706816A9B1
S214008F90984716A828F0A6F9B4E700250695C6E770
S214008FA004250697C3E7012300254FF0080A069319
S214008FB0BFE75345DBD3A3EB0A029742039BB846B1
S214008FC028BF90469742534428D90122D9F810105A
S214008FD089F817208F4226D10399C9F80410049205
S214008FE099F817200AB399F818100398CA1C09EBC9
S214008FF0C202506004980131A2F80880907289F885
S2140090001810B8F1000F07D00B9A022A40F08180A2
S214009010099A72B1012209929B46ABE0049A002A93
S21400902018BF0322DBE70222D9E7039AC9F8042017
S214009030E7E70C9A4244032AEED9E26B1846956994
S21400904014A901220993A847099B05460028E1D0E8
S2140090503D2D40F01E8104F1080303932368059A12
S214009060606CA2EB030ABAFBF0FA00FB0A3028F0A9
S214009070F3F9E16A8046204627F041FEA26A824262
S21400908000F00F81626CD9F80830511E0B40216B3E
S2140090902768891A0B442363089BE062DF1BB7FB33
S2140090A0F2F7BA4540F0FA80059BB3EB080A12D0F7
S2140090B0E36B4FEA9A0241469B6998478346E36A08
S2140090C0059A5344E362236B03989B1A4344236335
S2140090D028F01AF8DA462368616CE06B01FB07316A
S2140090E028F02FF9204627F04DFD204627F04AFEAF
S2140090F02063BAF1000F00F0D4803269616CD31D92
S2140091001439B3FBF1F3013302EBC3029042A5D24C
S214009110BFE00D9A002A77D1B8F1030F4FEA980204
S2140091206ED9E16B18468D6907991093A847109B76
S2140091300546C0B918F0030515D0079A28F0030BAA
S21400914002EB0B019B444FF0FF3215A815922A46FE
S214009150109312F067FDE26B5846956915A9012237
S214009160A8470546109B9B46079A42440792002D47
S21400917040F08B80049B16A80193069B009399F8F9
S21400918014204346316800F0CDFDE36B0F9A9B69CF
S214009190039816A99847039A051E089B18BF1346FE
S2140091A00893434652462046039927F0D5FD236B85
S2140091B008F10302A3EB0A0322F003029B1AC9F884
S2140091C008002363002D7FF443AF0C9BA7EB080732
S2140091D043440C93CDF80CB02046039927F08FFD3E
S2140091E000250390002F7FF4B9AE364A31689368A5
S2140091F004F10800E36252680B9B00F00BFD49E0A7
S2140092009B46454607999EE79B4606F1200210922C
S214009210F27D7068A2B1002296F818C00A99D5B2FD
S214009220AC4511D9109D02F1010E35F832508D4231
S21400923028D90E9806EBC2020144D069084403E020
S2140092400E9A0A990A441044E26B15A95569012240
S2140092501193A847159A0A9B1392E26B04339569FB
S2140092605846012213A90A93A847119B054603EB0B
S2140092700802A2EB0B02042A7FF679AF28B90BF19D
S214009280040BC5E77246491BC9E7CDF820B088E74E
S21400929070252F46384619B0BDE8F08F4FF0000A0B
S2140092A019E73269616CD31D1439B3FBF1F301334E
S2140092B002EBC302236B9342BFF404AEE9E71C271C
S2140092C0E8E700BF7C3B0020032A2DE9F341064671
S2140092D00D4617461C4606D1237A012B23D00120C3
S2140092E002B0BDE8F081DFF86080096842460DF103
S2140092F00703FFF7ABF960600028EDD19DF8072063
S214009300237A032AE8D0D8F804106A689142E3D199
S214009310012B2969D4F80CC007D172690CEB010344
S214009320934202D92074207CDAE708316144E16078
S2140093303B46012229463046FFF7ACFD6060002818
S214009340CAD00020CCE700BFA83B00202DE9F3419F
S214009350089C032A1746266806D1237A012B24D0B8
S214009360012002B0BDE8F081DFF89080304642462A
S2140093700DF10703FFF76AF960600028EDD1256854
S214009380D8F80400A96AD5F844C04840CCF10003D8
S2140093901840227AE1D1012A09D1E268D8F81030C3
S2140093A013447269934202D92074207CD9E7286856
S2140093B0EB6A1B1A081AB3FBFCF3B0FBFCF0834203
S2140093C00BD1706CF36A421E1340326B121A1344B0
S2140093D02846336327F093FCE862D8F81020E36849
S2140093E008321344E36001223B4604492068FFF735
S2140093F051FD60600028B0D00020B2E7A83B0020F6
S2140094002DE9F0410025604B0E46D3F80080044657
S2140094101D6018B921252846BDE8F08190F8347003
S21400942007B30A6803689A4240F0A3804A68436814
S2140094309A4240F09E808A6883689A4240F09980FB
S214009440CA68C3689A4240F094800A6943699A429F
S21400945040F08F808A69C36B9A4240F08A804B69DD
S2140094608361D8E768223946856B12F04BFAD6E955
S2140094700212336804F1080023607368A563636012
S214009480336963617369A36127F050FEB36904F121
S2140094904000E3639B68984720B9676C17B1636820
S2140094A0B3FBF7F794F84330E761002BB2D0002304
S2140094B0656C2366002D64D0002F62D02368B3FB52
S2140094C0F5F205FB1233002B55D16668B6FBF5F3B3
S2140094D005FB1363002B4ED1204627F01FFBA36924
S2140094E0043303449E4248D340F634726369CC3B4F
S2140094F0934244D8B5F5805F43D30321204627F036
S21400950036FBD4E90001E36B1B6898470546E36B1E
S2140095100220DB689847CDB941462046FFF77AF926
S2140095206428054604D141462046FFF773F90546F0
S214009530666C5DB9236A2046143E5E4327F0EEFA59
S214009540A369043303449E4238BF5A25002D0CBF3E
S2140095500123002384F8343007D1D4E900010B4AF4
S21400956013680133136027F07BFEE06B27F098FC4E
S21400957051E75D254FE759254DE75A254BE75F250F
S21400958049E75B2547E700BF0C350020083500207B
S2140095902DE9FF410C4616461F46054680B390F857
S2140095A034307BB3B1F5801F2ED2DFF86080012106
S2140095B027F0DDFA2146424628460DF10F03FFF755
S2140095C045F8044670B99DF80F30012B11D1D8F834
S2140095D01030BB4212D10246009031462846FFF7B3
S2140095E043FB0446E86B27F05BFC204604B0BDE86E
S2140095F0F081022B14BF2D246024F3E76324F1E7E7
S2140096002124F2E71124F0E72924EEE7D43B0020DA
S2140096102DE9F04385B00C4617461E460546DDF894
S214009620308098B390F8343093B3B1F5801F31D2C0
S214009630DFF86490012127F09AFA21464A46284628
S2140096400DF10F03FFF702F8044688B99DF80F30B6
S214009650012B14D1D9F8102006EB08039A4213D335
S21400966000904346324639462846FFF7FDFA044640
S214009670E86B27F015FC204605B0BDE8F083022B0A
S21400968014BF2D246024F3E76324F1E72124F2E7D6
S2140096901124F0E72924EEE7D43B002073B50C46EE
S2140096A01646054630B390F834302BB3B1F5801F1C
S2140096B024D2012127F05BFA21462846104A0DF1F4
S2140096C00703FEF7C3FF044680B99DF80730032B57
S2140096D00CD0022B0CD12846094927F03FFC3060FD
S2140096E0E86B27F0DDFB204602B070BD2D24F7E7BF
S2140096F06124F5E72124F6E71124F4E72924F2E7AC
S214009700D43B00202DE9F3411E4600230C461746A5
S2140097100546336050B390F834304BB3B1F5801F34
S21400972028D2DFF85480012127F021FA214642464C
S21400973028460DF10703FEF789FF0446A0B99DF8F9
S2140097400730032B10D0022B03BF01233B600423FA
S214009750D8F8103018BF38603360E86B27F0A0FBED
S214009760204602B0BDE8F0812D24F6E72124F7E775
S2140097701124F5E72924F3E7D43B002073B504460B
S214009780056B27F0CBF9636E03449D422CBF002384
S2140097900123854294BF00252D1A207C84F8503082
S2140097A0656584F85800A8B100230C4E1A46194681
S2140097B02046009627F096FC002305461A461946D2
S2140097C02046009627F097FCE3682844984294BF0A
S2140097D00020C01AE06502B070BD00BFFFFF0F009A
S2140097E02DE9F3471E4643690446B34288461746AA
S2140097F09DF828904ED300258DF80750204627F078
S2140098008DF9D4F830A082450AD2236AB5EB430F0F
S21400981006D2002220460DF10701FFF745F9B8B33E
S2140098209DF80730012B05D1002220460DF10701D7
S214009830FFF73AF9B9F1030F06D03146204627F074
S2140098405DF9256B854227D3144D4FF0FF3128462E
S21400985000F0B2FA4B46294600222046C5E90376B8
S214009860C5F80080FFF716FB236E054663B1204659
S214009870FFF784FF94F8503013B994F858301BB1B2
S214009880236E04F150009847284602B0BDE8F087E2
S2140098900135B3E76225F7E71C25F5E7A83B00206E
S2140098A02DE9FF410F4690461E46054698B390F8B0
S2140098B0343093B3B1F5801F31D21A4C022127F011
