S01B00006275696C642F72656C656173652F7A69676265652E73333714
S214006000081000208D9D0000ADE50000736E0300B3
S214006010736E0300B5E50000BDE50000736E030077
S214006020736E0300736E0300736E0300736E0300DB
S214006030C1E50000F4B40400736E0300736E030041
S214006040736E0300736E0300736E03005D980000AA
S214006050736E0300736E0300736E0300736E0300AB
S214006060736E0300736E0300736E0300736E03009B
S2140060702DEB0000736E0300736E0300736E030057
S214006080736E0300736E0300736E0300736E03007B
S214006090736E0300736E0300736E0300736E03006B
S2140060A0736E030059A1000039A10000736E03004F
S2140060B0736E03009D2A0200736E03000135020012
S2140060C073C703006FC70300DD2C020089C70300F7
S2140060D077C70300D13402007BC7030041350200B6
S2140060E0AD3B0200A9180200AD350200736E030036
S2140060F0736E0300736E0300736E0300736E03000B
S214006100736E0300736E0300736E0300736E0300FA
S214006110736E0300736E0300736E0300736E0300EA
S214006120736E0300736E0300736E0300736E0300DA
S214006130736E0300736E0300736E0300736E0300CA
S21400614082B030BF074BD3F8F030DB0704D500230E
S2140061500193019B052B01DD02B07047019B0133C3
S214006160F6E700BF00ED00E0F0B5114A114C124E04
S21400617000F00105E3695F0713D40DB9334213D16C
S21400618003EA00078F4207D10B4A1A40002A14BFC1
S2140061906FF001000020F0BD013AEBD16FF0020075
S2140061A0F9E74FF0FF30F6E76FF00100F3E700BFC6
S2140061B08096980000000350020001000B4B70B55B
S2140061C0D96911F480310DD101244FF48072084E44
S2140061D0084DF46020462C641A61FFF7C5FF34644E
S2140061E0EC6070BD6FF00100FBE700BF00000350DD
S2140061F000100350002003504FF4003238B50F4B08
S2140062000F4C9A6641F671330122E569E3630D4B44
S2140062100021DA60022360612120236105F48035C5
S214006220FFF7A2FF10B92120FFF79EFF0122064BC1
S214006230DA600DB10023E36338BD00BF0090005064
S21400624000000350001003500020035070B5134C9C
S2140062506061E3695B071ED40E4656F8043B8D1852
S214006260A361AE420BD10423002121202361FFF756
S2140062707BFF58B9BDE870402120FFF775BF0821A5
S2140062800846FFF771FF10B10423236170BD56F86E
S214006290043BA361E5E74FF0FF30F7E7000003504B
S2140062A02DE9F84315464FF40032184B89469A6696
S2140062B041F6713203F51C33DF69DA6301220646C4
S2140062C003F58053DFF84C8007F48037DA6055B961
S2140062D0284601220E4BDA601FB10022A3F50053B8
S2140062E0DA63BDE8F88306F5005404EA0804A41B44
S2140062F0AC4228BF2C46494622463046FFF7A6FF4A
S2140063000028E6D12644A1442D1BE0E7009000506B
S20C0063100020035000E0FFFF2F
S2140063182DE9F04F4FF0FD0BC9B09A460DF11B0959
S2140063289DF8503108AFCDF80C90CDF808B001971D
S214006338059303890446009383790E469046418860
S2140063488288407812F09EF8054650B10090A388DF
S214006358002062883A4912F0D9FB284649B0BDE8C1
S214006368F08F99F8000033F0DAFC38B12846A38895
S2140063786288344912F0CAFB8D25EEE75A4639463C
S21400638899F8000033F073FC8346002851D0529BDE
S2140063981BB1BDF84C3198424BD8002399F80090B1
S2140063A80793A9F14102012A5FFA8BF123D83846F0
S2140063B80139254ADFF898C05FFA81FE734513DB7A
S2140063C8059B04210792C3B907AF18221F489FED03
S2140063D81A7B02FB060420460A460830394684ED36
S2140063E8027B17F015FA11E010F8011F013351402F
S2140063F80CFB01F2E2E7059B33B123464A463846D2
S21400640800960FF067FFA8E70829DED9B8F1000F55
S21400641801D088F80090BAF1000F01D0AAF800B0B1
S214006428529B002B99D05A46184608A917F0F0F93F
S21400643893E7012591E700BF000000000000000078
S2140064487E5E0400B35E0400C59D1C81801000209B
S21400645893010001000000002DE9F04F93B0CDE94C
S2140064680A32DDE91C530E9353EC102BCDE90801D4
S214006478104619468DED060B1E9E16F053FC80B18D
S214006488DDE906014FF0FF32C54B16F073FC40B944
S214006498DDE906014FF0FF326FF4801316F04CFC6E
S2140064A870B1DDE908019DED060B0E9B1E96CDE941
S2140064B81C53DDE90A3213B0BDE8F04F00F088B986
S2140064C80022DDE90601002316F036FC002800F05D
S2140064D83381DDE906A303F1004BCBF30A5016F42B
S2140064E88063A0F2FF3008BF06250F9316F048F920
S2140064F89BA3D3E9002316F0ADF99BA3D3E90023A9
S21400650815F0F2FFCBF31304894644F07F5180461A
S2140065180022A44B504641F4401115F0E3FF94A323
S214006528D3E9002316F096F902460B46404649463C
S21400653815F0DAFF16F028FC044616F021F98EA3AB
S214006548D3E900238046894616F084F90022964B44
S21400655815F0CAFF16F018FC89A3D3E900230746EE
S2140065684946404616F076F980463846894616F07B
S21400657807F985A3D3E9002316F06CF902460B4603
S2140065884046494615F0AEFF02460B46CDE90C23B9
S21400659816F060F9DDE90C23804689461046194650
S2140065A815F0A2FF0022CDE91001804B404649466F
S2140065B816F07AFA00227E4B15F096FF02460B4636
S2140065C84046494616F070FA00227A4B15F08CFFC2
S2140065D802460B464046494616F066FADDE90C23A5
S2140065E88046894600204FF0804115F07BFF024622
S2140065F80B464046494615F077FF02460B46DDE94E
S214006608100116F051FA07F2FF3700226A4B15F010
S2140066186BFF00223B0516F01DF952465B46804686
S214006628894616F0A7FB002840F08980CDE90C893A
S21400663804F16303C62B8CBF0527042731051BD539
S21400664853A3D3E900235046594616F089FB002881
S2140066587FD051A3D3E900235046594616F06CFB69
S214006668002876D00027A542C6BF2C1B04F1FF35AC
S21400667800253C4646F480660E9B9F422CBF4FF092
S2140066880008A3EB070816F0020903D0002F18BF6E
S2140066984FF000083CB1DDE90C235046594616F089
S2140066A803FA82468B46DDE906010022002316F02F
S2140066B843FB10B10BF100439B46DDE9080126F4C5
S2140066C80063CDE90183DDE90A324BEC10AB009597
S2140066D800F07EF802465FB3DDE9091316F0200FD6
S2140066E800F10105089E0CBF65204520B047DDE98E
S2140066F808010523002205930A23002CCDE902325F
S21400670807F1FF374FEAD473B8BF64422A460193AD
S21400671804970A9B009435F070FA0246B9F1000F08
S21400672806D00B9BC41A0B9B1A190E9BA34245D87E
S214006738104613B0BDE8F08FDDE906ABCDE60022C3
S214006748404649461A4B16F0AFF9013CCDE90C0114
S2140067586EE7002D90D00F9B002B8DD0013D8BE768
S214006768FB799F501344D33FB3C8608B288AC63F33
S21400677861436F63A787D23F71A379094F930A4095
S2140067881655B5BBB16B0240EF39FAFE422EE63F0E
S2140067982D431CEBE2361A3F0000000080842E4191
S2140067A8FFFFEF7F0000F83F0000E03F00002C40AE
S2140067B800002440000018400000F03F2020DDE9DB
S2140067C80913089DA8470134ADE700BF0000000084
S2140067D82DE9F04F5BEC10AB97B0CDE90501DDE98C
S2140067E82058CDE90723504652465B465946229F15
S2140067F816F098FA70B90323CDE902870193AA4BDD
S2140068080093DDE90501DDE9072335F028F917B01F
S214006818BDE8F08F4FF0FF326FF4801350465946AC
S21400682816F08AFA28B10423CDE9028701939F4B14
S214006838E6E74FF0FF32504659469D4B16F09AFA57
S21400684868B19C4A07F00403002B08BF03229A4B42
S2140068581CBF13460422CDE902870192D0E75046B2
S2140068688DA3D3E90023594616F084FA38B98CA3C9
S214006878D3E900235046594616F05EFA68B1DDE9BA
S2140068880723DDE905014BEC10ABCDE92187209500
S21400689817B0BDE8F04FFFF7DFBD002200235046D3
S2140068A8594616F049FA002800F091805B46524691
S2140068B80020002115F016FE012382468B46099318
S2140068C817F4806400F08580092D40F28580002446
S2140068D830210EABA5F109020134202C03F8011B68
S2140068E8A5EB040901D09442F6D15946504616F055
S2140068F84BFA724B054603EBC90393ED007B8DED0F
S2140069080A7B15F03DFF02460B465046594615F0E1
S214006918E9FDDDE90A2315F09DFF02460B46CDE9A1
S2140069280C2316F059FA064615F01AFF02460B46CF
S214006938DDE90C0115F0D6FD02460B46CDE90C2321
S21400694800225F4B16F016FA002848D0013630466B
S21400695815F006FF02460B46DDE90A0116F0F6F9C1
S21400696808B100260135B9F1000F45D1284615F0C3
S21400697807FF02460B465046594615F0B3FD00225F
S2140069884F4B16F0D9F910B9E90700D501350A2199
S2140069980EAB1A19202C0AD095FBF1F001FB105506
S2140069A8303502F8015B013405460028F2D107F0BD
S2140069B80302012A55D1B8F1000F52D0099A12B92C
S2140069C817F00C0F01D008F1FF38302240E009908C
S2140069D876E74FF0060988E7A946002485E70022EF
S2140069E8DDE90C01364B16F0A7F90028BBD10EB12D
S2140069F8F007B8D50136B6E70A210EAB1A19202CCF
S214006A080DD0B6FBF1F001FB1063092E03F130033D
S214006A1809F1FF3904F1010402F8013B11D83021CD
S214006A28A1440EAA202CB2D04C4504F101030AD189
S214006A3804F158020DEB02042E2204F8202C1C4602
S214006A48A5E70646DBE7A1541C46EBE71A550134D2
S214006A58444506D2202CF9D1CDE9028701940EAB25
S214006A68CEE6202CF8D0099B3BB12D2204F1580322
S214006A786B4403F8202C0134EEE77A0704D504F1BA
S214006A8858032B226B44F4E73B07E5D504F158037B
S214006A9820226B44EDE700BF0000000065CDCD4125
S214006AA80000000065CDCDC16D7C0400717C04003B
S214006AB8FFFFEF7F647C0400697C0400F0C30400D9
S214006AC80000E03F0000000070B58EB02C220021C8
S214006AD803A816F00DFD64234FF002320893CDE9A3
S214006AE805230B2301218DF834305B4B8DF81010ED
S214006AF81D880D4040F0A980084639F051FB0A224F
S214006B08564B574C1A704FF42873ADF812304FF0A6
S214006B18FF332360534B54491B8820460B82534B44
S214006B28534A1B68CD828B61524B0D621B884B8281
S214006B38514B1B68CB611CF001FE20B14FF41B7152
S214006B484E483AF000FC0521206835F0B4FE20B126
S214006B5840F27D2149483AF0F6FB206815F07EFCA5
S214006B68474B2068196835F020FA0C2539F080FF65
S214006B786843099039F07CFF68430DEB05010790E0
S214006B88206817F09DF920B140F295213B483AF06D
S214006B98DAFB25681FF06EFB00220146284635F012
S214006BA87CFA20B140F2972134483AF0CCFB40F208
S214006BB80353344D344E2B80052396F90000AB70F2
S214006BC87F2801D11DF0A2F83378EB7039F050FF1A
S214006BD800EB80008000A88039F04AFF0023C00040
S214006BE84FF0FF31E880AB604FF0FF3018A3D3E9D1
S214006BF8002339F027FC2549206835F007FA206875
S214006C0802A935F0FFFE20B14FF434711B483AF064
S214006C189AFB042220680DEB020135F09BF9042844
S214006C2804D040F2D72115483AF08DFB01A901207F
S214006C3834F066FD07F0FAFC01201DF0F9FC30F090
S214006C4802FF1DF01FFD1CF0F9FF0EB070BD00BF5F
S214006C580A0020FF42030000C25B00201F630020DA
S214006C68F453002014DD04001C6A00201CDD040018
S214006C78D101040012DD040018DD04009CB30400F2
S214006C8864670020E8530020386D002045020400A1
S214006C980348044B834202D0034B03B1184770479E
S214006CA86C6D00206C6D002000000000064B074944
S214006CB8C91A891048BF0131491003D0044B0BB1DB
S214006CC801481847704700BF6C6D00206C6D0020A7
S214006CD80000000010B5064C237843B9FFF7D8FF2C
S214006CE8044B13B10448AFF300800123237010BD92
S214006CF870160020000000005418050008B5044B64
S214006D081BB104490448AFF30080BDE80840CDE74E
S214006D18000000007416002054180500A3F5803AF9
S214006D28704700BF154B002B08BF114B9D46FFF759
S214006D38F5FF00218B460F461148124A121A16F024
S214006D48D7FB0C4B002B00D098470B4B002B00D0E2
S214006D5898470020002104000D000B4816F00EFF8F
S214006D6816F09EFB200029002FF0C5FD16F0F4FE55
S214006D7800000800000000000000000008100020C6
S214006D88081000208463002085DC010007B5012177
S214006D9820200DF1070201F097F950B101212020BB
S214006DA80DF107028DF8071001F09EF903B05DF8A3
S214006DB804FB9DF807100129F8D00122084815F0B1
S214006DC879FA01210DF1070220208DF8071001F04D
S214006DD88BF92FF012FD4FF4FA6000F0BDFFE5E7DF
S214006DE89017040038B501F007FB012805D001F01C
S214006DF803FB022801D001F025FB064D2B783BB992
S214006E0801F0FAFA0128044602D12FF06BFD2C7027
S214006E1838BD00BFAE5C002010B5044600882FF0D1
S214006E28C0FCA37884F84400834202BF0123E370C1
S214006E382371074B04F11C00C4E9073401F09AF9E2
S214006E48224620880349BDE8104001F0D7B800BFA5
S214006E583B6503000565030070B5C37804460D4618
S214006E681646002B34D1D1B1214815F023FA012358
S214006E78E370E36CA6600BB1E06D9847E368F61A1A
S214006E8863699E4221D2217E1A480131C9B2217611
S214006E9815F010FAA36D13B1217EE06D9847E570E2
S214006EA82FF0BEFC15B3237903BBA268238A801A89
S214006EB883421BD801231048237115F0FBF9236D74
S214006EC8A3B1E06DBDE87040184701232376E6E7D6
S214006ED80029E4D1094815F0EDF9636DE660E57020
S214006EE82571002BDBD0E06D9847D8E770BD00BF52
S214006EF8B8170400C9170400F7170400E4170400BD
S214006F0870B51E46838804460D46C18002810BB1C3
S214006F18868070BD817800882FF02CFB0123E370F3
S214006F28064BA680C4E903340C34204601F022F947
S214006F3829462046BDE870402FF069BC87650300E7
S214006F4810B501790446B1FA81F1008849092FF095
S214006F5888FB21796088B1FA81F149092FF081FB15
S214006F68034B1A68A24204BF00221A6010BD00BF75
S214006F788C16002070B543790446A3B100880E4EDF
S214006F8804F10805336813B10C4B1B786BB12179F3
S214006F982FF067FB64210A4B3460A3602846BDE8DF
S214006FA870402FF034BC4088E9E7064815F082F9AF
S214006FB8054B3221A360F1E78C160020AF5C002059
S214006FC8496F00000D1804007D6F000010B50446D8
S214006FD8E0B10F4815F06EF901236371A37953B930
S214006FE8217920882FF03DFB236B7BB1606B012154
S214006FF8BDE8104018472046FFF7A2FF04F1080036
S2140070082FF00AFC2046FFF7B5FFEDE710BD00BFDE
S2140070184318040010B50446F8B1104815F04AF9AC
S21400702800236371A3796BB921792088B1FA81F1BD
S21400703849092FF016FB236B7BB1606B0021BDE876
S214007048104018472046FFF77BFF04F108002FF092
S214007058E3FB2046FFF78EFFEDE710BD4E18040051
S21400706810B5044668B1074815F024F96379204638
S2140070781BB1BDE81040FFF7CDBFBDE81040FFF7D5
S214007088A5BF10BD5A18040010B5114C21888029D8
S21400709804D9BDE810400F4815F00CB9A21C0E48DC
S2140070A815F008F982210D4815F004F982212246C8
S2140070B8022001F019F8014628B122880848BDE8E0
S2140070C8104015F0F7B80748BDE8104015F0F2B8BC
S2140070D8445500206918040097180400B4180400E2
S2140070E8BF1804000319040070B5134D82212A4600
S2140070F8022000F0E9FF014690B12C460F4834F80C
S214007108022B15F0D7F80E4B03F12C0253F8041B8C
S214007118934244F8041BF9D11B7823702C232B8048
S2140071282988084B80290A46BDE8704028BF802277
S214007138054815F0BFB800BF445500200E190400D6
S21400714890190400465500206C190400034B1B7860
S2140071581BB18B4201D82FF050BB7047DA6C002069
S21400716810B5044601460E4815F0A4F8012C11D1B6
S2140071780C4B0D481A884FF6FF739A421EBF002222
S214007188094B5A742FF053FA01F036FFBDE8104049
S21400719801F0F2BD0448BDE810402FF04ABA00BF1F
S2140071A8BD1904008C6C0020F0660020F8B5144D5C
S2140071B804462F887B1E7F2B05D93946114815F0C3
S2140071C879F80020F8BD3A460021A81C16F0DCFC29
S2140071D8064618B10C4815F06DF8F2E720463A4610
S2140071E8A91C16F015FB2B88E6542B881C4414F8AB
S2140071F8013C3B2B01D00548EDE70120E2E700BF44
S21400720844550020DC190400FF1904002A1A04005B
S21400721870B500241A4D1B4E3378A3421BDC00249D
S214007228194D1A4E3378A3421BDC0024184D194E0C
S2140072383378A3421BDC01F0DFF8012816481CD17E
S2140072482FF0F5F901F0D8FE01F096FDBDE8704084
S214007258124801F0F1B82846FFF7DEFD0134603524
S214007268DAE728462FF0C9F901343435DAE7284634
S2140072782FF0FCF901343835DAE72FF0DAF9E5E7CC
S214007288C0210020B55C0020E0250020B65C002068
S214007298901F0020B45C0020F06600206971000092
S2140072A82DE9F04FA7B005AC06462046FFF77EFF4F
S2140072B818B9002027B0BDE8F08F04A804942FF072
S2140072C8F9F9054604A82FF0F5F90446284616F0FD
S2140072D80BF81F2803D9714814F0ECFFE9E720469D
S2140072E816F002F81F2801D96D48F5E704A84FF0F4
S2140072F800082FF0DFF9C2460446C3464246C14698
S2140073084546CDF80080CDF8048023789BB9019BCC
S214007318052B0ED80B2D0CD8B9F10A0F09D8009BEF
S214007328042B06D8042A04D84BEA0A01032940F29B
S21400733889805C48D0E72046CDE9023215F0D4FFB4
S21400734859490746204616F029FB039A08B3029BBC
S214007358582B13D8412B6FD9A3F1420116296BD8A5
S214007368DFE801F01E5C0E6A6A6A6A2E6A6A2E15E3
S2140073786A6A6A6A44386A6A6A6A5000692B5BD124
S214007388012F06D82146494814F094FF91E7012FAB
S214007398F8D104A802922FF08DF9029A0446B4E7B1
S2140073A86178542904D1032F49D821464048EBE791
S2140073B8032F02D821463F48E6E70135EDB2E8E755
S2140073C8022F02D821463C48DEE701990131CBB2AC
S2140073D80193DEE7032F02D821463848D4E7009BFE
S2140073E801350133DBB2EDB20093D2E7022F02D8A3
S2140073F821463348C8E709F1010901325FFA89F9DD
S214007408D2B2C6E7052F02D821462E48BCE7023579
S2140074180BF1010BEDB25FFA8BFBBAE7042F02D82B
S21400742821462948B0E709F102090AF1010A5FFA7C
S21400743889F95FFA8AFAACE721462448A4E74FF0B0
S2140074480108A6E7009B991859445144C9B20A296D
S21400745801D91F4840E702200321009B00EB830068
S21400746811FB020011FB0B015144B8F1000F00D0CC
S2140074780131202901D917482EE76EB1019B757096
S2140074883370009B86F80290F270337186F805B068
S21400749886F806A086F8078001200BE7581A04002D
S2140074A86F1A0400A91B04007F1A0400831A04003C
S2140074B89E1A0400C11A0400E31A0400021B040002
S2140074C8241B0400451B04006D1B04008E1B0400CF
S2140074D8D81B0400021C04002DE9F04FA9B0FFF7E2
S2140074E803FE05A8FFF7DCFE20B9B74814F0E2FE55
S2140074F800F026FC07AC2046FFF758FE074608B9FA
S214007508B248F3E704A804942FF0D4F8054615F01B
S214007518EBFEAF4CC2B21F2A627001D9AD48E5E750
S2140075282946A01C16F074F904A82FF0C3F80546DF
S21400753815F0DAFEC2B21F2A84F8212001D9A6481F
S214007548D4E7294604F1220016F062F904A82FF0C1
S214007558B1F8322504464FF000082678002E40F091
S2140075689180FFF755FE9D4BDFF8ACA21B789C4F29
S214007578DFF8A8B200939BF800309AF80020397814
S214007588984814F097FE9DF817309DF81850DFF8C5
S21400759880821D449DF8193032461D449DF81A30E5
S2140075A839781D4443469AF80000EDB2B14200F31C
S2140075B8DB82DFF83892012D38BF01254A460023C2
S2140075C84C464FF482714FF6FF7601339D42137096
S2140075D85180968002F10C02F7DC834B83497C4885
S2140075E8A36000F0EDFFE079A36800EB400003EB32
S2140075F8800000F0B3FDE3790133E3717C4B1B8810
S214007608B34203D079497B4801F0DCF80023764E74
S2140076183A789A4200F3D0824FF000084FF00C09EF
S214007628754B9AF800203978424500F3DA8202EB67
S21400763801090C214FF0000801FB09419BF80000E6
S214007648942340456D4A00F3EC829AF800303F7860
S2140076584FF000081F440C234FF07009074403FB43
S2140076680744DFF8BCA15D4B1B78434500F3EE8268
S21400767829465E4800F000FE614814F01BFE29B05B
S214007688BDE8F08F532E0FD163784C2B40F04E8117
S214007698A378502B40F04A8101225A4B1A7004A84E
S2140076A82FF008F8044658E7442E13D16378303B89
S2140076B8092BF4D8601C2FF00DF8534B534A197851
S2140076C8002385B2994202F16002E8DD22F8465CA2
S2140076D80133F7E7422E0BD16378542B54D1A01C04
S2140076E800F0DAFC424B188018462EF0E4FED6E787
S2140076F8582E33D8412ED2D9433E152ECFD801A3C3
S21400770853F826F0DF7A0000A7760000A776000078
S214007718A7760000A7760000A7760000837800000A
S214007728A7760000A77600002D780000777700007F
S214007738A7760000A7760000A7760000A7760000C8
S214007748C179000035790000A7760000A77600000A
S214007758A7760000A7760000377A0000692E9ED12B
S214007768601C2EF0B7FF80B22FF043F897E71C4B4B
S214007778012019780023264A994202F1A8028EDDD4
S21400778802F8A60C0133F7E7601C00F085FC0646F5
S214007798E01C2FF017F80121024630462EF0CEFFE7
S2140077A860211948194C03785943621866524FF4F9
S2140077B8FA6111824FF44871516116495583116573
S2140077C8013303706BE700BF2B1C0400541C040035
S2140077D804660020581A04006F1A0400B05C0020E3
S2140077E8B35C00208B1C040058170020E01600200D
S2140077F88C6C002090160020E41B0020281A00201D
S214007808DB1C0400AF5C0020B55C0020C021002013
S214007818E41C0020A7660300B25C0020B15C0020D0
S214007828D8180020601C00F037FC00224FF03409FE
S2140078388246DFF84C8311462EF080FF98F8000049
S214007848CD4E09FB00F326F803A0F218E37810469D
S214007858693B18BF012393702EF0CFFE0023C7495B
S21400786898F800204B60012302FB09661A4488F842
S21400787800200E60B8460B7411E7601C00F00CFC84
S2140078880022114682462EF059FF3422BC4EDFF8FD
S214007898E892307802FB00F329F803A009EB03010D
S2140078A8E3780846693B18BF01238B702EF0A5FEC7
S2140078B8B44A00231046916B41BB00EB8310342377
S2140078C8327802FB03938363AF4A00231046D2F84C
S2140078D8A41009BBA82202FB03003423327802FB5B
S2140078E80393C0F8A430B8F1000F0BD1A34A43465F
S2140078F8114652F8040BA8B93422307800FB0292DD
S21400790841F82320337801333370C8E60133042B5B
S21400791802F14002CFD1D7E70133042B02F1A802C7
S214007928D5D1E0E70133042BE3D1EBE7601C00F088
S214007938B3FB0646E01C2EF045FF01210246304602
S2140079482EF0FCFE4FF0600C904891490278DFF864
S21400795838E20CFB02FC21F80C604FF4487601EB89
S2140079680C031E825E618B4E5D839E65E4788A4EAC
S214007978642C04BF01249C70A82433785C430EEB67
S214007988040C0EF804304FF40074ACF802400324DC
S2140079988CF804408CF8064002EB420401EB4411D4
S2140079A8CCF8081032210133DBB201328CF80530EE
S2140079B88CF8A0100270A7E7601C00F06DFB002290
S2140079C84FF0380B8246DFF8E09111462EF0B6FEEF
S2140079D899F80030714E0BFB03F326F803A04FF01E
S2140079E8010AF21882F804A0E37873B1E01C00F0EC
S2140079F853FB0022044611462EF0A0FE99F80030EC
S214007A080BFB03635C8083F806A065485D4A037831
S214007A189901535499F8001002EB8314C1EBC10284
S214007A2806EBC2064A1C666389F80020C8E6601C96
S214007A3800F032FB8146E01C00F02EFB0646601D77
S214007A482EF0C0FE04460246012148462EF076FE79
S214007A582246304601212EF071FE60204FF4487C05
S214007A68DFF828E14A4A9EF8003000FB03F422F8C3
S214007A780490DFF820911119A1F810C0C1F814C0BD
S214007A884D83C1F85890591CC9B248431418A4F835
S214007A9810C0C4F814C06583C4F8589094241652CD
S214007AA8404E981C8EF800003078DFF804C1444336
S214007AB803EB430301EB41010CEB040E02EB43130B
S214007AC802EB41120CF80400CEF80430CEF8082079
S214007AD801303070E3E5601C00F0DEFA8146E01CF9
S214007AE800F0DAFA00220646114648462EF026FE30
S214007AF800223824114630462EF020FE2A48274A0F
S214007B0803784FF0000E04FB03FC22F80C904FF0AD
S214007B18010902EB0C0181F806E081F8049003EBFA
S214007B280901C9B24C4302EB040C16539C1C0470A2
S214007B3870241E4E8CF806E030788CF80490444387
S214007B48DFF870C0C3EBC303C1EBC1010CEB040E36
S214007B5802EBC30302EBC1020CF80400CEF80430B3
S214007B68CEF808204844B4E75C790136844284BFDE
S214007B781A715A71A83319E5E0250020F06600202E
S214007B88B65C0020E41B0020E41C0020B55C002046
S214007B98C021002055710000B35C0020901F002013
S214007BA8B25C0020B15C0020B45C0020B05C002011
S214007BB8281A0020D81800203BB119F8052C02EB2B
S214007BC8420206EB8206C9F8086049464046039317
S214007BD801F0EAFB039B08F1A808013309F10C0938
S214007BE816E518EB01010AD04A1E09FB0242D279B3
S214007BF802EB420206EB820609FB01429660184633
S214007C0809FB0141039301F087F939781A48414482
S214007C1809FB014101F096F8039B08F1010840337F
S214007C28FFE418EB090F18BF11F8050C03911EBFE7
S214007C3800EB400006EB80068E6003FB082000F091
S214007C4897FF039908F101080C31F7E418EB070FC2
S214007C5818BF14F8053C21461CBF03EB430306EB8C
S214007C68830609FB08A018BFA66000F051FE08F1BD
S214007C7801080C34F7E400BF841F002007B5012173
S214007C8821200DF1070200F01FFA18B99DF8072009
S214007C98024B1A7003B05DF804FB00BFDA6C0020D4
S214007CA807B5064B8DF80700187001210DF107027D
S214007CB8212000F019FA03B05DF804FBDA6C002006
S214007CC807B5022101200DF1060200F0FDF938B9CA
S214007CD8044814F0EFFABDF8060003B05DF804FB9C
S214007CE80020FAE7F81C040007B50221ADF80600E4
S214007CF80DF10602012000F0F7F9014610B103481D
S214007D0814F0D8FA03B05DF804FB00BF191D040090
S214007D1810B5FFF7D5FF04460146074814F0CAFA1F
S214007D280121064814F0C6FA24B9BDE8104001201F
S214007D38FFF7DABF10BD00BF491D04005B1D040035
S214007D4808B5044814F0B6FA00F0DEF92EF055FD32
S214007D582EF050FD711D040038B50446084D094B39
S214007D6828462B6000F006FA002C18BF2146284645
S214007D78BDE8384008BF4FF496712EF048BD00BFE6
S214007D88E4260020FB6603002DE9F043394D93B046
S214007D9808AC0746894690460FCD0FC40FCD00267F
S214007DA80FC495E803000323012584E80300324C3A
S214007DB83248CDE90366CDE905668DF80E3007969C
S214007DC8029539F05AFA2E4839F057FA32462D49B4
S214007DD820468DF8176004F08BFE334632462A4953
S214007DE88DF81900009020468DF82390CDF82C8049
S214007DF88DF8216004F096FE0A9020468DF80970EA
S214007E0804F0F6FD204608AA05A904F0B1FE02AA69
S214007E18204603A92FF095FD4FF400721B4B5A62BB
S214007E28194BE560626A920510D46BB94FF400727C
S214007E38164B11485A6204F0DBFD114839F020FA57
S214007E48002013B0BDE8F083013BEBE7002BEDD034
S214007E58094908A82FF0A8FD4FF400720B4B0648F6
S214007E685A6204F0C5FD064839F00AFABDF8200043
S214007E78E7E700BFA4B404000040005AF4B60400C4
S214007E88F0B6040080841E0040420F000060005ACE
S214007E980122034B1870034B1980034B1A70704766
S214007EA8B85C0020946C0020B75C0020F8B5454B01
S214007EB81B780BB90020F8BD434B1B78012B03D168
S214007EC8BDE8F8402EF018BC404B1C884FF6FF73F0
S214007ED89C42EFD03E4839F0D0F90023260AE4B297
S214007EE81A462146304604F043FD012E354604F076
S214007EF8010335D015D9B51E012DDBD8002B0BBFD5
S214007F084FF480754FF080754FF470614FF07061D4
S214007F180BBF01274FF480370F204FF470202D4BEE
S214007F2811E0002B0BBF4FF480754FF080754FF4AF
S214007F3870614FF070610BBF01274FF480370F2038
S214007F484FF47020244B1A6802401CD0BA421AD04C
S214007F581A680A4032D11A6822EA01022A4316E051
S214007F68002B0BBF4FF480754FF080754FF470618F
S214007F784FF070610BBF01274FF480370F204FF486
S214007F887020164BDFE71A6822EA00023A431A60A6
S214007F982EF0B2FB054600288CD0083644EA0610B8
S214007FA82A460321C0B2FFF7EFFE40F6FF73684388
S214007FB800F2FF70B0FBF3F080B27CE795427FF4E6
S214007FC879AFC8E7B75C0020B85C0020946C002046
S214007FD8F4B6040028C3035020C3035024C3035038
S214007FE810B5044C237823B9034839F046F9012321
S214007FF8237010BDBA5C0020F4B604002DE9F043E7
S2140080081F4C85B0074688469146FFF7E9FF237858
S2140080181BB901F053FF012323707BBAADF80C306F
S21400802830220023174E02FB03F4315DA51901BB6D
S214008038012333554FF0FF3304F110001249304442
S214008048AB606F80C5F80480C5F80C9009F02EFA6E
S21400805804F10801042231440C4B009503A802F0F1
S21400806803F8A96802460A4814F024F905B0BDE8E2
S214008078F0830133102BD6D1064814F01BF9F5E728
S214008088B95C00200C27002025670300376703002B
S2140080987E1D0400AC1D040080B10278A2F14103E5
S2140080A8032B0BD840783038C0B2082806D8054BC2
S2140080B8134413F8413C40EA032070474FF6FF701C
S2140080C8704700BFCCB4040008B50B4642B1014661
S2140080D80448006803F010F9BDE808402EF083BB9A
S2140080E8022008BD5C67002008B50B4642B1014671
S2140080F80448006803F088FABDE808402EF073BB11
S214008108022008BD5C670020F0B50026124F8DB02F
S214008118FF2300930A223346386802A92FF0B6F9DF
S214008128C0B102AB1D4603EB800404E055F8043BDF
S214008138B34228BF5E1CAC423868E9D9296803F008
S214008148E9FB0028F2D02D28F0D00DB0BDE8F040AD
S2140081582EF049BB0DB0F0BD5C67002028B1034B7C
S2140081680360034B436000238360704719000003D5
S21400817804670020FF2307B50021044A009308304F
S21400818809F018F903B05DF804FB00BF1168030096
S2140081980B460449024608680349097808B12EF0D8
S2140081A846BB7047182A0020BC5C0020F7B50C4672
S2140081B818B12921194839F0C6F8246823685E7969
S2140081C85F8830463946FFF7E3FFF0B18568E5B1CA
S2140081D8A089227D3946904291BF0020801AA36864
S2140081E880B294BF03469B18E27C00903046A847AE
S2140081F80138032803D8DFE800F0080F0B0D002429
S214008208204632F0F6FA204600E0812003B0F0BDA2
S2140082188024F5E79324F3E78724F1E7D41D0400C8
S214008228F8B515460D4A044610680D4A0B461178EF
S21400823850B122462EF0FBFA034628B100210C273F
S214008248C678B14201DB0020F8BD07FB01F45A6886
S2140082581019125BAA42F7D00131F2E7182A00205B
S214008268BC5C002008B5034B1B6803B19847002088
S21400827808BD00BF142A00202DE9F74F04460D4616
S2140082880026454B454F1860454B197033010021B1
S214008298F85C01360FF0E4FE0C2EF7D10C2D28BF43
S2140082A80C254FF0000901953C4EDFF800A13D4D26
S2140082B8DFF8FC80019B4B4502DC03B0BDE8F08F7D
S2140082C823784FF0000B337063887380A388B380DD
S2140082D8A379C6F80880B371E379C8F8005088F81F
S2140082E804304FF00003A768A8F80630E3795B452A
S2140082F80ADC012116F8100B0FF0B2FE08F1080888
S21400830809F101090C34D5E74FF0000338886B8172
S2140083182880FB784FF0000C2B81BA78C5F804A0AB
S214008328002A00920CBF802240222A7379680AF13C
S2140083380C02634513DC03EB43030AEB830ABB68B2
S21400834843B1009A4FF6FF71B2FA82F2164B520901
S21400835832F0DFF914350BF1010B0C37C6E7B1F82C
S21400836800E00CF1010C22F80CEC91F802E00C325B
S21400837802F816EC91F804E00C3102F815EC11F846
S21400838809ECBEF1010F14BF4FF0100E4FF0110E9E
S21400839802F814ECCDE700BF182A00201041002090
S2140083A8BC5C00201C300020B58100001C2A002080
S2140083B89C320020014B1860704700BF102A00202E
S2140083C870B5128805460E46FFF72AFF044670B1B8
S2140083D802790499806815F0DDF8064B1B680BB91E
S2140083E8002070BD3146284622889847F8E7862040
S2140083F8F7E700BF102A002008B50EF0CDFE0228C9
S21400840806D0012806D0044B18784000C0B208BD34
S2140084180120FCE70220FAE7BB5C0020054B10B5FC
S2140084281C682CB1FFF7E8FF2346BDE81040184744
S21400843810BD00BF0C2A0020014B1860704700BF13
S2140084480C2A0020034B1A781AB901221A700AF06F
S214008458A9BE7047BB5C00200022024B1A70FFF7CB
S214008468DDBF00BFBB5C002037B50446002832D00D
S2140084780EF092FE022830D1608932F037FDE0799E
S214008488237A003818BF0120012B637A08BF40F012
S21400849808000BB140F0100063890BB140F00400EF
S2140084A8257CA188A2790DB1E36873B90C4B10F04E
S2140084B8B3F92178084610F02BFA32F023F8002892
S2140084C814BF0320002003B030BDCDE90035054BAE
S2140084D810F0A2F9EDE70220F5E70120F3E700BF68
S2140084E8976B04009A3A040008B50CF0B9FF0146E9
S2140084F830B1044813F0DEFEBDE808400DF054BB6A
S21400850808BD00BF461E0400034B044A5B7C0121DD
S21400851803201370FFF7E8BDF0660020BD5C00205E
S21400852838B50446FFF7F0FFB4F57F4F17D12EF0A5
S214008538CEF8054660B91449144813F0BBFEFEF79A
S214008548D3FD22462946BDE8384001202EF091B9D1
S214008558FEF79AFDBDE838400020FFF7FDBB4FF652
S21400856801739C4204D1BDE8384009482EF047B84C
S2140085784FF602739C4205D1064B1878BDE8384082
S214008588FFF78EBB38BD00BF731E0400FD1A04003B
S214008598F0660020DA6C002010B5074C0121224650
S2140085A80320FFF791FD28B92378044A003B18BF3B
S2140085B80123537410BD00BFBD5C0020F066002088
S2140085C8F8B5564B32251A884FF6FF739A4218BFED
S2140085D803234FF00802524C18BF2370514B1A70F1
S2140085E830225D70DD7036259A705A7134221D71FE
S2140085F831259A711A724FF40012DD714A4D4264A1
S214008608C5644A4D01220565494D86188565494D5C
S214008618C667C565484D494E4566494D80F84820A9
S2140086288566484D80F854200567474D80F86020D9
S2140086384567202580F8785080F8845000F1210599
S214008648C0F88850414D80F86C20C0F88C50C0F8AF
S214008658806080F89020C0F89440C0F8B8303C4B52
S2140086683C4CC0F8BC300223C0F898403A4C80F81E
S214008678C030C0F8A4400F24384B80F8A840C0F893
S214008688C430374B374CC0F8C8308223C0F8AC40EB
S214008698354C80F8CC30C0F8B0400924334B344D04
S2140086A8C0F8D030334B80F8B440C0F8D4302C7CB7
S2140086B8314B80F89C20C0F8A00080F8D820C0F87D
S2140086C8DC3044B12D4B80F8E420C0F8E03005F1EA
S2140086D81103C0F8E8304FF0000CCA798E6802EB38
S2140086E842039F00443006EB830326F807C0586011
S2140086F801200D349870DC701318CB71FFF7BEFAA2
S214008708FFF74AFFFFF778FE012806D12B7C23B136
S214008718BDE8F84016482DF072BFF8BD8C6C0020F6
S214008728DB6C0020BE5C0020E5B4040001002000DD
S214008738E4B4040002002000E3B40400050042008C
S21400874803002000E2B404000400420007003000E2
S214008758FDFF21001200100100404200E0B40400B2
S21400876800FF4401D0B4040006004200445500202F
S214008778F066002002FF2001DA6C002001FF1001DD
S21400878813B504460D482DF0A1FE6422C0F30F432E
S214008798637083B2B3FBF2F3A07823702022012122
S2140087A82EF067F8A078212201212EF062F80449FD
S2140087B8201D02B0BDE810402EF029B88C6C0020B1
S2140087C8E09304000B7870B583704CF61E030380A4
S2140087D84FF02013C362012380F8303080F83C3015
S2140087E8C3180364124B044643640223114A80F8F4
S2140087F84830114B8263C3644063CA798D6802EBC4
S214008808420305EB830004F12C0646600B4E45F840
S214008818236000238360531CCB71094B201DC4E9D9
S2140088280134FFF7A7FC2046BDE87040FFF7A8BF55
S214008838FDFF210021002000E6B40400010001032A
S21400884889870000437B044A0121137000781130A1
S214008858C0B2FFF749BC00BFC85C002038B5044664
S2140088680078054D11302A460121C0B2FFF72CFCCE
S21400887808B92B78637338BDC85C00200A2805D869
S214008888034B53F8200008B12EF0BAB8704700BF63
S214008898FC320020012908B506D0022907D049B9BC
S2140088A82EF0A5F8002008BD2EF0A4F8FAE72EF062
S2140088B8A4F8F7E7024813F0FDFC0120F3E700BF31
S2140088C8A01E040010B40A2811461A46BDF8043043
S2140088D807D8064C54F8200018B15DF8044BFFF78B
S2140088E8D9BF01205DF8044B704700BFFC3200205A
S2140088F8002310B5044683810364A0F8443048304A
S214008908FFF738FC014BC4E9123410BDEF690300C9
S21400891838B50B7804460A2B0D4632D8194A4370E8
S21400892842F82300FFF7E4FF2046FFF797FF4FF4CF
S214008938401323610123144A2375A261134A84F85D
S2140089482030E261124A84F82C306262114A84F8B8
S2140089583830A26204F10C0222630F4A04F10D03B8
S2140089686263E363EA79A86802EB420300EB8301DB
S21400897810344C60094C40F82340094B8B60531C5C
S214008988EB7138BDFC320020C75C002008002000D0
S214008998DC6C002000FF300001FF1001020101041A
S2140089A8CD88000010B47024427B0D48013A012996
S2140089B804FB020006D0022908D059B95DF8044B1A
S2140089C82EF015B85DF8044B2EF014B85DF8044B7D
S2140089D82EF013B803485DF8044B13F06BBC00BFC9
S2140089E8D8180020BC1E0400B0F85C302DE9F04111
S2140089F88B4204460E4638D0437B077C8BB31C4A12
S214008A0812789A422DD370251A4A013B05FB032398
S214008A1890F80F801B7B42462EF000F8B8450546B6
S214008A2801D1FF281FD13A463146204694F89030A7
S214008A382DF0F4FF2F460546552212216078A4F83B
S214008A485C602DF016FFFF2F03D039462046FFF74F
S214008A58A9FFFF2D09D029462046BDE8F0412EF093
S214008A681DB8FF25DFE70746E6E7BDE8F08100BF4B
S214008A78B05C0020D818002041688268C978D2788F
S214008A8849B112B10321FFF7AFBF837B002B0CBFA0
S214008A9801210221F7E72AB1837B002B0CBF0221B4
S214008AA80121F0E7014813F005BC00BFCD1E040005
S214008AB8037BD3B14368DA7812B18268D278A2B958
S214008AC81B7933B1837B002B0CBF04210521FFF7EC
S214008AD88BBF83681B792BB1837B002B0CBF0521CA
S214008AE80421F4E7014813F0E5BB7047FF1E0400B5
S214008AF8084A437B05211370837B5370C37B9370AE
S214008B08037CD370037B137100780E30C0B2FFF776
S214008B18EBBA00BFC95C002038B5044600780C4D97
S214008B280E302A460521C0B2FFF7CEFA20B1BDE8BE
S214008B383840084813F0BEBB2B7863736B78A37372
S214008B48AB78E373EB7823742B79237338BD00BFB7
S214008B58C95C00203B1F04000A2805D8034B53F8BD
S214008B68200008B12DF0E4BF704700BF283300206E
S214008B78F8B50B7804460A2B0D4600F28280414A67
S214008B88437042F82300404E2DF0F0FFFFF7C4FF75
S214008B986268A3683D483E49D6641165D465506549
S214008BA8C3E91410DE64DC654FF09873022663612F
S214008BB8012304F10C01E16136491032216204F107
S214008BC80D01A16234492376E16204F10E01616366
S214008BD8324984F82430A16304F10F012164304936
S214008BE884F83030616404F11001E1642D4984F89A
S214008BF83C3084F84830216584F85460A265E879EA
S214008C08A96800EB400201EB820704F1140CC7F8D0
S214008C1804C04FF4817C244F41F82270C218D2B2A7
S214008C2802EB420241F822C001EB820700227A607A
S214008C381E4A84F8703022661D4A84F88830A26678
S214008C481C4A1D4BE2661D4AC4F88C3062671C4AF3
S214008C588319A26704F15C02C4F88020DBB2194AC3
S214008C6803EB4303C4F8842084F8646084F87C60CB
S214008C7801EB830260345460134A033041F8232022
S214008C88E871F8BD28330020818A0000FB6A0300DB
S214008C98B98A00000100200102001001030030011B
S214008CA8040030010500210101FC01064A002100EC
S214008CB8E8B4040051001000EAB40400EBB4040061
S214008CC8550021006F0018001200010470B50D460B
S214008CD80646144613460A460146164813F0EAFAAC
S214008CE825B92046BDE87040FFF71ABC072D05D108
S214008CF821463046BDE8704000F016BB4FF60143EB
S214008D089D4205D121463046BDE87040FFF724BF96
S214008D18062D05D121463046BDE8704000F0B2B8B1
S214008D28B5F5817F05D121463046BDE87040FFF78E
S214008D38A5BD70BD6A1F04000148FFF73BBB00BF16
S214008D48D58C00004FF4C01330B5036001230371BF
S214008D58074B8C688360CA7902EB420304EB8305F1
S214008D686860044844F82300531CCB7130BD00BF2C
S214008D78ECB404000400010138B50024044D55F88D
S214008D88040B08B12DF002FF01340B2CF7D138BDC7
S214008D9854330020042908B50AD172B16BB1137890
S214008DA81BB92DF01EFF002008BD2DF010FFFAE7B6
S214008DB8034813F07FFA0120F6E70320F4E700BF24
S214008DC89D1F040010B40A2811461A46BDF8043040
S214008DD807D8064C54F8200018B15DF8044BFFF786
S214008DE8D9BF01205DF8044B704700BF54330020FC
S214008DF80229024608B50ED004D839B910462DF017
S214008E08F0FE06E04029F9D0412907D110462DF09A
S214008E18DEFE002008BD2DF0EEFEFAE7024813F04D
S214008E2849FA0120F6E700BFBD1F040010B40A285F
S214008E3811461A46BDF8043007D8064C54F82000E8
S214008E4818B15DF8044BFFF7D3BF01205DF8044B5B
S214008E58704700BF54330020426B094B52791A7092
S214008E6882785A70C2789A70826B12B190F83C2059
S214008E78DA70007804210930014AC0B2FFF734B925
S214008E88CE5C00200A2805D8034B53F8200008B10A
S214008E982DF0CDBE704700BF5433002038B50446C9
S214008EA80078084D09302A460421C0B2FFF70CF9AD
S214008EB830B96B78A370AB78E370EB7884F83C3005
S214008EC838BD00BFCE5C002038B504460078114D8A
S214008ED809302A460421C0B2FFF7F6F8C8B9A378C5
S214008EE82A78022B0CD004D863B920462DF079FED8
S214008EF801E0FF2B0AD02046BDE838402DF046BEDC
S214008F08002AF2D120462DF062FEF4E7002AF9D1B5
S214008F18EBE738BDCE5C0020F8B50B7804460A2B84
S214008F280D464ED8274A42F823004370FFF7B6FF8F
S214008F38636B254A5C631A632046FFF7C5FF204625
S214008F482DF024FE4FF4801363600123626BA66B3A
S214008F580532E2601D4A23722261A21C2375A261B3
S214008F6866B11B4A84F82030E261E21C6262194A44
S214008F7884F82C3004F13C03A26223630627EA79BE
S214008F88A96802EB4203002E21F8237001EB830048
S214008F980CBF02230423C370012383700E4B0434D2
S214008FA88360531C4460DBB20C4C03EB430341F86C
S214008FB8234001EB830000234360094B02328360A1
S214008FC8EA71F8BD54330020136C030003403001E7
S214008FD801FF300102FF1001358E00000800010075
S214008FE8CD8D000028B1034B1B78834234BF002088
S214008FF801207047B25C002070B500250A4C0B4E65
S2140090083378AB4200DC70BDD4F8A42042B1237993
S2140090181BB16079FFF7E6FF10B910462DF0E0FAAD
S2140090280135A834ECE700BFE41C0020B35C002040
S21400903808B5427901461046FFF7D4FFA8B1CB78A9
S2140090480A48013A042B00EB82100ED8012B08D8E8
S2140090581BB9BDE808402DF0BABDBDE808402DF0A4
S214009068C0BDBDE808402DF0C6BD08BDE41B002005
S21400907808B5427901461046FFF7B4FFA8B1CB7889
S2140090880A48013A042B00EB82100ED8012B08D8A8
S2140090981BB9BDE808402DF0A4BDBDE808402DF07A
S2140090A896BDBDE808402DF0A6BD08BDE41B00200F
S2140090B810B586B00446FFF79FF9012830D1E2784C
S2140090C8042A2DD8DFE802F013323403030061794E
S2140090D80846FFF787FF58B31648032A00EB8110A7
S2140090E850F80C3C58791DD1003818BF0120637819
S2140090F84FF480728DF804304FF48273ADF8063062
S2140091080623ADF8083001238DF80B3000238DF8C0
S2140091180A0001A8CDE903238DF81430FFF7A4F957
S21400912806B010BDB0FA80F04009E0E70020DEE7A0
S2140091380220DCE7E41B002010B586B00446FFF7E3
S2140091485BF9012830D1E278042A2DD8DFE802F04E
S21400915813133203030061790846FFF743FF48B349
S2140091681548032A00EB811050F80C3C5B791DD19A
S2140091781A1E18BF012263788DF80A208DF804306D
S2140091884FF48273ADF806300623ADF80830012395
S2140091984FF480728DF80B30002301A8CDE9032325
S2140091A88DF81430FFF760F906B010BDB3FA83F2F5
S2140091B85209E0E70222DEE7E41B002010B586B07D
S2140091C80446FFF719F9012812D16378094A8DF881
S2140091D804304FF48273ADF806304FF48073CDE94F
S2140091E80223002301A804938DF81430FFF73CF9F6
S2140091F806B010BD0800070110B586B00446FFF794
S214009208FBF8012820D16278104B8DF804204FF423
S214009218827294F8A01094F8A10059701870ADF8EE
S214009228062004934FF480720223094901A88DF89A
S2140092381430CDE90212FFF717F994F8A130013B74
S21400924818BF012384F8A13006B010BDD25C0020F8
S2140092580800050110B58378044603B30379022B8A
S2140092680AD142791046FFF7BDFE28B10C48013AEC
S21400927800EB82102DF0BFFCA379022B02D120460A
S214009288FFF716FF2046FFF7B7FF02236078A4F81B
S2140092986C305522BDE8104012212DF0EABA10BDF8
S2140092A8E41B00204388094A0821138083885380DA
S2140092B883681B8A938090F8A03093718379D37162
S2140092C800780430C0B2FEF70FBF00BFC6550020B6
S2140092D838B50D4604460178114812F0EBFF4FF6F4
S2140092E802739D420ED10F4B1B782BB96371204633
S2140092F8BDE83840FFF7D6BF62790AB19342F6D286
S2140093080123F3E7B5F57F4FF1D120462DF00CFD8C
S214009318A378022B0CBF01220022A3689A70E6E706
S214009328D91F0400B25C00200A2805D8034B53F85E
S214009338200008B1FFF7CCBF704700BF803300207D
S21400934838B504460078144D04302A460821C0B2C1
S214009358FEF7BAFE20B1BDE83840104812F0AABFA2
S2140093682B8863806B88E978A380AA88A3681A820A
S214009378AB7984F8A030EB79A371094B1B780BB94D
S214009388637138BD09B19942FBD9064812F092FFBD
S21400939823780133F4E700BFC6550020F31F040006
S2140093A8B25C00201C200400F8B50B7804460A2B93
S2140093B80D4600F28D80474A022642F82300437085
S2140093C8FFF7BEFFA268444BD465D364434BA11C89
S2140093D85365434B103213644FF44013E360012384
S2140093E86161E1623F49226521633F4A211DA1630D
S2140093F83E483F49626504F1A002A061E163E26568
S214009408E01C611D3B4A206261643B483B4922667A
S214009418A21D2374237784F8283084F8343084F81F
S2140094284030A16484F84C6084F8583084F864307E
S2140094386062A266E879AA6800EB400102EB810741
S21400944804F10C0CC7F804C04FF0060C2C4F42F879
S2140094582170C118C9B201EB410142F821C002EBE4
S214009468810700217960274F84F880302767264FC8
S21400947884F89830A767254F254BE767254F84F86B
S214009488746084F88C60C4F89C3004F16C06831C05
S214009498C4F88470C4F890601F4F204EDBB203EB0C
S2140094A84303C4F89460C4F8887002EB83067034EB
S2140094B8746008261A4C42F82340C31CDBB203EB40
S2140094C8430302EB8304043042F823606160E871CA
S2140094D8F8BD00BF80330020876C0300D16C030002
S2140094E85D92000001FF300104FF200110003001EA
S2140094F802FF200105FF300100FF300103FF2101B4
S214009508070001084A002100EEB4040051001000CC
S214009518F0B40400F1B40400550021006F001800F0
S2140095281200010400239B6AB3F5C04F03D21968E2
S214009538064A914203D000230370836070470122D5
S21400954802709A689B694260F7E700BF07B0CD5E75
S214009558024B034A1A602EF037BE00BF00000020F8
S21400956802020FF073B5534B04461A781AB102225A
S2140095781A7002B070BDCDE900220028F9D0012685
S2140095881E7037F059FE4C4D4C4B186017F0E0F83B
S2140095982B785BB902F062FA40B949480823494A71
S2140095A84949006801F0A8FE00B92E70474B5A6E6C
S2140095B862619B6E464AA3614FF40043936603F1CB
S2140095C888435968E16143499960196E2160596E6C
S2140095D86160D3F87011A160196CE160596C216163
S2140095E83D49086C1864496C5964012151664FF46A
S2140095F8005191661A6E560436D53849CA68D4079B
S214009608FCD45B6E5A0434D5354AD36B13F0430F3B
S214009618FBD1344B1A68531C31D04FF400139340D7
S214009628314A13660423304C684623664FF4806339
S2140096382366102323664FF4005323664FF08043B7
S21400964823664FF4804301A963662DF085FB009BD3
S2140096582366019B63662B78002B8AD0194B1A6801
S21400966822665B68636684E72049CA68D007FCD42C
S214009678C7E71F4AD36B13F0430FFBD1C9E71D4B4F
S2140096881B78002BCED14FF48072114B5A661A4ABB
S21400969852681AB94FF40011134A11664FF4007253
S2140096A85A66164B5B68002BBCD14FF480020E4BF3
S2140096B81A66B7E7D55C0020D65C0020CC330020BD
S2140096C85C670020D033002000710800008000503E
S2140096D80090005055CEAC0000C000540000044076
S2140096E80000024C28670020009000440000045048
S2140096F80000025CD45C002000C005500000065044
S21400970870B52C4D04462E78012E02D001232B70FE
S21400971870BD0028FCD02DF044FB01300BD02DF096
S21400972840FB40F20113984205D0234B234A5E665D
S214009738D368DE07FCD4224B22491B6E13F0040FB5
S2140097484FF4005314BF1C4A1F4A9366CA6B12F0A4
S2140097584302FBD121681A4B196661685966A168ED
S214009768C3F87011E168196421695964E169C8078A
S21400977848BF9A60154B1A6801320DD1144A127800
S21400978852B914494968C90748BF1A60124A52684C
S214009798D20744BF01221A606269104B5A66A26952
S2140097A89A6616F0DDFF0E4B186837F040FD00236A
S2140097B8ADE700BFD55C00200090004000000440E4
S2140097C8008000440000024C0090005028670020EB
S2140097D8D45C002000C005500000065000800050F1
S2140097E8CC33002070B50024A36AB3F5C04F23D24B
S2140097F81A68134B9A421FD1124E337813F0FD05A0
S21400980818D14FF480341048FFF7ACFE032004F05C
S214009818B9FC0E4B0320DC6004F098FC0C4B1C6172
S214009828AB6ADB69984704460748FFF769FF0CB937
S21400983801233370204670BD4FF48174FAE700BFE9
S21400984807B0CD5ED45C0020AC33002000A00044F6
S2140098580090004413B5204B1B7803B9FEE700239D
S2140098681E4CCDE900336A4608231D49206801F0DE
S21400987843FDF8B91B4AD2F84031D2F840211F2BD5
S2140098884FF0010311D9203A9340019A1A430192E6
S21400989808236A461249206801F0B6FE124B134A9E
S2140098A81A602EF091FC02B010BD9340009A1A433D
S2140098B80092EDE72D28F1D10A4AD2F84031D2F8C5
S2140098C840211F2B4FF0010385BF203A9340934059
S2140098D8019398BF0093DBE7D55C00205C67002007
S2140098E80071080000800044000000200B020FF002
S2140098F838B50025AB6A0446B3F5C04F10D21B6BCB
S214009908B3F5C04F0CD20748FFF72CFEAB6A2046CB
S2140099181B6B5B689847BDE838400248FFF7F0BE07
S21400992838BD00BFD833002013B50024A36A0190C1
S214009938B3F5C04F13D21B6BB3F5C04F0FD209480F
S214009948FFF710FEA36A01211B6B01A89B699847C5
S21400995804460448FFF7D4FE204602B010BD4FF474
S2140099688174F9E7D833002070B50026B36A044638
S214009978B3F5C04F0D4612D21B6BB3F5C04F0ED2CF
S2140099880848FFF7EFFDB36A20461B6B29469B691C
S214009998984704460348FFF7B3FE204670BD4FF4C9
S2140099A88174FAE7D833002070B50026B36A0446F7
S2140099B8B3F5C04F0D4612D21B6BB3F5C04F0ED28F
S2140099C80848FFF7CFFDB36A20461B6B2946DB69BC
S2140099D8984704460348FFF793FE204670BD4FF4A9
S2140099E88174FAE7D8330020F8B50027BB6A044626
S2140099F8B3F5C04F0D46164611D21B6B7BB109480E
S214009A08FFF7B0FDBB6A20461B6B324629465B6AE9
S214009A18984704460348FFF773FE2046F8BD4FF400
S214009A280174FAE7D833002070B50026B36A0446F6
S214009A38B3F5C04F0D4612D21B6BB3F5C04F0ED20E
S214009A480848FFF78FFDB36A20461B6B29469B6ABA
S214009A58984704460348FFF753FE204670BD4FF468
S214009A680174FAE7D8330020F0B50027BB6A04462D
S214009A78B3F5C04F0D461646ADF5177D20D21B6BC5
S214009A88B3F5C04F1CD21048FFF76CFDBB6A2046E2
S214009A981B6B40F251225B6A01A99847044630B115
S214009AA80948FFF72DFE20460DF5177DF0BD836AA1
S214009AB832461B6B2946DB6A01A898470446EFE73F
S214009AC84FF40174EFE700BFD833002010B5002428
S214009AD8A36AB3F5C04F10D21B6BB3F5C04F0CD2B8
S214009AE80748FFF73FFDA36A1B6B1B6B98470446A6
S214009AF80348FFF705FE204610BD0124FBE700BF1C
S214009B08D8330020F0B58FB0044601A80E46154697
S214009B18FFF7EEFE9DF80C30012B12D1B5F5002F9D
S214009B2827D8B4F5002F24D86319B3F5002F20D80A
S214009B3821462A46304613F06BFE002420460FB016
S214009B48F0BD0027BB6AB3F5C04F15D21B6BB3F543
S214009B58C04F11D20A48FFF705FDBB6A2A461B6BA1
S214009B68314620465B6B984704460548FFF7C8FD14
S214009B78E4E740F20244E1E740F20114DEE700BF02
S214009B88D8330020F0B58FB0044601A80E46154617
S214009B98FFF7AEFE9DF80C30012B1FD1B5F5002F50
S214009BA806D8B4F5002F03D86319B3F5002F13D9D8
S214009BB840F2024420460FB0F0BDE258013225D1EB
S214009BC804339D42F9D82A463146204600F082F8EA
S214009BD80028EDD00024EDE70023F2E70027BB6A53
S214009BE8B3F5C04F15D21B6BB3F5C04F11D20A4858
S214009BF8FFF7B8FCBB6A2A461B6B314620469B6BB0
S214009C08984704460448FFF77BFDD3E740F2034431
S214009C18D0E740F20114CDE7D833002070B58EB0F7
S214009C28044601A80D46FFF763FE9DF80C30012B8D
S214009C3822D144EA0503C3F30C03002B33D1B5F550
S214009C48002F04D940F2024420460EB070BDB4F589
S214009C58002FF7D82544B5F5002FF3D8204604F58D
S214009C68005400F029F8AC4202D00028F6D1E9E703
S214009C780028E7D00024E7E70026B36AB3F5C04F0C
S214009C8814D21B6BB3F5C04F10D20A48FFF76AFC14
S214009C98B36A29461B6B2046DB6B98470446054883
S214009CA8FFF72EFDD0E740F20444CDE740F201145A
S214009CB8CAE700BFD83300204FF4003208B5044B7B
S214009CC89A6637F059FDB0FA80F0400908BD00BF23
S214009CD800900050134610B562B103439B070BD1A2
S214009CE84FF40034054B9C6637F042FDB0FA80F01E
S214009CF8400910BD0120FCE70020FAE7009000505C
S214009D08BFF34F8F0549064BCA6802F4E062134357
S214009D18CB60BFF34F8F00BFFDE700BF00ED00E04C
S214009D280400FA0570B5D0B1C9B10E4E431E01390C
S214009D3813F8014F2046325D02F00302012A11F89B
S214009D48012F08BF04F12000B55C05F00305012DBE
S214009D5808BF2032801A01D1002CE9D170BD01203D
S214009D68FCE700BF11DC04000348044A0449121A41
S214009D7892102DF07BB800BF406100001863000009
S214009D882064002008B5154B83F30A8800F030F8E5
S214009D98FFF7EAFF124B13498B4212D30020124BEF
S214009DA812498B4218D3FCF7BDFF186850F82240BA
S214009DB8586840F82240013298688242F5D30C333E
S214009DC8EAE70022F8E71C6844F8220001325C68DB
S214009DD8A242F8D30833E4E70022F8E70800002098
S214009DE85C1805006818050068180500681805005E
S214009DF84FF40041134B144A70B59A60D3F8882084
S214009E08124D42F47002C3F88820114A05F5005432
S214009E1891664FF0FF3222664FF6DF7262660222C4
S214009E28C3F8D020BFF34F8FBFF36F8F4FF4403681
S214009E38032004F0A7F90320E66004F087F92E61F2
S214009E4870BD00BF00ED00E0006000000080004428
S214009E5800900050054B1860054B1B6F03F0070376
S214009E68032B01D135F08EBA704700BF3867002043
S214009E78008000502DE9F04104464FF001080C25FB
S214009E880D4E0CB9BDE8F08194FAA4F0B0FA80F053
S214009E980F2808FA00F2C8BF103824EA0204CABF1E
S214009EA805FB006205FB0062B4325768002FE8D055
S214009EB89168C0B2B847E4E7F833002008B50C4804
S214009EC837F0DBF9192004F04FF928B1192004F00F
S214009ED859F9192004F03AF91A2004F045F928B17E
S214009EE81A2004F04FF91A2004F030F9002008BDB3
S214009EF8F4B604002DE9F0410E461746054618B399
S214009F080F2923D80378DBB1013BDBB2022B19D823
S214009F18104AD35C6A78D340DB0717D50E4BD3F8C4
S214009F281043ACB937F088F980463A462846314699
S214009F3803F064F8404637F07AF92046BDE8F08129
S214009F487F23E7E70023E5E72224F6E72124F4E762
S214009F580224F2E744B5040000C0035010B50446D6
S214009F6810B30378E3B1013BDBB2022B1AD8104AD0
S214009F78D35C6278D340DB0718D537F05DF9012249
S214009F88617823788A4030214B4341F2100103F16F
S214009F98A04303F570335A5037F049F9002010BD36
S214009FA87F23E6E70023E4E72220F8E72120F6E708
S214009FB844B5040010B5044610B30378E3B1013B7A
S214009FC8DBB2022B1AD8104AD35C6278D340DB0780
S214009FD818D537F031F90122617823788A40302184
S214009FE84B4342F2100103F1A04303F570335A5075
S214009FF837F01DF9002010BD7F23E6E70023E4E7CD
S21400A0082220F8E72120F6E744B5040038B50D46C7
S21400A018044618B311B30378E3B1013BDBB2022B55
S21400A0281AD8104AD35C6278D340DB0718D537F0C5
S21400A03803F930222378534303F1A04303F5703322
S21400A0485B696278D34003F001032B7037F0EFF8B2
S21400A058002038BD7F23E6E70023E4E72220F8E760
S21400A0682120F6E744B504002DE9F0410D461646D2
S21400A0789846044600284FD000294DD0017800297C
S21400A08840D04B1EDBB2022B3ED8254AD25C637802
S21400A098DA40D20701D4FF2940D1022E01D9042E76
S21400A0A83CD137F0C9F823780746FF2B05D032464F
S21400A0B82046296802F0E8FF28602B68013309D19A
S21400A0C82378FF2B06D1174B6078D3F824142DF08D
S21400A0D89EFC286029684B1C18D00C23124A03FBE8
S21400A0E80122069BC2F8048093602378FF2B04D0D5
S21400A0F801230E4A8B40C2F82434384637F097F8C6
S21400A108002007E07F22C2E70022C0E7384637F083
S21400A1188EF82D20BDE8F0812220FBE72120F9E704
S21400A12844B5040000C00350F833002000D00350A4
S21400A13808B502F059FF054B00F0553020F05020C6
S21400A148C3F82004BDE80840FFF794BE00E00350BB
S21400A15808B502F049FF054B00F0AA3020F0A02011
S21400A168C3F82004BDE80840FFF784BE00E00350AB
S21400A1782DE9F04F144605460E469B46C36B87B03E
S21400A18801225B6902A960689847EB6B01225B694C
S21400A19803A93046984702A82DF067FA074648B143
S21400A1A80023A37563754FF0FF33A360002007B044
S21400A1B8BDE8F08F03A82DF065FA0123A375237E6A
S21400A1C804EBC303DE611F846368B3420ED12060CC
S21400A1D803A82DF079FA4FF0FF332075A360237D8E
S21400A1E8043B022B26D80023A375DFE723681A1A38
S21400A1F853425341A37503A82DF066FA237D834284
S21400A20818BFA77503A82DF041FA074602A82DF037
S21400A2183DFA874218BF002303A818BFA3752DF080
S21400A2283DFA074602A82DF039FA87421CBF0023DC
S21400A238A375D4E703A82DF029FA80B1EB6B0222A8
S21400A24830465B6904A9984704A82DF02EFA034601
S21400A258207D032839D8DFE800F03838040903A839
S21400A268F3E7CC22237E04EBC3031A8401F06EFCCA
S21400A278109B187003A8277E2DF0FCF904EBC7077F
S21400A28887F82200237E03A804EBC303B3F82090C4
S21400A29893F822702DF0FAF9804603A82DF0FEF9FF
S21400A2A88246B8F1000F15D0EB6B022230465B6988
S21400A2B804A9984704A82DF0BDF96075637D6BB9AD
S21400A2C80023A3754FF0000838E0227E04EBC20294
S21400A2D81384CBE703A82DF098F9EEE794F81680D8
S21400A2E8B8F1000FEED0B9F1000F09D1DFB10123A4
S21400A2F8E375637E002B4FD1012F42D1677614E0B9
S21400A3086B6C06EB0A015A4286EA010010421CBF33
S21400A3180022A2755A1E0A409B1A9945D0D8A37DDA
S21400A328002BE3D1CEE7E37D43B94FF000084B4658
S21400A3385246314628462CF0E3FEA060A27D12B1B4
S21400A34823694B4423611A49237E097899422AD9FE
S21400A35801332376BBF1000F27D032B3E37D23B356
S21400A368B8F1000F21D1032F1FD0A1684B1C1CD0B9
S21400A378109B2246009328460123FFF7F9FEA07596
S21400A38813E095F8343063B9EB6A0133CFD1032F65
S21400A398CDD10123A376C8E7012FCFD0032FC4D190
S21400A3A8F7E79846C3E70023A375A07DFFE600BF3E
S21400A3B868B504002DE9F04F0E46984600238BB08A
S21400A3C804464FF0FF31104617468DF8133001F05B
S21400A3D8A7FBB6F5801F20D2314605AA04F108006F
S21400A3E82DF095F8451C014603D1237CBBB92D20DA
S21400A3F810E0384601F094FB0122394620460DF15C
S21400A40813032CF0CFFE0028EFD09DF8133088F801
S21400A418003000200BB0BDE8F08FB01CE5D1E56A2F
S21400A428691C36D12046616A2CF0B0FD0546B31C7F
S21400A43818BF0123DFF8CC900193636A626C02931D
S21400A448236805A902FB053AE36B05225B695046BB
S21400A458984705A82DF0A4F92DF0C7F950462DF019
S21400A468CFF94FF0000B824601464B1C05D0636CB3
S21400A47881EA0A025B42134211D0294620462CF094
S21400A48885FD029BAB422CD0BBF1000F2CD10546B4
S21400A498D3E72368ED1A636CB5FBF3F5C7E74846C0
S21400A4A801F03EFB0DF1130349462046019A2CF0B5
S21400A4B879FE034690B1B21C03D0D9F80020B24208
S21400A4C80CD19DF8132003930D4B88F800204946BD
S21400A4D81A68384613F09CF9039B9B46D9F808106F
S21400A4E8C3E7BBF1000F82D0B6F5801F91D2314684
S21400A4F898F800307A6804F1080001F03FFA88E717
S21400A50864B50400D43B00202DE9F3410446174601
S21400A51898460E46184D816AE36A8B4201D04B1C5A
S21400A52802D102B0BDE8F081284601F0F9FA01220E
S21400A538294620460DF107032CF034FE38B1434671
S21400A548294620469DF80720B8470028E9D0A9687C
S21400A5584A1C04D1696820462CF0A5FD0146012E48
S21400A568DAD16B6881EA0302636C5B421A4218BF51
S21400A5784FF0FF31D0E700BFA83B00202DE9F04F91
S21400A5884FF0FF334FF6FF720025044600F1080629
S21400A598C0E909238BB0C362056205633046884666
S21400A5A82CF086FF20462CF0C1FC60BB20464146B6
S21400A5B82CF03CFD20462CF0B9FC60BB5E200BB0AE
S21400A5C8BDE8F08F2368E26B606C576900FB0530C6
S21400A5D8052205A9B84705A82DF0E2F80128074680
S21400A5E80CD1294620462CF0F2FC012F024600D159
S21400A5F80132294620462CF0B8FC03E02DF0FAF884
S21400A6080028EED10135E3699D42DBD320462CF0C5
S21400A6188DFC0028CAD000254FF0FF394FF6FF738F
S21400A628CA46A846C4E90853E36998450AD3A5EB81
S21400A6380905012D2CD84FF6FF72636A93423CD168
S21400A6486720BCE72368E26B606C576900FB08303C
S21400A658052205A9B84705A82DF0A2F8834605A83F
S21400A6682DF075F8074658462DF0BFF868B15745DF
S21400A67838BFC4F82480B94528BFB946BD4238BF9C
S21400A6883D46BA46236A0133236208F10108CBE740
S21400A6984FF6FF7300256362E3699D42CBD2676C71
S21400A6A82068E36B052207FB05005B6905A9984748
S21400A6B805A82DF04CF80135EEE7E26B676C2068CC
S21400A6C8694607FB030055690522A84768462DF02A
S21400A6D83EF8626A2368606C4B4D00FB02302DF032
S21400A6E88FF84FF0FF33A062E3622A466FF001014D
S21400A6F8204605ABFFF75EFE002846D1AD68294622
S21400A7082046E5622CF0EEFB206320B92046E16A7D
S21400A7182CF0C9FCE062294620462CF0C4FC05460D
S21400A728A36A9D4233D120462CF0AFFB0027804613
S21400A738B946E36999453CD3B84559D92046616A74
S21400A7482CF024FC0026054604F1400AB74212D82D
S21400A758626C2368694602FB0539E36B05225B6970
S21400A7684846984768462CF0F2FF53460246494644
S21400A778E06B2DF047F8294620462CF007FC0136FA
S21400A788B0450546E2D1642019E7A56AB7E7294629
S21400A79820462CF0A7FB236B294603440746236371
S21400A7A820462CF080FC0546002FB9D1C4E90B07DB
S21400A7B8B6E7636C2568052203FB0955E36B05A914
S21400A7C85B692846984705A82CF0EAFF2DF00DF897
S21400A7D858B128462DF014F8014620462CF082FB86
S21400A7E8636C143B984208BF013709F10109A0E7DA
S21400A7F830462CF05DFE002320461946034AFFF734
S21400A80883FE0020DBE600BF003C00209B710300AF
S21400A8182DE9F041036B9046826B07689A4288BF21
S21400A8288363426C436A90B002FB0377C36B0E46A1
S21400A838052201A95B6904463846984701A82CF00A
S21400A848AFFF01280146307057D0656CE26B23686D
S21400A858606AD2F814C005FB0030052206A9E04756
S21400A86806A82CF09DFF01284FF0000523D0D4E958
S21400A8780A3201219342CDE90B458DF834800E95B6
S21400A8888DF83C102AD1194620462CF00CFC236B78
S21400A898626C14339B1AE06223630C9B53B99DF8D1
S21400A8A83C303BB1626A616C2368E06B01FB0231A5
S21400A8B82CF02EFF0C9DE36B05225B6901A9384638
S21400A8C8984701A82CF06CFF30702846236BA26BC3
S21400A8D89A4288BFA36310B0BDE8F081237C33B9E1
S21400A8E81C490BAA04F1080001F096F8D5E72046A3
S21400A8F8194A0BABFFF708FECFE7237C23BB22469B
S21400A908164904F1080001F087F8616A20462CF021
S21400A9185EFB616A421C20462CF027FB054620B9E0
S21400A928236B626C1344143B23632046A16A2CF005
S21400A938BAFB2368A062C01A636CB0FBF3F06062CF
S21400A94820462CF0F3FBB6E700232046044AFFF720
S21400A958DBFDDAE7BDB0000039B000003572030051
S21400A968D171030073B50D46D11E4A421C461B7EA4
S21400A9784A419A4226D129682368994222D36368B5
S21400A98899421FD8114E0DF107033246FFF712FD04
S21400A998C0B972686B689A4214D19DF80730DA1EFF
S21400A9A853425341227E93420CD16369013363615B
S21400A9B8D4E90323934205D22968A26842F82310F3
S21400A9C801332361012002B070BD00BF003C0020A7
S21400A9D82DE9F04F9B4689B09DF848309046514A7D
S21400A9E80193136907465B450D46C0F09580D94626
S21400A9F853680093B9F1000F7BD0FB6B01225B69AB
S21400AA0805A90098984705A82CF03CFE454B1B68FE
S21400AA18984240F0848005A82CF040FE042806469C
S21400AA2815D105A82CF041FE009B04461E44019B48
S21400AA38002B3ED1804512D91C46A8EB00083846A4
S21400AA4800992CF030FBA9EB04090090D2E7FB6BC9
S21400AA5802225B69009806A9984706A8E2E7A0EBD9
S21400AA6808045C4528BF5C46032C4644ABEB040B45
S21400AA781DD9FB6B294630465B69A208984724F027
S21400AA88030304F0030A1E441D44DDF80480BAF1EB
S21400AA98000FD4D0FB6B012206A930465B699847A5
S21400AAA85246284606A912F0B3FE5544C7E7A24602
S21400AAB8EBE7824600F0030302932B180393064441
S21400AAC8039BA6EB0A00A3EB0A05029B9A4514D142
S21400AAD8BAF1000FB3D0FB6B012206A95B69984751
S21400AAE85246284606A913F09BF80028DDD04FF0FA
S21400AAF83609484609B0BDE8F08FFB6B012206A967
S21400AB085B6998470422284606A913F089F80028A6
S21400AB18EDD1AAF1040AD3E74FF06309E9E74FF04D
S21400AB286F09E6E72C3C00202DE9F0410F46164653
S21400AB389846044688B060B390F83450FDB10121B9
S21400AB482CF0E9F900210E9BCDE90511CDE9023775
S21400AB589DF83C30CDF804808DF81C30237C049694
S21400AB688BB90D4901AA04F1080000F055FFDDE98C
S21400AB780553E06B002E08BF1D462CF065FB2846E3
S21400AB8808B0BDE8F0812046044A01ABFFF7BCFCDC
S21400AB98EDE70546F3E700BFFF7103006DA9000067
S21400ABA87FB590F84260044601920DF10B030A4601
S21400ABB8304611492CF050FB012E0546E36B17D1A1
S21400ABC832465B6903A998479DF80B10039B019AC8
S21400ABD859B19BB243EA0243012228460393E36B2A
S21400ABE803A99B69984704B070BD62F30F03F3E7A7
S21400ABF801229B6901A9F5E72C3C00202DE9F04FBE
S21400AC0899B00E460D920A69416C0B931439D31D00
S21400AC18B3FBF1F3013302EBC302036B0446934222
S21400AC28C0F001820023DFF804940893E36A4846DC
S21400AC381946059300F074FFD6E9033707930B9B74
S21400AC48022B4DD1CC2F40F0D7810D9B3BB131461E
S21400AC5820462CF057FB656C1490012044E0012038
S21400AC68079B656C1B68149300F0010000280CBF56
S21400AC7804230823782F0E9349D8059A6B1E134091
S21400AC88ED1A3B1D9D423CD2002F3DD0082D3ED8E4
S21400AC980023042506934FF0040A336806990B9898
S21400ACA8C9F80030C9F810702CF012FD4FEA9A0364
S21400ACB80F93059B89F814000393002309930C93BC
S21400ACC804930A93616C039B4A1E1A408B1A27B397
S21400ACD85544AB4223D8236B5B1A134423632FE1F6
S21400ACE8782F656CB9D8F07D0D9B002BBCD0E36B34
S21400ACF801225B69706816A9984716A82CF0C6FC4E
S21400AD08B4E700250695C6E704250697C3E701239A
S21400AD1800254FF0080A0693BFE75345DBD3A3EB9D
S21400AD280A029742039BB84628BF90469742534468
S21400AD3828D90122D9F8101089F817208F4226D171
S21400AD480399C9F80410049299F817200AB399F8D9
S21400AD5818100398CA1C09EBC20250600498013107
S21400AD68A2F80880907289F81810B8F1000F07D07A
S21400AD780B9A022A40F08180099A72B10122099240
S21400AD889B46ABE0049A002A18BF0322DBE70222A0
S21400AD98D9E7039AC9F80420E7E70C9A4244032A3D
S21400ADA8EED9E26B1846956914A901220993A847BB
S21400ADB8099B05460028E1D03D2D40F01E8104F190
S21400ADC8080303932368059A606CA2EB030ABAFB90
S21400ADD8F0FA00FB0A302CF013FDE16A80462046A4
S21400ADE82CF061F9A26A824200F00F81626CD9F8F1
S21400ADF80830511E0B40216B2768891A0B442363C1
S21400AE08089BE062DF1BB7FBF2F7BA4540F0FA8012
S21400AE18059BB3EB080A12D0E36B4FEA9A02414649
S21400AE289B6998478346E36A059A5344E362236B13
S21400AE3803989B1A434423632CF03AFBDA462368AC
S21400AE48616CE06B01FB07312CF04FFC20462CF0C0
S21400AE586DF820462CF06AF92063BAF1000F00F06E
S21400AE68D4803269616CD31D1439B3FBF1F3013316
S21400AE7802EBC3029042A5D2BFE00D9A002A77D112
S21400AE88B8F1030F4FEA98026ED9E16B18468D6940
S21400AE9807991093A847109B0546C0B918F00305F4
S21400AEA815D0079A28F0030B02EB0B019B444FF0D2
S21400AEB8FF3215A815922A46109312F0A9FCE26BE9
S21400AEC85846956915A90122A8470546109B9B4632
S21400AED8079A42440792002D40F08B80049B16A8E0
S21400AEE80193069B009399F814204346316800F0B6
S21400AEF8CDFDE36B0F9A9B69039816A99847039AAA
S21400AF08051E089B18BF134608934346524620461C
S21400AF1803992CF0F5F8236B08F10302A3EB0A0358
S21400AF2822F003029B1AC9F808002363002D7FF459
S21400AF3843AF0C9BA7EB080743440C93CDF80CB023
S21400AF48204603992CF0AFF800250390002F7FF4D5
S21400AF58B9AE364A3168936804F10800E36252686D
S21400AF680B9B00F00BFD49E09B46454607999EE77C
S21400AF789B4606F120021092F27D7068A2B100226C
S21400AF8896F818C00A99D5B2AC4511D9109D02F1A9
S21400AF98010E35F832508D4228D90E9806EBC202BB
S21400AFA80144D069084403E00E9A0A990A441044FA
S21400AFB8E26B15A9556901221193A847159A0A9BB1
S21400AFC81392E26B043395695846012213A90A9333
S21400AFD8A847119B054603EB0802A2EB0B02042ABE
S21400AFE87FF679AF28B90BF1040BC5E77246491B03
S21400AFF8C9E7CDF820B088E770252F46384619B03F
S21400B008BDE8F08F4FF0000A19E73269616CD31D6E
S21400B0181439B3FBF1F3013302EBC302236B9342FB
S21400B028BFF404AEE9E71C27E8E700BFD43B0020DE
S21400B038032A2DE9F34106460D4617461C4606D157
S21400B048237A012B23D0012002B0BDE8F081DFF877
S21400B0586080096842460DF10703FFF7ABF96060A8
S21400B0680028EDD19DF80720237A032AE8D0D8F8DF
S21400B07804106A689142E3D1012B2969D4F80CC000
S21400B08807D172690CEB0103934202D92074207C25
S21400B098DAE708316144E1603B460122294630463A
S21400B0A8FFF7ACFD60600028CAD00020CCE700BFE0
S21400B0B8003C00202DE9F341089C032A1746266821
S21400B0C806D1237A012B24D0012002B0BDE8F081F6
S21400B0D8DFF89080304642460DF10703FFF76AF91D
S21400B0E860600028EDD12568D8F80400A96AD5F86C
S21400B0F844C04840CCF100031840227AE1D1012A26
S21400B10809D1E268D8F8103013447269934202D91C
S21400B1182074207CD9E72868EB6A1B1A081AB3FB48
S21400B128FCF3B0FBFCF083420BD1706CF36A421E52
S21400B1381340326B121A1344284633632BF0B3FFBE
S21400B148E862D8F81020E36808321344E360012266
S21400B1583B4604492068FFF751FD60600028B0D0E0
S21400B1680020B2E7003C00202DE9F0410025604BA6
S21400B1780E46D3F8008004461D6018B921252846D7
S21400B188BDE8F08190F8347007B30A6803689A42FD
S21400B19840F0A3804A6843689A4240F09E808A68D6
S21400B1A883689A4240F09980CA68C3689A4240F019
S21400B1B894800A6943699A4240F08F808A69C36B13
S21400B1C89A4240F08A804B698361D8E768223946FC
S21400B1D8856B12F08DF9D6E90212336804F108007F
S21400B1E823607368A5636360336963617369A361E9
S21400B1F82CF070F9B36904F14000E3639B68984744
S21400B20820B9676C17B16368B3FBF7F794F8433057
S21400B218E761002BB2D00023656C2366002D64D04E
S21400B228002F62D02368B3FBF5F205FB1233002B20
S21400B23855D16668B6FBF5F305FB1363002B4ED1B4
S21400B24820462BF03FFEA369043303449E4248D3AE
S21400B25840F634726369CC3B934244D8B5F5805FB8
S21400B26843D3032120462BF056FED4E90001E36BB6
S21400B2781B6898470546E36B0220DB689847CDB9FC
S21400B28841462046FFF77AF96428054604D1414628
S21400B2982046FFF773F90546666C5DB9236A2046B3
S21400B2A8143E5E432BF00EFEA369043303449E420D
S21400B2B838BF5A25002D0CBF0123002384F83430EC
S21400B2C807D1D4E900010B4A1368013313602CF048
S21400B2D89BF9E06B2BF0B8FF51E75D254FE7592542
S21400B2E84DE75A254BE75F2549E75B2547E700BF4B
S21400B2F864350020603500202DE9FF410C461646CF
S21400B3081F46054680B390F834307BB3B1F5801FEE
S21400B3182ED2DFF8608001212BF0FDFD2146424643
S21400B32828460DF10F03FFF745F8044670B99DF857
S21400B3380F30012B11D1D8F81030BB4212D102467B
S21400B348009031462846FFF743FB0446E86B2BF08F
S21400B3587BFF204604B0BDE8F081022B14BF2D24E5
S21400B3686024F3E76324F1E72124F2E71124F0E7E9
S21400B3782924EEE72C3C00202DE9F04385B00C4646
S21400B38817461E460546DDF8308098B390F83430E8
S21400B39893B3B1F5801F31D2DFF8649001212BF00A
S21400B3A8BAFD21464A4628460DF10F03FFF702F874
S21400B3B8044688B99DF80F30012B14D1D9F810200F
S21400B3C806EB08039A4213D30090434632463946A2
S21400B3D82846FFF7FDFA0446E86B2BF035FF2046B3
S21400B3E805B0BDE8F083022B14BF2D246024F3E7D4
S21400B3F86324F1E72124F2E71124F0E72924EEE795
S21400B4082C3C002073B50C461646054630B390F81B
S21400B41834302BB3B1F5801F24D201212BF07BFDED
S21400B42821462846104A0DF10703FEF7C3FF0446D7
S21400B43880B99DF80730032B0CD0022B0CD1284678
S21400B44809492BF05FFF3060E86B2BF0FDFE2046C5
S21400B45802B070BD2D24F7E76124F5E72124F6E74E
S21400B4681124F4E72924F2E72C3C00202DE9F341C7
S21400B4781E4600230C4617460546336050B390F820
S21400B48834304BB3B1F5801F28D2DFF85480012141
S21400B4982BF041FD2146424628460DF10703FEF7EC
S21400B4A889FF0446A0B99DF80730032B10D0022B5D
S21400B4B803BF01233B600423D8F8103018BF386058
S21400B4C83360E86B2BF0C0FE204602B0BDE8F08182
S21400B4D82D24F6E72124F7E71124F5E72924F3E7D6
S21400B4E82C3C002073B50446056B2BF0EBFC636E12
S21400B4F803449D422CBF00230123854294BF0025A8
S21400B5082D1A207C84F85030656584F85800A8B158
S21400B51800230C4E1A461946204600962BF0B6FF16
S21400B528002305461A461946204600962BF0B7FF14
S21400B538E3682844984294BF0020C01AE06502B029
S21400B54870BD00BFFFFF0F002DE9F3471E46436995
S21400B5580446B342884617469DF828904ED30025E1
S21400B5688DF8075020462BF0ADFCD4F830A0824565
S21400B5780AD2236AB5EB430F06D2002220460DF105
S21400B5880701FFF745F9B8B39DF80730012B05D139
S21400B598002220460DF10701FFF73AF9B9F1030F2B
S21400B5A806D0314620462BF07DFC256B854227D3F6
S21400B5B8144D4FF0FF31284600F0B2FA4B462946A4
S21400B5C800222046C5E90376C5F80080FFF716FB7B
S21400B5D8236E054663B12046FFF784FF94F8503083
S21400B5E813B994F858301BB1236E04F150009847ED
S21400B5F8284602B0BDE8F0870135B3E76225F7E7CD
S21400B6081C25F5E7003C00202DE9FF410F46904633
S21400B6181E46054698B390F8343093B3B1F5801FAC
S21400B62831D21A4C02212BF076FC2246394628469F
S21400B6380DF10F03FEF7BEFE024678B1012342461F
S21400B6480093394633462846FFF77EFF0446E86BE4
S21400B6582BF0FAFD204604B0BDE8F0819DF80F30C7
S21400B668012BEBD12169B142E8D10093414633461C
S21400B6782846FFF7ADF904460028DFD1E7E721247E
S21400B688E8E71124E6E72924E4E700BF2C3C00207D
S21400B6982DE9F04790F8423086B0012B0546039115
S21400B6A8A1EB020740F0AA80FF2F03D81E464FF0F2
S21400B6B8640807E00226012B14BF4FF032084FF04B
S21400B6C86408013600244FF6FF79DFF844A195F8A0
S21400B6D84230012B14BF322364239C4202D35FFA04
S21400B6E888F40DE005AB2246514628462BF0E8FDC7
S21400B6F895F84230012B059B34D14B452DD1E4B249
S21400B70895F84230012B14BF32226422121BB24233
S21400B71817D3012E39D10022012B05978DF8132057
S21400B72827D1082205A90DF113002CF085F89DF8FD
S21400B7381330059A42EA032221462846FFF730FAD4
S21400B74840B10223324900932846CC23096803AA4D
S21400B758FFF7FAFE06B0BDE8F087DBB203B902349D
S21400B7680134B4E7591CCAD09BB2002BF8D1013477
S21400B778F6E7102205A90DF113002CF05DF89DF8E8
S21400B7881330059A42EA0342D6E7039A012B05923C
S21400B79823D10823202205A90DF113008DF81330B4
S21400B7A82CF04AF89DF81320120221462846FFF787
S21400B7B8F7F995F84230611C012BC9B21AD1002856
S21400B7C8BFD12846BDF81420FFF7EAF90028B8D1FB
S21400B7D80234BDF81620E1B2AFE71023202205A9EF
S21400B7E80DF113008DF813302CF026F89DF8132071
S21400B7F81204DAE70028A4D1059A9EE7B7F5803F39
S21400B8084FF00106BFF457AF4FF032085AE700BFB3
S21400B8182C3C002070B586B00E4605460392A0B3B1
S21400B82890F834309BB3B1F5801F32D202212BF04A
S21400B83872FB31462846184A0DF11703FEF7BAFD83
S21400B848044618B99DF81730032B0ED1022331464B
S21400B85800932846CC2303AAFFF776FE0446E86B37
S21400B8682BF0F2FC204606B070BD022B0BD10A491D
S21400B87828462BF047FD039902468142EFD028461A
S21400B888FFF706FFEAE76124E9E72124EAE711243F
S21400B898E8E72924E6E700BF2C3C0020F7B50C466D
S21400B8A81646054668B390F8343063B3B1F5801F82
S21400B8B82BD202212BF02FFB21462846144A0DF1E5
