S01B00006275696C642F72656C656173652F7A69676265652E73333714
S2140060000810002045A1000065E90000952B03005C
S214006010952B03006DE9000075E90000952B030041
S214006020952B0300952B0300952B0300952B03005F
S21400603079E90000D46F0400952B0300952B03002C
S214006040952B0300952B0300952B0300159C000051
S214006050952B0300952B0300952B0300952B03002F
S214006060952B0300952B0300952B0300952B03001F
S214006070E5EE0000952B0300952B0300952B0300FF
S214006080952B0300952B0300952B0300952B0300FF
S214006090952B0300952B0300952B0300952B0300EF
S2140060A0952B030011A50000F1A40000952B03001A
S2140060B0952B0300ED320200952B0300513D0200A4
S2140060C0B5830300B18303002D350200CB830300A4
S2140060D0B9830300213D0200BD830300913D020009
S2140060E0FD430200F9200200FD3D0200952B03004F
S2140060F0952B0300952B0300952B0300952B03008F
S214006100952B0300952B0300952B0300952B03007E
S214006110952B0300952B0300952B0300952B03006E
S214006120952B0300952B0300952B0300952B03005E
S214006130952B0300952B0300952B0300952B03004E
S21400614082B030BF074BD3F8F030DB0704D500230E
S2140061500193019B052B01DD02B07047019B0133C3
S214006160F6E700BF00ED00E0F0B5114A114C124E04
S21400617000F00105E3695F0713D40DB9334213D16C
S21400618003EA00078F4207D10B4A1A40002A14BFC1
S2140061906FF001000020F0BD013AEBD16FF0020075
S2140061A0F9E74FF0FF30F6E76FF00100F3E700BFC6
S2140061B08096980000000350020001000B4B70B55B
S2140061C0D96911F480310DD101244FF48072084E44
S2140061D0084DF46020462C641A61FFF7C5FF34644E
S2140061E0EC6070BD6FF00100FBE700BF00000350DD
S2140061F000100350002003504FF4003238B50F4B08
S2140062000F4C9A6641F671330122E569E3630D4B44
S2140062100021DA60022360612120236105F48035C5
S214006220FFF7A2FF10B92120FFF79EFF0122064BC1
S214006230DA600DB10023E36338BD00BF0090005064
S21400624000000350001003500020035070B5134C9C
S2140062506061E3695B071ED40E4656F8043B8D1852
S214006260A361AE420BD10423002121202361FFF756
S2140062707BFF58B9BDE870402120FFF775BF0821A5
S2140062800846FFF771FF10B10423236170BD56F86E
S214006290043BA361E5E74FF0FF30F7E7000003504B
S2140062A02DE9F84315464FF40032184B89469A6696
S2140062B041F6713203F51C33DF69DA6301220646C4
S2140062C003F58053DFF84C8007F48037DA6055B961
S2140062D0284601220E4BDA601FB10022A3F50053B8
S2140062E0DA63BDE8F88306F5005404EA0804A41B44
S2140062F0AC4228BF2C46494622463046FFF7A6FF4A
S2140063000028E6D12644A1442D1BE0E7009000506B
S20C0063100020035000E0FFFF2F
S2140063182DE9F04F4FF0FD0BC9B09A460DF11B0959
S2140063289DF8503108AFCDF80C90CDF808B001971D
S214006338059303890446009383790E469046418860
S2140063488288407812F0F4FC054650B10090A38885
S214006358002062883A4913F02FF8284649B0BDE86D
S214006368F08F99F800002FF02FFB38B12846A38845
S2140063786288344913F020F88D25EEE75A463946E8
S21400638899F800002FF0C8FA8346002851D0529B8F
S2140063981BB1BDF84C3198424BD8002399F80090B1
S2140063A80793A9F14102012A5FFA8BF123D83846F0
S2140063B80139254ADFF898C05FFA81FE734513DB7A
S2140063C8059B04210792C3B907AF18221F489FED03
S2140063D81A7B02FB060420460A460830394684ED36
S2140063E8027B17F03DFE11E010F8011F0133514003
S2140063F80CFB01F2E2E7059B33B123464A463846D2
S214006408009610F017FCA8E70829DED9B8F1000FA7
S21400641801D088F80090BAF1000F01D0AAF800B0B1
S214006428529B002B99D05A46184608A917F018FE12
S21400643893E7012591E700BF000000000000000078
S2140064489F180400D4180400C59D1C8180100020E5
S21400645893010001000000002DE9F04F93B0CDE94C
S2140064680A32DDE91C530E9353EC102BCDE90801D4
S214006478104619468DED060B1E9E17F07BF880B168
S214006488DDE906014FF0FF32C54B17F09BF840B91F
S214006498DDE906014FF0FF326FF4801317F074F849
S2140064A870B1DDE908019DED060B0E9B1E96CDE941
S2140064B81C53DDE90A3213B0BDE8F04F00F088B986
S2140064C80022DDE90601002317F05EF8002800F038
S2140064D83381DDE906A303F1004BCBF30A5016F42B
S2140064E88063A0F2FF3008BF06250F9316F070FDF4
S2140064F89BA3D3E9002316F0D5FD9BA3D3E900237D
S21400650816F01AFCCBF31304894644F07F518046F4
S2140065180022A44B504641F4401116F00BFC94A3FD
S214006528D3E9002316F0BEFD02460B464046494610
S21400653816F002FC17F050F8044616F049FD8EA334
S214006548D3E900238046894616F0ACFD0022964B18
S21400655816F0F2FB17F040F889A3D3E900230746A4
S2140065684946404616F09EFD80463846894616F04F
S2140065782FFD85A3D3E9002316F094FD02460B46AB
S2140065884046494616F0D6FB02460B46CDE90C2394
S21400659816F088FDDDE90C23804689461046194624
S2140065A816F0CAFB0022CDE91001804B404649464A
S2140065B816F0A2FE00227E4B16F0BEFB02460B46E5
S2140065C84046494616F098FE00227A4B16F0B4FB71
S2140065D802460B464046494616F08EFEDDE90C2379
S2140065E88046894600204FF0804116F0A3FB0246FD
S2140065F80B464046494616F09FFB02460B46DDE929
S214006608100116F079FE07F2FF3700226A4B16F0E3
S21400661893FB00223B0516F045FD52465B46804636
S214006628894616F0CFFF002840F08980CDE90C890E
S21400663804F16303C62B8CBF0527042731051BD539
S21400664853A3D3E900235046594616F0B1FF002855
S2140066587FD051A3D3E900235046594616F094FF3D
S214006668002876D00027A542C6BF2C1B04F1FF35AC
S21400667800253C4646F480660E9B9F422CBF4FF092
S2140066880008A3EB070816F0020903D0002F18BF6E
S2140066984FF000083CB1DDE90C235046594616F089
S2140066A82BFE82468B46DDE906010022002316F003
S2140066B86BFF10B10BF100439B46DDE9080126F499
S2140066C80063CDE90183DDE90A324BEC10AB009597
S2140066D800F07EF802465FB3DDE9091316F0200FD6
S2140066E800F10105089E0CBF65204520B047DDE98E
S2140066F808010523002205930A23002CCDE902325F
S21400670807F1FF374FEAD473B8BF64422A460193AD
S21400671804970A9B009431F087F80246B9F1000FF7
S21400672806D00B9BC41A0B9B1A190E9BA34245D87E
S214006738104613B0BDE8F08FDDE906ABCDE60022C3
S214006748404649461A4B16F0D7FD013CCDE90C01E8
S2140067586EE7002D90D00F9B002B8DD0013D8BE768
S214006768FB799F501344D33FB3C8608B288AC63F33
S21400677861436F63A787D23F71A379094F930A4095
S2140067881655B5BBB16B0240EF39FAFE422EE63F0E
S2140067982D431CEBE2361A3F0000000080842E4191
S2140067A8FFFFEF7F0000F83F0000E03F00002C40AE
S2140067B800002440000018400000F03F2020DDE9DB
S2140067C80913089DA8470134ADE700BF0000000084
S2140067D82DE9F04F5BEC10AB97B0CDE90501DDE98C
S2140067E82058CDE90723504652465B465946229F15
S2140067F816F0C0FE70B90323CDE902870193AA4BB1
S2140068080093DDE90501DDE9072330F03FFF17B007
S214006818BDE8F08F4FF0FF326FF4801350465946AC
S21400682816F0B2FE28B10423CDE9028701939F4BE8
S214006838E6E74FF0FF32504659469D4B16F0C2FE2B
S21400684868B19C4A07F00403002B08BF03229A4B42
S2140068581CBF13460422CDE902870192D0E75046B2
S2140068688DA3D3E90023594616F0ACFE38B98CA39D
S214006878D3E900235046594616F086FE68B1DDE98E
S2140068880723DDE905014BEC10ABCDE92187209500
S21400689817B0BDE8F04FFFF7DFBD002200235046D3
S2140068A8594616F071FE002800F091805B46524665
S2140068B80020002116F03EFA012382468B460993F3
S2140068C817F4806400F08580092D40F28580002446
S2140068D830210EABA5F109020134202C03F8011B68
S2140068E8A5EB040901D09442F6D15946504616F055
S2140068F873FE724B054603EBC90393ED007B8DEDE3
S2140069080A7B16F065FB02460B465046594616F0BB
S21400691811FADDE90A2316F0C5FB02460B46CDE957
S2140069280C2316F081FE064616F042FB02460B467E
S214006938DDE90C0116F0FEF902460B46CDE90C23FC
S21400694800225F4B16F03EFE002848D0013630463F
S21400695816F02EFB02460B46DDE90A0116F01EFE6F
S21400696808B100260135B9F1000F45D1284616F0C2
S2140069782FFB02460B465046594616F0DBF9002216
S2140069884F4B16F001FE10B9E90700D501350A216C
S2140069980EAB1A19202C0AD095FBF1F001FB105506
S2140069A8303502F8015B013405460028F2D107F0BD
S2140069B80302012A55D1B8F1000F52D0099A12B92C
S2140069C817F00C0F01D008F1FF38302240E009908C
S2140069D876E74FF0060988E7A946002485E70022EF
S2140069E8DDE90C01364B16F0CFFD0028BBD10EB101
S2140069F8F007B8D50136B6E70A210EAB1A19202CCF
S214006A080DD0B6FBF1F001FB1063092E03F130033D
S214006A1809F1FF3904F1010402F8013B11D83021CD
S214006A28A1440EAA202CB2D04C4504F101030AD189
S214006A3804F158020DEB02042E2204F8202C1C4602
S214006A48A5E70646DBE7A1541C46EBE71A550134D2
S214006A58444506D2202CF9D1CDE9028701940EAB25
S214006A68CEE6202CF8D0099B3BB12D2204F1580322
S214006A786B4403F8202C0134EEE77A0704D504F1BA
S214006A8858032B226B44F4E73B07E5D504F158037B
S214006A9820226B44EDE700BF0000000065CDCD4125
S214006AA80000000065CDCDC1C2350400C63504001F
S214006AB8FFFFEF7FB9350400BE350400C87E04002A
S214006AC80000E03F0000000070B58EB02C220021C8
S214006AD803A817F035F964234FF002320893CDE97E
S214006AE805230B2301218DF834305B4B8DF81010ED
S214006AF81D880D4040F0A980084634F005FF0A229C
S214006B08564B574C1A704FF42873ADF812304FF0A6
S214006B18FF332360534B54491B8820460B82534B44
S214006B28534A1B68CD828B61524B0D621B884B8281
S214006B38514B1B68CB611DF029FA20B14FF41B712D
S214006B484E4835F00EFF0521206831F0D5FC20B1FF
S214006B5840F27D21494835F004FF206816F0A6F873
S214006B68474B2068196831F041F80C2535F034FB9E
S214006B786843099035F030FB68430DEB0501079034
S214006B88206817F0C5FD20B140F295213B4835F046
S214006B98E8FE25681FF024FE00220146284631F04C
S214006BA89DF820B140F29721344835F0DAFE40F2DD
S214006BB80353344D344E2B80052396F90000AB70F2
S214006BC87F2801D11DF0CAFC3378EB7035F004FB42
S214006BD800EB80008000A88035F0FEFA0023C00095
S214006BE84FF0FF31E880AB604FF0FF3018A3D3E9D1
S214006BF8002334F0DBFF2549206831F028F82068A8
S214006C0802A931F020FD20B14FF434711B4835F04D
S214006C18A8FE042220680DEB020130F0BCFF042811
S214006C2804D040F2D721154835F09BFE01A9012073
S214006C3830F07DFB07F0D6FE01201EF013F92CF08D
S214006C4893FD1EF039F91DF021FC0EB070BD00BF93
S214006C580A0020FF420300006E590020A0600020B2
S214006C6894530020689804009467002070980400E5
S214006C7839B90300669804006C9804008B6E04000B
S214006C88D464002088530020686A0020ADB9030049
S214006C980348044B834202D0034B03B1184770479E
S214006CA8946A0020946A002000000000064B0749FA
S214006CB8C91A891048BF0131491003D0044B0BB1DB
S214006CC801481847704700BF946A0020946A00205D
S214006CD80000000010B5064C237843B9FFF7D8FF2C
S214006CE8044B13B10448AFF300800123237010BD92
S214006CF8B81500200000000088D3040008B5044B2F
S214006D081BB104490448AFF30080BDE80840CDE74E
S214006D1800000000BC15002088D30400A3F5803AC4
S214006D28704700BF154B002B08BF114B9D46FFF759
S214006D38F5FF00218B460F461148124A121A16F024
S214006D48FFFF0C4B002B00D098470B4B002B00D0B6
S214006D5898470020002104000D000B4817F036FB6A
S214006D6816F0C6FF200029002BF043FC17F01CFB8A
S214006D7800000800000000000000000008100020C6
S214006D8808100020F4600020D5E4010007B50121B2
S214006D9820200DF1070201F0A9F958B102230121BC
S214006DA820200DF107028DF8073001F0AFF903B087
S214006DB85DF804FB9DF807100229F8D0022209485E
S214006DC815F0A0FE022301210DF1070220208DF800
S214006DD8073001F09BF92BF066FB4FF4FA6000F0E1
S214006DE8CDFFE4E7B0CD030038B502F075F901F041
S214006DF81BFB012805D001F017FB022801D001F083
S214006E0839FB064D2B783BB901F00EFB01280446EA
S214006E1802D12BF0D1FB2C7038BD00BF4C5A002095
S214006E2810B5044600882BF012FBA37884F84400BB
S214006E38834202BF0123E3702371074B04F11C0051
S214006E48C4E9073401F0A8F9224620880349BDE8BA
S214006E58104001F0E5B800BFE7210300B1210300A8
S214006E6870B5C37804460D461646002B34D1D1B10A
S214006E78214815F047FE0123E370E36CA6600BB1CA
S214006E88E06D9847E368F61A63699E4221D2217E30
S214006E981A480131C9B2217615F034FEA36D13B134
S214006EA8217EE06D9847E5702BF010FB15B323792B
S214006EB803BBA268238A801A83421BD80123104882
S214006EC8237115F01FFE236DA3B1E06DBDE8704079
S214006ED8184701232376E6E70029E4D1094815F088
S214006EE811FE636DE660E5702571002BDBD0E06D62
S214006EF89847D8E770BD00BFD8CD0300E9CD03009A
S214006F0817CE030004CE030070B51E4683880446D9
S214006F180D46C18002810BB1868070BD81780088DD
S214006F282BF07EF90123E370064BA680C4E90334F0
S214006F380C34204601F030F929462046BDE870405A
S214006F482BF0BBBA3322030010B501790446B1FA18
S214006F5881F1008849092BF0DAF921796088B1FABD
S214006F6881F149092BF0D3F9034B1A68A24204BFF2
S214006F7800221A6010BD00BFD415002070B54379F2
S214006F880446A3B100880E4E04F10805336813B111
S214006F980C4B1B786BB121792BF0B9F964210A4B9D
S214006FA83460A3602846BDE870402BF086BA408857
S214006FB8E9E7064815F0A6FD054B3221A360F1E780
S214006FC8D41500204D5A0020516F00002DCE030026
S214006FD8856F000010B50446E0B10F4815F092FD25
S214006FE801236371A37953B9217920882BF08FF98F
S214006FF8236B7BB1606B0121BDE810401847204623
S214007008FFF7A2FF04F108002BF05CFA2046FFF712
S214007018B5FFEDE710BD00BF63CE030010B504460C
S214007028F8B1104815F06EFD00236371A3796BB9AB
S21400703821792088B1FA81F149092BF068F9236B88
S2140070487BB1606B0021BDE8104018472046FFF76B
S2140070587BFF04F108002BF035FA2046FFF78EFF79
S214007068EDE710BD6ECE030010B5044668B10748BC
S21400707815F048FD637920461BB1BDE81040FFF7C0
S214007088CDBFBDE81040FFF7A5BF10BD7ACE030000
S21400709810B5114C2188802904D9BDE810400F4846
S2140070A815F030BDA21C0E4815F02CFD82210D48A7
S2140070B815F028FD82212246022001F027F8014615
S2140070C828B122880848BDE8104015F01BBD0748BF
S2140070D8BDE8104015F016BDD854002089CE030030
S2140070E8B7CE0300D4CE0300DFCE030023CF0300C1
S2140070F870B5134D82212A46022000F0F7FF01469C
S21400710890B12C460F4834F8022B15F0FBFC0E4BBA
S21400711803F12C0253F8041B934244F8041BF9D1DC
S2140071281B7823702C232B802988084B80290A4635
S214007138BDE8704028BF8022054815F0E3BC00BFB4
S214007148D85400202ECF0300B0CF0300DA54002016
S2140071588CCF0300034B1B781BB18B4201D82BF056
S214007168A2B97047106A002010B5044601460E48BA
S21400717815F0C8FC012C11D10C4B0D481A884FF697
S214007188FF739A421EBF0022094B5A742BF0A5F8CB
S21400719802F00EF9BDE8104001F0CABF0448BDE889
S2140071A810402BF09CB800BFDDCF0300C469002058
S2140071B860640020F8B5144D04462F887B1E7F2B8C
S2140071C805D93946114815F09DFC0020F8BD3A4609
S2140071D80021A81C17F000F9064618B10C4815F04F
S2140071E891FCF2E720463A46A91C16F039FF2B8890
S2140071F8E6542B881C4414F8013C3B2B01D0054868
S214007208EDE70120E2E700BFD8540020FCCF0300DA
S2140072181FD003004AD0030070B500241A4D1B4E39
S2140072283378A3421BDC0024194D1A4E3378A34248
S2140072381BDC0024184D194E3378A3421BDC01F0E2
S214007248F3F8012816481CD12BF047F802F0B0F8DE
S21400725801F06EFFBDE87040124801F005B92846F7
S214007268FFF7DEFD01346035DAE728462BF01BF819
S21400727801343435DAE728462BF04EF80134383531
S214007288DAE72BF02CF8E5E780210020535A002097
S214007298A0250020545A0020501F0020525A0020D3
S2140072A860640020717100002DE9F04FA7B005ACAE
S2140072B806462046FFF77EFF18B9002027B0BDE82F
S2140072C8F08F04A804942BF04BF8054604A82BF07E
S2140072D847F80446284616F02FFC1F2803D972489C
S2140072E815F010FCE9E7204616F026FC1F2801D901
S2140072F86E48F5E704A84FF000082BF031F8C246B0
S2140073080446C3464246C1464546CDF80080CDF8F9
S214007318048023789BB9019B052B0ED80B2D0CD81F
S214007328B9F10A0F09D8009B042B06D8042A04D8FA
S2140073384BEA0A01032940F289805D48D0E72046D7
S214007348CDE9023216F0F8FB5A490746204616F0F1
S2140073584DFF039A08B3029B582B13D8412B6FD9BD
S214007368A3F1420116296BD8DFE801F01E5C0E6A0D
S2140073786A6A6A2E6A6A2E156A6A6A6A44386A6A85
S2140073886A6A5000692B5BD1012F06D821464A4805
S21400739815F0B8FB91E7012FF8D104A802922AF05D
S2140073A8DFFF029A0446B4E76178542904D1032F14
S2140073B849D821464148EBE7032F02D821464048E2
S2140073C8E6E70135EDB2E8E7022F02D821463D4848
S2140073D8DEE701990131CBB20193DEE7032F02D82D
S2140073E821463948D4E7009B01350133DBB2EDB2BC
S2140073F80093D2E7022F02D821463448C8E709F19D
S214007408010901325FFA89F9D2B2C6E7052F02D818
S21400741821462F48BCE702350BF1010BEDB25FFAA7
S2140074288BFBBAE7042F02D821462A48B0E709F1B1
S21400743802090AF1010A5FFA89F95FFA8AFAACE7E3
S21400744821462548A4E74FF00108A6E7009B9918AF
S21400745859445144C9B20A2901D9204840E70220B4
S2140074680321009B00EB830011FB020011FB0B01BC
S2140074785144B8F1000F00D001310131202901D95B
S21400748817482DE76EB1019B75703370009B86F820
S2140074980290F270337186F805B086F806A086F872
S2140074A8078001200AE700BF78D003008FD00300CA
S2140074B8C9D103009FD00300A3D00300BED00300A9
S2140074C8E1D0030003D1030022D1030044D1030016
S2140074D865D103008DD10300AED10300F8D10300B7
S2140074E822D203002DE9F04FA9B0FFF701FE05A848
S2140074F8FFF7DAFE20B9BE4815F004FB00F032FCB0
S21400750807AC2046FFF756FE074608B9B948F3E722
S21400751804A804942AF024FF054616F00DFBB64C82
S214007528C2B21F2A627001D9B448E5E72946A01CF2
S21400753816F096FD04A82AF013FF054616F0FCFA86
S214007548C2B21F2A84F8212001D9AD48D4E72946BB
S21400755804F1220016F084FD04A82AF001FF322563
S21400756804464FF000082678002E40F09F80FFF76C
S21400757853FEA44BDFF8CC921B78DFF8BC82DFF80A
S214007588C8A200939AF8003099F8002098F80010DE
S2140075989D4815F0B7FA9DF817309DF81850DFF893
S2140075A89CB21D449DF8193032461D449DF81A3089
S2140075B898F800101D445B4699F80000EDB2B142F9
S2140075C800F3E882914F012D38BF01253A46002383
S2140075D83C464FF482714FF6FF7601339D42137096
S2140075E85180968002F10C02F7DC894B8749824865
S2140075F8A36000F0FDFFE079A36800EB400003EB12
S214007608800000F0BDFDE3790133E371814B1A88F1
S214007618B24204D07D49804801F0ECF87D4B1A88C8
S2140076284FF6FF73D21A18BF012278497B4801F03B
S214007638BFFC0023764E98F800209A4200F3D282C8
S21400764800274FF00C0B764B99F8002098F800109E
S214007658BA4200F3DA8202EB010B0C21002701FB89
S2140076680B419AF800009423B8426E4A00F3EC8265
S21400767899F8003098F800704FF070091F440C23F2
S2140076884FF00008074403FB0744DFF8C0A15D4B32
S2140076981B78434500F3EC8229465C4800F0FEFD63
S2140076A8614815F02FFA29B0BDE8F08F532E0FD198
S2140076B863784C2B40F05081A378502B40F04C81D7
S2140076C801225A4B1A7004A82AF04AFE04464AE7D2
S2140076D8442E13D16378303B092BF4D8601C2AF06B
S2140076E84FFE534B534A1978002385B2994202F14C
S2140076F86002E8DD22F8465C0133F7E7422E0BD13C
S2140077086378542B54D1A01C00F0D8FC414B188049
S21400771818462AF026FDD6E7582E33D8412ED2D959
S214007728433E152ECFD801A353F826F00B7B000056
S214007738CF760000CF760000CF760000CF76000028
S214007748CF760000AF780000CF760000CF76000036
S214007758597800009F770000CF760000CF760000AB
S214007768CF760000CF760000ED7900006179000042
S214007778CF760000CF760000CF760000CF760000E8
S214007788637A0000692E9ED1601C2AF0F9FD80B24B
S2140077982AF085FE97E7284B012019780023274A08
S2140077A8994202F1A8028EDD02F8A60C0133F7E72B
S2140077B8601C00F083FC0646E01C2AF059FE0121F6
S2140077C8024630462AF010FE60211948194C037804
S2140077D85943621866524FF4FA6111824FF44871A1
S2140077E85161174955831165013303706BE700BF74
S2140077F84BD2030074D203007463002078D00300D1
S2140078088FD003004E5A0020ABD20300A0160020EB
S21400781818170020C469002050160020D81500202C
S214007828A41B0020E8190020FBD203004D5A0020B4
S214007838535A002080210020515A0020A41C002002
S21400784853230300505A00204F5A0020981800204F
S214007858601C00F033FC00224FF034098246DFF843
S2140078684C8311462AF0C0FD98F80000CD4E09FB5F
S21400787800F326F803A0F218E3781046693B18BF11
S214007888012393702AF00FFD0023C74998F80020BB
S2140078984B60012302FB09661A4488F800200E6034
S2140078A8B8460B740FE7601C00F008FC002211466F
S2140078B882462AF099FD3422BC4EDFF8E8923078EA
S2140078C802FB00F329F803A009EB0301E378084656
S2140078D8693B18BF01238B702AF0E5FCB44A0023E5
S2140078E81046916B41BB00EB83103423327802FBC1
S2140078F803938363AF4A00231046D2F8A41009BB4B
S214007908A82202FB03003423327802FB0393C0F854
S214007918A430B8F1000F0BD1A34A4346114652F8DB
S214007928040BA8B93422307800FB029241F82320D1
S214007938337801333370C6E60133042B02F1400274
S214007948CFD1D7E70133042B02F1A802D5D1E0E75F
S2140079580133042BE3D1EBE7601C00F0AFFB0646CF
S214007968E01C2AF085FD0121024630462AF03CFD3F
S2140079784FF0600C904891490278DFF838E20CFB2B
S21400798802FC21F80C604FF4487601EB0C031E82CB
S2140079985E618B4E5D839E65E4788A4E642C04BFD8
S2140079A801249C70A82433785C430EEB040C0EF874
S2140079B804304FF40074ACF8024003248CF80440FA
S2140079C88CF8064002EB420401EB4411CCF8081090
S2140079D832210133DBB201328CF805308CF8A01066
S2140079E80270A7E7601C00F069FB00224FF0380B16
S2140079F88246DFF8E09111462AF0F6FC99F8003046
S214007A08714E0BFB03F326F803A04FF0010AF21899
S214007A1882F804A0E37873B1E01C00F04FFB002264
S214007A28044611462AF0E0FC99F800300BFB036385
S214007A385C8083F806A065485D4A0378990153542C
S214007A4899F8001002EB8314C1EBC10206EBC206DC
S214007A584A1C666389F80020C6E6601C00F02EFB08
S214007A688146E01C00F02AFB0646601D2AF000FD51
S214007A7804460246012148462AF0B6FC224630460D
S214007A8801212AF0B1FC60204FF4487CDFF828E199
S214007A984A4A9EF8003000FB03F422F80490DFF808
S214007AA820911119A1F810C0C1F814C04D83C1F86F
S214007AB85890591CC9B248431418A4F810C0C4F802
S214007AC814C06583C4F8589094241652404E981CE7
S214007AD88EF800003078DFF804C1444303EB430314
S214007AE801EB41010CEB040E02EB431302EB4112CF
S214007AF80CF80400CEF80430CEF8082001303070B8
S214007B08E1E5601C00F0DAFA8146E01C00F0D6FADF
S214007B1800220646114648462AF066FC002238240B
S214007B28114630462AF060FC2A48274A03784FF068
S214007B38000E04FB03FC22F80C904FF0010902EB40
S214007B480C0181F806E081F8049003EB0901C9B23C
S214007B584C4302EB040C16539C1C047070241E4EF7
S214007B688CF806E030788CF804904443DFF870C050
S214007B78C3EBC303C1EBC1010CEB040E02EBC3035A
S214007B8802EBC1020CF80400CEF80430CEF8082048
S214007B984844B4E75C790136844284BF1A715A7146
S214007BA8A8330CE5A025002060640020545A002065
S214007BB8A41B0020A41C0020535A0020802100206B
S214007BC85D710000515A0020501F0020505A0020B6
S214007BD84F5A0020525A00204E5A0020E81900201A
S214007BE89818002033B117F8052C02EB420206EB72
S214007BF88206BE6039465846039301F0B1FD039BE2
S214007C080BF1A80B01330C3715E579180AD04A1E74
S214007C180BFB0242D27902EB420206EB82060BFB12
S214007C280142966018460BFB0141039301F050FB96
S214007C3898F80010194839440BFB014101F0A2F8E6
S214007C48039B01374033FFE417EB0B0F18BF11F8FF
S214007C58050C03911EBF00EB400006EB80068E6005
S214007C6803FB072000F09CFF039901370C31F8E46A
S214007C7818EB070F18BF14F8053C21461CBF03EB8A
S214007C88430306EB830609FB08A018BFA66000F0AE
S214007C9857FE08F101080C34F9E400BF441F002021
S214007CA807B5012121200DF1070200F01FFA18B9C7
S214007CB89DF80720024B1A7003B05DF804FB00BF5E
S214007CC8106A002007B5064B8DF8070018700121CA
S214007CD80DF10702212000F019FA03B05DF804FB45
S214007CE8106A002007B5022101200DF1060200F0F7
S214007CF8FDF938B9044814F005FFBDF8060003B0CE
S214007D085DF804FB0020FAE718D3030007B5022144
S214007D18ADF806000DF10602012000F0F7F901465D
S214007D2810B1034814F0EEFE03B05DF804FB00BF84
S214007D3839D3030010B5FFF7D5FF044601460748B8
S214007D4814F0E0FE0121064814F0DCFE24B9BDE874
S214007D5810400120FFF7DABF10BD00BF69D303004B
S214007D687BD3030008B5044814F0CCFE00F0DEF917
S214007D782AF099FB2AF094FB91D3030038B5044601
S214007D88084D094B28462B6000F006FA002C18BF51
S214007D9821462846BDE8384008BF4FF496712AF0B9
S214007DA88CBB00BFA4260020A72303002DE9F043C0
S214007DB8394D93B008AC0746894690460FCD0FC498
S214007DC80FCD00260FC495E803000323012584E899
S214007DD80300324C3248CDE90366CDE905668DF8D6
S214007DE80E300796029534F056FD2E4834F053FDB3
S214007DF832462D4920468DF8176005F055F833466B
S214007E0832462A498DF81900009020468DF82390AE
S214007E18CDF82C808DF8216005F060F80A90204691
S214007E288DF8097004F0C0FF204608AA05A905F0D9
S214007E387BF802AA204603A92BF014FC4FF4007224
S214007E481B4B5A62194BE560626A920510D46BB9EF
S214007E584FF40072164B11485A6204F0A5FF1148F9
S214007E6834F01CFD002013B0BDE8F083013BEBE7BF
S214007E78002BEDD0094908A82BF027FC4FF4007218
S214007E880B4B06485A6204F08FFF064834F006FD8E
S214007E98BDF82000E7E700BF846F04000040005AE2
S214007EA8D4710400D071040080841E0040420F0084
S214007EB80060005A0122034B1870034B1980034BCD
S214007EC81A707047565A0020CC690020555A002070
S214007ED8F8B5454B1B780BB90020F8BD434B1B780B
S214007EE8012B03D1BDE8F8402AF05CBA404B1C8849
S214007EF84FF6FF739C42EFD03E4834F0CCFC00238C
S214007F08260AE4B21A462146304604F00DFF012E32
S214007F18354604F0010335D015D9B51E012DDBD83A
S214007F28002B0BBF4FF480754FF080754FF47061CF
S214007F384FF070610BBF01274FF480370F204FF4C6
S214007F4870202D4B11E0002B0BBF4FF480754FF0BF
S214007F5880754FF470614FF070610BBF01274FF4C6
S214007F6880370F204FF47020244B1A6802401CD02C
S214007F78BA421AD01A680A4032D11A6822EA0102AE
S214007F882A4316E0002B0BBF4FF480754FF0807520
S214007F984FF470614FF070610BBF01274FF48037C4
S214007FA80F204FF47020164BDFE71A6822EA00020B
S214007FB83A431A602AF0F6F9054600288CD00836A7
S214007FC844EA06102A460321C0B2FFF7EFFE40F641
S214007FD8FF73684300F2FF70B0FBF3F080B27CE7F3
S214007FE895427FF479AFC8E7555A0020565A0020C4
S214007FF8CC690020D471040028C3035020C3035062
S21400800824C3035010B5044C237823B9034834F02E
S21400801842FC0123237010BD585A0020D471040076
S2140080282DE9F0431F4C85B0074688469146FFF772
S214008038E9FF23781BB902F01DF9012323707BBAE8
S214008048ADF80C3030220023174E02FB03F4315DE6
S214008058A51901BB012333554FF0FF3304F1100077
S21400806812493044AB606F80C5F80480C5F80C90A0
S21400807809F0F8FB04F10801042231440C4B009582
S21400808803A802F0CDF9A96802460A4814F03AFD9A
S21400809805B0BDE8F0830133102BD6D1064814F09E
S2140080A831FDF5E7575A0020CC260020D1230300DF
S2140080B8E32303009ED30300CCD3030080B10278E9
S2140080C8A2F14103032B0BD840783038C0B20828F9
S2140080D806D8054B134413F8413C40EA0320704782
S2140080E84FF6FF70704700BFAC6F040008B50B462C
S2140080F842B101460448006803F0DAFABDE80840D1
S2140081082AF0C7B9022008BDCC64002008B50B4683
S21400811842B101460448006803F052FCBDE8084036
S2140081282AF0B7B9022008BDCC640020F0B50026B6
S214008138124F8DB0FF2300930A223346386802A9EF
S2140081482BF035F8C0B102AB1D4603EB800404E003
S21400815855F8043BB34228BF5E1CAC423868E9D9E0
S214008168296803F0B3FD0028F2D02D28F0D00DB012
S214008178BDE8F0402AF08DB90DB0F0BDCC64002003
S21400818828B1034B0360034B4360002383607047AA
S2140081981900000374640020FF2307B50021044A71
S2140081A80093083009F0E2FA03B05DF804FB00BF5C
S2140081B8BD2403000B4604490246086803490978AB
S2140081C808B12AF09EB97047D82900205A5A0020CC
S2140081D8F7B50C4618B12921194834F0C2FB2468B3
S2140081E823685E795F8830463946FFF7E3FFF0B1CB
S2140081F88568E5B1A089227D3946904291BF002066
S214008208801AA36880B294BF03469B18E27C00904D
S2140082183046A8470138032803D8DFE800F0080FDF
S2140082280B0D002420462EF037F9204600E081206A
S21400823803B0F0BD8024F5E79324F3E78724F1E73D
S214008248F4D30300F8B515460D4A044610680D4ADF
S2140082580B46117850B122462AF053F9034628B146
S21400826800210C27C678B14201DB0020F8BD07FBC9
S21400827801F45A681019125BAA42F7D00131F2E7E6
S214008288D82900205A5A002008B5034B1B6803B1AA
S2140082989847002008BD00BFD42900202DE9F74FD5
S2140082A804460D460026454B454F1860454B197049
S2140082B833010021F85C013610F028FB0C2EF7D1AC
S2140082C80C2D28BF0C254FF0000901953C4EDFF811
S2140082D800A13D4DDFF8FC80019B4B4502DC03B056
S2140082E8BDE8F08F23784FF0000B337063887380F7
S2140082F8A388B380A379C6F80880B371E379C8F871
S214008308005088F804304FF00003A768A8F8063035
S214008318E3795B450ADC012116F8100B10F0F6FA33
S21400832808F1080809F101090C34D5E74FF00003F5
S21400833838886B812880FB784FF0000C2B81BA7840
S214008348C5F804A0002A00920CBF802240222A7397
S21400835879680AF10C02634513DC03EB43030AEB66
S214008368830ABB6843B1009A4FF6FF71B2FA82F2ED
S214008378164B52092EF020F814350BF1010B0C376A
S214008388C6E7B1F800E00CF1010C22F80CEC91F805
S21400839802E00C3202F816EC91F804E00C3102F810
S2140083A815EC11F809ECBEF1010F14BF4FF0100ED2
S2140083B84FF0110E02F814ECCDE700BFD8290020C4
S2140083C8404100205A5A0020DC2F0020D9810000A6
S2140083D8DC2900205C320020014B1860704700BF83
S2140083E8D0290020014B1860704700BFD429002010
S2140083F870B5128805460E46FFF724FF044670B18E
S21400840802790499806815F0EDFC064B1B680BB9D9
S214008418002070BD3146284622889847F8E786200F
S214008428F7E700BFD029002008B50FF00BFB02289D
S21400843806D0012806D0044B18784000C0B208BD04
S2140084480120FCE70220FAE7595A0020054B10B530
S2140084581C682CB1FFF7E8FF2346BDE81040184714
S21400846810BD00BFCC290020014B1860704700BF24
S214008478CC290020034B1A781AB901221A700BF07F
S21400848841BB7047595A00200022024B1A70FFF76A
S214008498DDBF00BF595A002037B50446002832D041
S2140084A80FF0D0FA022830D160892EF057FBE07919
S2140084B8237A003818BF0120012B637A08BF40F0E2
S2140084C808000BB140F0100063890BB140F00400BF
S2140084D8257CA188A2790DB1E36873B90C4B10F01E
S2140084E8F1FD2178084610F069FE2DF060FE0028A0
S2140084F814BF0320002003B030BDCDE90035054B7E
S21400850810F0E0FDEDE70220F5E70120F3E700BFF5
S214008518EC240400B5F4030008B50DF051FC014640
S21400852830B1044814F0EEFABDE808400DF0ECBF90
S21400853808BD00BF66D40300034B044A5B7C0121D8
S21400854803201370FFF7E2BD606400205B5A00202A
S21400855838B50446FFF7F0FFB4F57F4F17D129F07A
S2140085680CFF054660B91449144814F0CBFAFEF718
S214008578BFFD22462946BDE83840012029F0E3BF62
S214008588FEF786FDBDE838400020FFF7F7BB4FF63C
S21400859801739C4204D1BDE83840094829F085BEDD
S2140085A84FF602739C4205D1064B1878BDE8384052
S2140085B8FFF788BB38BD00BF93D403001DD1030066
S2140085C860640020106A002010B5074C012122467E
S2140085D80320FFF78BFD28B92378044A003B18BF11
S2140085E80123537410BD00BF5B5A0020606400204E
S2140085F8F8B5564B32251A884FF6FF739A4218BFBD
S21400860803234FF00802524C18BF2370514B1A70C0
S21400861830225D70DD7036259A705A7134221D71CD
S21400862831259A711A724FF40012DD714A4D426470
S214008638C5644A4D01220565494D86188565494D2C
S214008648C667C565484D494E4566494D80F8482079
S2140086588566484D80F854200567474D80F86020A9
S2140086684567202580F8785080F8845000F1210569
S214008678C0F88850414D80F86C20C0F88C50C0F87F
S214008688806080F89020C0F89440C0F8B8303C4B22
S2140086983C4CC0F8BC300223C0F898403A4C80F8EE
S2140086A8C030C0F8A4400F24384B80F8A840C0F863
S2140086B8C430374B374CC0F8C8308223C0F8AC40BB
S2140086C8354C80F8CC30C0F8B0400924334B344DD4
S2140086D8C0F8D030334B80F8B440C0F8D4302C7C87
S2140086E8314B80F89C20C0F8A00080F8D820C0F84D
S2140086F8DC3044B12D4B80F8E420C0F8E03005F1BA
S2140087081103C0F8E8304FF0000CCA798E6802EB07
S21400871842039F00443006EB830326F807C05860E0
S21400872801200D349870DC701318CB71FFF7B8FA77
S214008738FFF74AFFFFF778FE012806D12B7C23B106
S214008748BDE8F840164829F0B0BDF8BDC469002059
S214008758116A00205C5A0020C56F04000100200042
S214008768C46F040002002000C36F04000500420026
S21400877803002000C26F0400040042000700300017
S214008788FDFF21001200100100404200C06F0400E7
S21400879800FF4401B06F040006004200D8540020D1
S2140087A86064002002FF2001106A002001FF10010B
S2140087B813B504460D4829F0DFFC6422C0F30F43C6
S2140087C8637083B2B3FBF2F3A078237020220121F2
S2140087D829F0B9FEA0782122012129F0B4FE044927
S2140087E8201D02B0BDE8104029F067BEC46900200D
S2140087F8E09304000B7870B583704CF61E03038074
S2140088084FF02013C362012380F8303080F83C30E4
S214008818C3180364124B044643640223114A80F8C3
S2140088284830114B8263C3644063CA798D6802EB93
S214008838420305EB830004F12C0646600B4E45F810
S214008848236000238360531CCB71094B201DC4E9A9
S2140088580134FFF7A1FC2046BDE87040FFF7A8BF2B
S214008868FDFF210021002000C66F0400010001035F
S214008878B9870000437B044A012113700078113041
S214008888C0B2FFF743BC00BF665A002038B504469E
S2140088980078054D11302A460121C0B2FFF726FCA4
S2140088A808B92B78637338BD665A00200A2805D89D
S2140088B8034B53F8200008B129F020BF704700BFCB
S2140088C8BC320020012908B506D0022907D049B9CC
S2140088D829F00BFF002008BD29F00AFFFAE729F067
S2140088E80AFFF7E7024814F00DF90120F3E700BF86
S2140088F8C0D4030010B40A2811461A46BDF804303E
S21400890807D8064C54F8200018B15DF8044BFFF75A
S214008918D9BF01205DF8044B704700BFBC32002069
S214008928002310B5044683810364A0F84430483019
S214008938FFF732FC014BC4E9123410BDEB260300E6
S21400894838B50B7804460A2B0D4632D8194A4370B8
S21400895842F82300FFF7E4FF2046FFF797FF4FF49F
S214008968401323610123144A2375A261134A84F82D
S2140089782030E261124A84F82C306262114A84F888
S2140089883830A26204F10C0222630F4A04F10D0388
S2140089986263E363EA79A86802EB420300EB8301AB
S2140089A810344C60094C40F82340094B8B60531C2C
S2140089B8EB7138BDBC320020655A00200800200044
S2140089C8126A002000FF300001FF100102010104B6
S2140089D8FD88000010B47024427B0D48013A012936
S2140089E804FB020006D0022908D059B95DF8044BEA
S2140089F829F07BBE5DF8044B29F07ABE5DF8044B7F
S214008A0829F079BE03485DF8044B14F07BB800BF24
S214008A1898180020DCD40300B0F85C302DE9F0414B
S214008A288B4204460E4638D0437B077C8BB31C4AE1
S214008A3812789A422DD370251A4A013B05FB032368
S214008A4890F80F801B7B424629F066FEB84505461F
S214008A5801D1FF281FD13A463146204694F8903077
S214008A6829F05AFE2F460546552212216078A4F8AA
S214008A785C6029F068FDFF2F03D039462046FFF7D3
S214008A88A9FFFF2D09D029462046BDE8F04129F068
S214008A9883BEFF25DFE70746E6E7BDE8F08100BFAF
S214008AA84E5A00209818002041688268C978D27803
S214008AB849B112B10321FFF7AFBF837B002B0CBF70
S214008AC801210221F7E72AB1837B002B0CBF022184
S214008AD80121F0E7014814F015B800BFEDD40300F3
S214008AE8037BD3B14368DA7812B18268D278A2B928
S214008AF81B7933B1837B002B0CBF04210521FFF7BC
S214008B088BBF83681B792BB1837B002B0CBF052199
S214008B180421F4E7014813F0F5BF70471FD503009A
S214008B28084A437B05211370837B5370C37B93707D
S214008B38037CD370037B137100780E30C0B2FFF746
S214008B48E5BA00BF675A002038B5044600780C4DD1
S214008B580E302A460521C0B2FFF7C8FA20B1BDE894
S214008B683840084813F0CEBF2B7863736B78A3732E
S214008B78AB78E373EB7823742B79237338BD00BF87
S214008B88675A00205BD503000A2805D8034B53F81C
S214008B98200008B129F04ABE704700BFE83200201E
S214008BA8F8B50B7804460A2B0D4600F28280414A37
S214008BB8437042F82300404E29F056FEFFF7C4FFE4
S214008BC86268A3683D483E49D6641165D465506519
S214008BD8C3E91410DE64DC654FF0987302266361FF
S214008BE8012304F10C01E16136491032216204F1D7
S214008BF80D01A16234492376E16204F10E01616336
S214008C08324984F82430A16304F10F012164304905
S214008C1884F83030616404F11001E1642D4984F869
S214008C283C3084F84830216584F85460A265E879B9
S214008C38A96800EB400201EB820704F1140CC7F8A0
S214008C4804C04FF4817C244F41F82270C218D2B277
S214008C5802EB420241F822C001EB820700227A604A
S214008C681E4A84F8703022661D4A84F88830A26648
S214008C781C4A1D4BE2661D4AC4F88C3062671C4AC3
S214008C888319A26704F15C02C4F88020DBB2194A93
S214008C9803EB4303C4F8842084F8646084F87C609B
S214008CA801EB830260345460134A033041F82320F2
S214008CB8E871F8BDE8320020B18A0000F727030003
S214008CC8E98A0000010020010200100103003001BB
S214008CD8040030010500210101FC01064A002100BC
S214008CE8C86F040051001000CA6F0400CB6F040060
S214008CF8550021006F0018001200010470B50D46DB
S214008D080646144613460A4601461A4813F0FAFE63
S214008D1825B92046BDE87040FFF71ABC072D05D1D7
S214008D2821463046BDE8704000F0DABC4FF60143F5
S214008D389D4205D121463046BDE87040FFF724BF66
S214008D48062D05D121463046BDE8704000F076BABB
S214008D58B5F5817F05D121463046BDE87040FFF75E
S214008D68A5BD202D04D12046BDE8704000F0ECB823
S214008D7870BD00BF8AD503000148FFF72DBB00BFB2
S214008D88058D00004FF4C01330B50360012303714E
S214008D98074B8C688360CA7902EB420304EB8305B1
S214008DA86860044844F82300531CCB7130BD00BFEC
S214008DB8CC6F0400040001010368064A0C21136006
S214008DC84368536003891381438922205381FFF740
S214008DD89DB900BF1433002010B50368044686B05A
S214008DE8FBB1114813F08EFEA37B104A8DF80430B1
S214008DF84FF48273ADF806300123CDE90223002331
S214008E0801A804938DF81430FFF746FB20466189C5
S214008E1829F03AFD2046FA2150F8143B594329F028
S214008E284CFB06B010BD00BFBDD5030020000001F6
S214008E3810B5064C236843B1054813F063FE206856
S214008E48BDE81040418929F01FBD10BD2033002021
S214008E58DED5030070B5364910460C68BDF81020FC
S214008E68002C5ED003285CD8DFE800F0021E2745F9
S214008E78002B5AD0022A58D91D78B3F80160291E4B
S214008E8818BF012132462B4813F03CFE2DB131465F
S214008E98204629F0F9FC002070BDE573FA206368C7
S214008EA8584329F091FBF6E7234813F02BFEE37BA3
S214008EB8002B38D00023E373F0E7002B35D0032AC5
S214008EC833D91D681D48294613F01CFE1C4B2A1F63
S214008ED89A4201D90220DFE723680BB19D42F9D8F0
S214008EE823899D42F6D3E37B6560B3B9FA206843CD
S214008EF829F06AFB11E0002BCED0012ACCD91D88B8
S214008F081048294613F0FEFD002DE3D063689D4205
S214008F18E0D8E37B2581002BE8D12046FFF74CFFFD
S214008F28B9E70120B8E70420B6E70320B4E700BF96
S214008F382033002001D6030038D6030057D6030096
S214008F48FCFF6D0082D6030038B5154B1C6834B399
S214008F58F0B92168134813F0D5FD23683BB1626861
S214008F68934204D2104813F0CDFD6368236004F1E1
S214008F781405284629F0A6FA236823B1FA212846BC
S214008F88594329F09AFA2046BDE83840FFF714BF3F
S214008F98032804D16189054813F0B4FDF3E738BD0A
S214008FA820330020ADD60300DBD6030010D703001D
S214008FB870B53E4B0D46044609781860002A6FD1F6
S214008FC801231A46A1730021E1730121A1814FF400
S214008FD86151C4E900132823354E22810C213246FC
S214008FE822206381FFF782F860B9D6E900230AB128
S214008FF89A4207D3318999429FBFC4E900237389EF
S214009008218163812B4B2C4AE363042384F8403088
S21400901884F84C30E3182365284BA2646365022362
S21400902804F10802E265264A84F85830226604F1FC
S2140090380A02A266234A84F8643084F8703004F181
S2140090480C03E26663676464EA79A86802EB420385
S21400905800EB830104F13C064E601B4E40F823608B
S214009068FA261A4B1A488B60531CEB71FFF7BAF9AD
S214009078208904F11405704329F0A6FA6189204670
S21400908829F002FC134B2846C4E90534FFF784F898
S214009098216849B128467143BDE8704029F00DBAE9
S2140090A84FF4F07302228DE770BD00BF2033002016
S2140090B814330020000023010100230002002100D1
S2140090C803002101FDFF2100200001055D8E000040
S2140090D8398E0000E18D0000134B10B51C680CB3E8
S2140090E8E37BEBB129F0F2F92369C01A002809DB03
S2140090F80E4813F007FD0023FA20E373636858430D
S21400910829F062FAE37B5BB12489FA235C4329F0F1
S21400911866FAA04206D02046BDE8104029F054BAA8
S2140091286468F2E710BD00BF203300203DD7030077
S21400913838B50024044D55F8040B08B129F0B7FBE0
S21400914801340B2CF7D138BD24330020042908B588
S2140091580AD172B16BB113781BB929F0D3FB002082
S21400916808BD29F0C5FBFAE7034813F0CBFC01203D
S214009178F6E70320F4E700BF77D7030010B40A2801
S21400918811461A46BDF8043007D8064C54F8200095
S21400919818B15DF8044BFFF7D9BF01205DF8044B02
S2140091A8704700BF243300200229024608B50ED0B7
S2140091B804D839B9104629F0A5FB06E04029F9D0AD
S2140091C8412907D1104629F093FB002008BD29F055
S2140091D8A3FBFAE7024813F095FC0120F6E700BF68
S2140091E897D7030010B40A2811461A46BDF804306B
S2140091F807D8064C54F8200018B15DF8044BFFF762
S214009208D3BF01205DF8044B704700BF243300200D
S214009218426B094B52791A7082785A70C2789A70E3
S214009228826B12B190F83C20DA700078042109307D
S214009238014AC0B2FEF76ABF6C5A00200A2805D851
S214009248034B53F8200008B129F082BB704700BFD3
S2140092582433002038B504460078084D09302A46DD
S2140092680421C0B2FEF742FF30B96B78A370AB7822
S214009278E370EB7884F83C3038BD00BF6C5A0020A9
S21400928838B504460078114D09302A460421C0B284
S214009298FEF72CFFC8B9A3782A78022B0CD004D87E
S2140092A863B9204629F02EFB01E0FF2B0AD02046A2
S2140092B8BDE8384029F0FBBA002AF2D1204629F04A
S2140092C817FBF4E7002AF9D1EBE738BD6C5A002003
S2140092D8F8B50B7804460A2B0D464ED8274A42F8AE
S2140092E823004370FFF7B6FF636B254A5C631A6377
S2140092F82046FFF7C5FF204629F0D9FA4FF4801319
S21400930863600123626BA66B0532E2601D4A237216
S2140093182261A21C2375A26166B11B4A84F820301C
S214009328E261E21C6262194A84F82C3004F13C03BC
S214009338A26223630627EA79A96802EB4203002E95
S21400934821F8237001EB83000CBF02230423C370AB
S214009358012383700E4B04348360531C4460DBB2D5
S2140093680C4C03EB430341F8234001EB8300002336
S2140093784360094B02328360EA71F8BD243300204B
S214009388352903000340300101FF300102FF1001B8
S214009398ED910000080001008591000028B1034BFC
S2140093A81B78834234BF002001207047505A0020A3
S2140093B870B500250A4C0B4E3378AB4200DC70BD06
S2140093C8D4F8A42042B123791BB16079FFF7E6FFF1
S2140093D810B9104628F05AFF0135A834ECE700BF4C
S2140093E8A41C0020515A002008B5427901461046B0
S2140093F8FFF7D4FFA8B1CB780A48013A042B00EB54
S21400940882100ED8012B08D81BB9BDE8084029F0F1
S2140094186FBABDE8084029F075BABDE8084029F0DB
S2140094287BBA08BDA41B002008B542790146104641
S214009438FFF7B4FFA8B1CB780A48013A042B00EB33
S21400944882100ED8012B08D81BB9BDE8084029F0B1
S21400945859BABDE8084029F04BBABDE8084029F0DB
S2140094685BBA08BDA41B002010B586B00446FEF7FC
S214009478DBFF012830D1E278042A2DD8DFE802F095
S21400948813323403030061790846FFF787FF58B3A1
S2140094981648032A00EB811050F80C3C58791DD169
S2140094A8003818BF012063784FF480728DF80430B6
S2140094B84FF48273ADF806300623ADF80830012362
S2140094C88DF80B3000238DF80A0001A8CDE9032398
S2140094D88DF81430FEF7E0FF06B010BDB0FA80F045
S2140094E84009E0E70020DEE70220DCE7A41B0020B6
S2140094F810B586B00446FEF797FF012830D1E2780B
S214009508042A2DD8DFE802F013133203030061792A
S2140095180846FFF743FF48B31548032A00EB8110B7
S21400952850F80C3C5B791DD11A1E18BF01226378CF
S2140095388DF80A208DF804304FF48273ADF80630A3
S2140095480623ADF8083001234FF480728DF80B30EF
S214009558002301A8CDE903238DF81430FEF79CFFFD
S21400956806B010BDB3FA83F25209E0E70222DEE73E
S214009578A41B002010B586B00446FEF755FF012848
S21400958812D16378094A8DF804304FF48273ADF827
S21400959806304FF48073CDE90223002301A8049314
S2140095A88DF81430FEF778FF06B010BD08000701E6
S2140095B810B586B00446FEF737FF012820D162783A
S2140095C8104B8DF804204FF4827294F8A01094F88B
S2140095D8A10059701870ADF8062004934FF48072F5
S2140095E80223094901A88DF81430CDE90212FEF7C6
S2140095F853FF94F8A130013B18BF012384F8A1302B
S21400960806B010BD705A00200800050110B5837812
S214009618044603B30379022B0AD142791046FFF7B2
S214009628BDFE28B10C48013A00EB821029F074F907
S214009638A379022B02D12046FFF716FF2046FFF734
S214009648B7FF02236078A4F86C305522BDE81040B6
S214009658122128F078BF10BDA41B00204388094AB1
S214009668082113808388538083681B8A938090F828
S214009678A03093718379D37100780430C0B2FEF7B6
S21400968845BD00BF5A55002038B50D46044601783A
S214009698114813F037FA4FF602739D420ED10F4B5E
S2140096A81B782BB963712046BDE83840FFF7D6BF54
S2140096B862790AB19342F6D20123F3E7B5F57F4FF4
S2140096C8F1D1204629F0C1F9A378022B0CBF01225C
S2140096D80022A3689A70E6E7B3D70300505A002022
S2140096E80A2805D8034B53F8200008B1FFF7CCBF6B
S2140096F8704700BF5033002038B504460078144D34
S21400970804302A460821C0B2FEF7F0FC20B1BDE8B6
S2140097183840104813F0F6B92B8863806B88E978D0
S214009728A380AA88A3681A82AB7984F8A030EB795C
S214009738A371094B1B780BB9637138BD09B19942FF
S214009748FBD9064813F0DEF923780133F4E700BFA7
S2140097585A550020CDD70300505A0020F6D70300EC
S214009768F8B50B7804460A2B0D4600F28D80474A5A
S214009778022642F823004370FFF7BEFFA268444B58
S214009788D465D364434BA11C5365434B1032136412
S2140097984FF44013E36001236161E1623F492265AB
S2140097A821633F4A211DA1633E483F49626504F193
S2140097B8A002A061E163E265E01C611D3B4A2062ED
S2140097C861643B483B492266A21D2374237784F8CC
S2140097D8283084F8343084F84030A16484F84C602B
S2140097E884F8583084F864306062A266E879AA681B
S2140097F800EB400102EB810704F10C0CC7F804C02B
S2140098084FF0060C2C4F42F82170C118C9B201EB74
S214009818410142F821C002EB810700217960274FF9
S21400982884F880302767264F84F89830A767254F36
S214009838254BE767254F84F8746084F88C60C4F875
S2140098489C3004F16C06831CC4F88470C4F89060DD
S2140098581F4F204EDBB203EB4303C4F89460C4F8F2
S214009868887002EB83067034746008261A4C42F837
S2140098782340C31CDBB203EB430302EB8304043030
S21400988842F823606160E871F8BD00BF50330020DD
S214009898A9290300F32903001596000001FF3001EB
S2140098A804FF20011000300102FF200105FF3001EF
S2140098B800FF300103FF2101070001084A002100CC
S2140098C8CE6F040051001000D06F0400D16F040062
S2140098D8550021006F0018001200010400239B6A3F
S2140098E8B3F5C04F03D21968064A914203D0002345
S2140098F8037083607047012202709A689B69426011
S214009908F7E700BF07B0CD5E024B034A1A602AF09D
S214009918ECBA00BF0000002002020FF073B5534BEC
S21400992804461A781AB102221A7002B070BDCDE940
S21400993800220028F9D001261E7032F08BFF4C4D0D
S2140099484C4B186017F02CFB2B785BB902F062FAC8
S21400995840B949480823494A4949006801F0A8FE21
S21400996800B92E70474B5A6E62619B6E464AA361D9
S2140099784FF40043936603F188435968E16143490D
S2140099889960196E2160596E6160D3F87011A160F4
S214009998196CE160596C21613D49086C1864496C82
S2140099A85964012151664FF4005191661A6E5604A7
S2140099B836D53849CA68D407FCD45B6E5A0434D501
S2140099C8354AD36B13F0430FFBD1344B1A68531C3C
S2140099D831D04FF400139340314A13660423304CB9
S2140099E8684623664FF480632366102323664FF485
S2140099F8005323664FF0804323664FF4804301A943
S214009A08636629F03AF8009B2366019B63662B7809
S214009A18002B8AD0194B1A6822665B68636684E74F
S214009A282049CA68D007FCD4C7E71F4AD36B13F08F
S214009A38430FFBD1C9E71D4B1B78002BCED14FF443
S214009A488072114B5A661A4A52681AB94FF40011B6
S214009A58134A11664FF400725A66164B5B68002B61
S214009A68BCD14FF480020E4B1A66B7E7735A002033
S214009A78745A00209C330020CC640020A0330020B9
S214009A8800710800008000500090005055CEAC00D1
S214009A9800C00054000004400000024C98640020F7
S214009AA800900044000004500000025C725A002037
S214009AB800C005500000065070B52C4D04462E78A0
S214009AC8012E02D001232B7070BD0028FCD028F090
S214009AD8F9FF01300BD028F0F5FF40F20113984249
S214009AE805D0234B234A5E66D368DE07FCD4224B98
S214009AF822491B6E13F0040F4FF4005314BF1C4A80
S214009B081F4A9366CA6B12F04302FBD121681A4BB0
S214009B18196661685966A168C3F87011E168196426
S214009B2821695964E169C80748BF9A60154B1A68E5
S214009B3801320DD1144A127852B914494968C90736
S214009B4848BF1A60124A5268D20744BF01221A60F8
S214009B586269104B5A66A2699A6617F029FA0E4B84
S214009B68186832F072FE0023ADE700BF735A002073
S214009B780090004000000440008000440000024CB2
S214009B880090005098640020725A002000C00550CB
S214009B9800000650008000509C33002070B500245A
S214009BA8A36AB3F5C04F23D21A68134B9A421FD143
S214009BB8124E337813F0FD0518D14FF48034104850
S214009BC8FFF7ACFE032004F0B9FC0E4B0320DC6064
S214009BD804F098FC0C4B1C61AB6ADB69984704469A
S214009BE80748FFF769FF0CB901233370204670BD9C
S214009BF84FF48174FAE700BF07B0CD5E725A0020B2
S214009C087C33002000A000440090004413B5204B8D
S214009C181B7803B9FEE700231E4CCDE900336A46DD
S214009C2808231D49206801F043FDF8B91B4AD2F8FD
S214009C384031D2F840211F2B4FF0010311D9203AAA
S214009C489340019A1A43019208236A4612492068EB
S214009C5801F0B6FE124B134A1A602AF046F902B013
S214009C6810BD9340009A1A430092EDE72D28F1D1D3
S214009C780A4AD2F84031D2F840211F2B4FF0010390
S214009C8885BF203A93409340019398BF0093DBE743
S214009C98735A0020CC64002000710800008000443D
S214009CA8000000200B020FF038B50025AB6A04460A
S214009CB8B3F5C04F10D21B6BB3F5C04F0CD2074894
S214009CC8FFF72CFEAB6A20461B6B5B689847BDE81F
S214009CD838400248FFF7F0BE38BD00BFA833002062
S214009CE813B50024A36A0190B3F5C04F13D21B6BBB
S214009CF8B3F5C04F0FD20948FFF710FEA36A01213B
S214009D081B6B01A89B69984704460448FFF7D4FED6
S214009D18204602B010BD4FF48174F9E7A83300203E
S214009D2870B50026B36A0446B3F5C04F0D4612D286
S214009D381B6BB3F5C04F0ED20848FFF7EFFDB36AAA
S214009D4820461B6B29469B69984704460348FFF73D
S214009D58B3FE204670BD4FF48174FAE7A83300209E
S214009D6870B50026B36A0446B3F5C04F0D4612D246
S214009D781B6BB3F5C04F0ED20848FFF7CFFDB36A8A
S214009D8820461B6B2946DB69984704460348FFF7BD
S214009D9893FE204670BD4FF48174FAE7A83300207E
S214009DA8F8B50027BB6A0446B3F5C04F0D461646FD
S214009DB811D21B6B7BB10948FFF7B0FDBB6A204682
S214009DC81B6B324629465B6A984704460348FFF7EA
S214009DD873FE2046F8BD4FF40174FAE7A833002056
S214009DE870B50026B36A0446B3F5C04F0D4612D2C6
S214009DF81B6BB3F5C04F0ED20848FFF78FFDB36A4A
S214009E0820461B6B29469B6A984704460348FFF77B
S214009E1853FE204670BD4FF40174FAE7A8330020BD
S214009E28F0B50027BB6A0446B3F5C04F0D46164684
S214009E38ADF5177D20D21B6BB3F5C04F1CD210486A
S214009E48FFF76CFDBB6A20461B6B40F251225B6A2B
S214009E5801A99847044630B10948FFF72DFE204669
S214009E680DF5177DF0BD836A32461B6B2946DB6A03
S214009E7801A898470446EFE74FF40174EFE700BFE0
S214009E88A833002010B50024A36AB3F5C04F10D23B
S214009E981B6BB3F5C04F0CD20748FFF73FFDA36A0C
S214009EA81B6B1B6B984704460348FFF705FE2046C6
S214009EB810BD0124FBE700BFA8330020F0B58FB023
S214009EC8044601A80E461546FFF7EEFE9DF80C3030
S214009ED8012B12D1B5F5002F27D8B4F5002F24D8BA
S214009EE86319B3F5002F20D821462A46304614F0C9
S214009EF8B7F8002420460FB0F0BD0027BB6AB3F5BC
S214009F08C04F15D21B6BB3F5C04F11D20A48FFF7E6
S214009F1805FDBB6A2A461B6B314620465B6B984795
S214009F2804460548FFF7C8FDE4E740F20244E1E7C7
S214009F3840F20114DEE700BFA8330020F0B58FB06A
S214009F48044601A80E461546FFF7AEFE9DF80C30EF
S214009F58012B1FD1B5F5002F06D8B4F5002F03D86E
S214009F686319B3F5002F13D940F2024420460FB008
S214009F78F0BDE258013225D104339D42F9D82A466D
S214009F883146204600F082F80028EDD00024EDE7A0
S214009F980023F2E70027BB6AB3F5C04F15D21B6B48
S214009FA8B3F5C04F11D20A48FFF7B8FCBB6A2A4679
S214009FB81B6B314620469B6B984704460448FFF7C0
S214009FC87BFDD3E740F20344D0E740F20114CDE727
S214009FD8A833002070B58EB0044601A80D46FFF7DA
S214009FE863FE9DF80C30012B22D144EA0503C3F327
S214009FF80C03002B33D1B5F5002F04D940F20244E8
S21400A00820460EB070BDB4F5002FF7D82544B5F538
S21400A018002FF3D8204604F5005400F029F8AC4287
S21400A02802D00028F6D1E9E70028E7D00024E7E7C1
S21400A0380026B36AB3F5C04F14D21B6BB3F5C04FF6
S21400A04810D20A48FFF76AFCB36A29461B6B2046FB
S21400A058DB6B984704460548FFF72EFDD0E740F22D
S21400A0680444CDE740F20114CAE700BFA833002035
S21400A0784FF4003208B5044B9A6632F089FEB0FAFF
S21400A08880F0400908BD00BF00900050134610B588
S21400A09862B103439B070BD14FF40034054B9C6613
S21400A0A832F07AFEB0FA80F0400910BD0120FCE7D5
S21400A0B80020FAE700900050BFF34F8F0549064B83
S21400A0C8CA6802F4E0621343CB60BFF34F8F00BF49
S21400A0D8FDE700BF00ED00E00400FA0570B5D0B15A
S21400A0E8C9B10E4E431E013913F8014F2046325DA2
S21400A0F802F00302012A11F8012F08BF04F120001C
S21400A108B55C05F00305012D08BF2032801A01D181
S21400A118002CE9D170BD0120FCE700BF659704005C
S21400A1280348044A0449121A921028F030BD00BFAA
S21400A13840610000186300009061002008B5154BC8
S21400A14883F30A8800F030F8FFF7EAFF124B13494A
S21400A1588B4212D30020124B12498B4218D3FCF7BD
S21400A168E1FD186850F82240586840F8224001324D
S21400A17898688242F5D30C33EAE70022F8E71C68B1
S21400A18844F8220001325C68A242F8D30833E4E7B8
S21400A1980022F8E70800002090D304009CD30400AF
S21400A1A89CD304009CD304004FF40041134B144A7C
S21400A1B870B59A60D3F88820124D42F47002C3F83E
S21400A1C88820114A05F5005491664FF0FF32226642
S21400A1D84FF6DF7262660222C3F8D020BFF34F8FB5
S21400A1E8BFF36F8F4FF44036032004F0A7F903201F
S21400A1F8E66004F087F92E6170BD00BF00ED00E050
S21400A208006000000080004400900050054B186075
S21400A218054B1B6F03F00703032B01D130F066BC18
S21400A228704700BFA8640020008000502DE9F04168
S21400A23804464FF001080C250D4E0CB9BDE8F08118
S21400A24894FAA4F0B0FA80F00F2808FA00F2C8BF13
S21400A258103824EA0204CABF05FB006205FB006248
S21400A268B4325768002FE8D09168C0B2B847E4E720
S21400A278C833002008B50C4832F00DFB192004F04E
S21400A2884FF928B1192004F059F9192004F03AF9C1
S21400A2981A2004F045F928B11A2004F04FF91A20BC
S21400A2A804F030F9002008BDD47104002DE9F0410F
S21400A2B80E461746054618B30F2923D80378DBB190
S21400A2C8013BDBB2022B19D8104AD35C6A78D3401C
S21400A2D8DB0717D50E4BD3F81043ACB932F0BAFAF1
S21400A2E880463A462846314603F064F8404632F03F
S21400A2F8ACFA2046BDE8F0817F23E7E70023E5E7D0
S21400A3082224F6E72124F4E70224F2E72470040066
S21400A31800C0035010B5044610B30378E3B1013B00
S21400A328DBB2022B1AD8104AD35C6278D340DB071C
S21400A33818D532F08FFA0122617823788A403021C6
S21400A3484B4341F2100103F1A04303F570335A5012
S21400A35832F07BFA002010BD7F23E6E70023E4E70F
S21400A3682220F8E72120F6E72470040010B50446FA
S21400A37810B30378E3B1013BDBB2022B1AD8104ABC
S21400A388D35C6278D340DB0718D532F063FA012233
S21400A398617823788A4030214B4342F2100103F15A
S21400A3A8A04303F570335A5032F04FFA002010BD20
S21400A3B87F23E6E70023E4E72220F8E72120F6E7F4
S21400A3C82470040038B50D46044618B311B3037854
S21400A3D8E3B1013BDBB2022B1AD8104AD35C627891
S21400A3E8D340DB0718D532F035FA302223785343AA
S21400A3F803F1A04303F570335B696278D34003F03A
S21400A40801032B7032F021FA002038BD7F23E6E7DF
S21400A4180023E4E72220F8E72120F6E7247004006A
S21400A4282DE9F0410D4616469846044600284FD0BA
S21400A43800294DD00178002940D04B1EDBB2022BF4
S21400A4483ED8254AD25C6378DA40D20701D4FF2981
S21400A45840D1022E01D9042E3CD132F0FBF92378E4
S21400A4680746FF2B05D032462046296802F0E8FF4B
S21400A47828602B68013309D12378FF2B06D1174BA8
S21400A4886078D3F8241429F053F9286029684B1CFF
S21400A49818D00C23124A03FB0122069BC2F804803C
S21400A4A893602378FF2B04D001230E4A8B40C2F812
S21400A4B82434384632F0C9F9002007E07F22C2E784
S21400A4C80022C0E7384632F0C0F92D20BDE8F081FA
S21400A4D82220FBE72120F9E72470040000C003507F
S21400A4E8C833002000D0035008B502F059FF054BCA
S21400A4F800F0553020F05020C3F82004BDE808408E
S21400A508FFF794BE00E0035008B502F049FF054B7C
S21400A51800F0AA3020F0A020C3F82004BDE80840C8
S21400A528FFF784BE00E003502DE9F04F14460546B9
S21400A5380E469B46C36B87B001225B6902A960681A
S21400A5489847EB6B01225B6903A93046984702A837
S21400A55828F01CFF074648B10023A37563754FF023
S21400A568FF33A360002007B0BDE8F08F03A828F0EB
S21400A5781AFF0123A375237E04EBC303DE611F8441
S21400A5886368B3420ED1206003A828F02EFF4FF070
S21400A598FF332075A360237D043B022B26D80023B7
S21400A5A8A375DFE723681A1A53425341A37503A815
S21400A5B828F01BFF237D834218BFA77503A828F041
S21400A5C8F6FE074602A828F0F2FE874218BF0023C8
S21400A5D803A818BFA37528F0F2FE074602A828F0BD
S21400A5E8EEFE87421CBF0023A375D4E703A828F015
S21400A5F8DEFE80B1EB6B022230465B6904A9984701
S21400A60804A828F0E3FE0346207D032839D8DFE8AF
S21400A61800F03838040903A8F3E7CC22237E04EBBD
S21400A628C3031A8401F06EFC109B187003A8277EDB
S21400A63828F0B1FE04EBC70787F82200237E03A89C
S21400A64804EBC303B3F8209093F8227028F0AFFE0B
S21400A658804603A828F0B3FE8246B8F1000F15D04E
S21400A668EB6B022230465B6904A9984704A828F0D9
S21400A67872FE6075637D6BB90023A3754FF0000802
S21400A68838E0227E04EBC2021384CBE703A828F046
S21400A6984DFEEEE794F81680B8F1000FEED0B9F14B
S21400A6A8000F09D1DFB10123E375637E002B4FD17C
S21400A6B8012F42D1677614E06B6C06EB0A015A420A
S21400A6C886EA010010421CBF0022A2755A1E0A40E4
S21400A6D89B1A9945D0D8A37D002BE3D1CEE7E37D1E
S21400A6E843B94FF000084B4652463146284628F0F4
S21400A6F898FBA060A27D12B123694B4423611A49D6
S21400A708237E097899422AD901332376BBF1000FB4
S21400A71827D032B3E37D23B3B8F1000F21D1032F3E
S21400A7281FD0A1684B1C1CD0109B224600932846BD
S21400A7380123FFF7F9FEA07513E095F8343063B9E6
S21400A748EB6A0133CFD1032FCDD10123A376C8E717
S21400A758012FCFD0032FC4D1F7E79846C3E70023CD
S21400A768A375A07DFFE600BF487004002DE9F04FF2
S21400A7780E46984600238BB004464FF0FF3110462D
S21400A78817468DF8133001F0A7FBB6F5801F20D2C8
S21400A798314605AA04F1080028F04AFD451C014682
S21400A7A803D1237CBBB92D2010E0384601F094FB7A
S21400A7B80122394620460DF1130328F084FB0028B1
S21400A7C8EFD09DF8133088F8003000200BB0BDE8B5
S21400A7D8F08FB01CE5D1E56A691C36D12046616A5F
S21400A7E828F065FA0546B31C18BF0123DFF8CC909D
S21400A7F80193636A626C0293236805A902FB053A13
S21400A808E36B05225B695046984705A828F059FE71
S21400A81828F07CFE504628F084FE4FF0000B824657
S21400A82801464B1C05D0636C81EA0A025B42134260
S21400A83811D02946204628F03AFA029BAB422CD083
S21400A848BBF1000F2CD10546D3E72368ED1A636CDD
S21400A858B5FBF3F5C7E7484601F03EFB0DF11303D9
S21400A86849462046019A28F02EFB034690B1B21CB2
S21400A87803D0D9F80020B2420CD19DF813200393D8
S21400A8880D4B88F8002049461A68384613F0E8FB4E
S21400A898039B9B46D9F80810C3E7BBF1000F82D08C
S21400A8A8B6F5801F91D2314698F800307A6804F1E0
S21400A8B8080001F03FFA88E744700400A43B002033
S21400A8C82DE9F3410446174698460E46184D816A08
S21400A8D8E36A8B4201D04B1C02D102B0BDE8F0817E
S21400A8E8284601F0F9FA0122294620460DF1070309
S21400A8F828F0E9FA38B14346294620469DF807204D
S21400A908B8470028E9D0A9684A1C04D169682046D7
S21400A91828F05AFA0146012EDAD16B6881EA03025A
S21400A928636C5B421A4218BF4FF0FF31D0E700BF96
S21400A938783B00202DE9F04F4FF0FF334FF6FF72BB
S21400A9480025044600F10806C0E909238BB0C36257
S21400A958056205633046884628F03BFC204628F00A
S21400A96876F960BB2046414628F0F1F9204628F0E3
S21400A9786EF960BB5E200BB0BDE8F08F2368E26B13
S21400A988606C576900FB0530052205A9B84705A87D
S21400A99828F097FD012807460CD12946204628F0BE
S21400A9A8A7F9012F024600D101322946204628F091
S21400A9B86DF903E028F0AFFD0028EED10135E36914
S21400A9C89D42DBD3204628F042F90028CAD000254D
S21400A9D84FF0FF394FF6FF73CA46A846C4E9085336
S21400A9E8E36998450AD3A5EB0905012D2CD84FF63F
S21400A9F8FF72636A93423CD16720BCE72368E26B28
S21400AA08606C576900FB0830052205A9B84705A8F9
S21400AA1828F057FD834605A828F02AFD074658461D
S21400AA2828F074FD68B1574538BFC4F82480B94586
S21400AA3828BFB946BD4238BF3D46BA46236A0133E9
S21400AA48236208F10108CBE74FF6FF73002563621F
S21400AA58E3699D42CBD2676C2068E36B052207FB4F
S21400AA6805005B6905A9984705A828F001FD01358A
S21400AA78EEE7E26B676C2068694607FB03005569DA
S21400AA880522A847684628F0F3FC626A2368606CCB
S21400AA984B4D00FB023028F044FD4FF0FF33A06218
S21400AAA8E3622A466FF00101204605ABFFF75EFE1B
S21400AAB8002846D1AD6829462046E56228F0A3F866
S21400AAC8206320B92046E16A28F07EF9E06229462C
S21400AAD8204628F079F90546A36A9D4233D12046D8
S21400AAE828F064F800278046B946E36999453CD3C0
S21400AAF8B84559D92046616A28F0D9F8002605468F
S21400AB0804F1400AB74212D8626C2368694602FB11
S21400AB180539E36B05225B6948469847684628F07E
S21400AB28A7FC534602464946E06B28F0FCFC29463B
S21400AB38204628F0BCF80136B0450546E2D1642028
S21400AB4819E7A56AB7E72946204628F05CF8236B7C
S21400AB582946034407462363204628F035F9054668
S21400AB68002FB9D1C4E90B07B6E7636C2568052240
S21400AB7803FB0955E36B05A95B692846984705A8B2
S21400AB8828F09FFC28F0C2FC58B1284628F0C9FCDB
S21400AB980146204628F037F8636C143B984208BFF5
S21400ABA8013709F10109A0E7304628F012FB002317
S21400ABB820461946034AFFF783FE0020DBE600BF5F
S21400ABC8D03B0020BD2E03002DE9F041036B9046D4
S21400ABD8826B07689A4288BF8363426C436A90B068
S21400ABE802FB0377C36B0E46052201A95B69044680
S21400ABF83846984701A828F064FC012801463070BA
S21400AC0857D0656CE26B2368606AD2F814C005FBFF
S21400AC180030052206A9E04706A828F052FC0128BD
S21400AC284FF0000523D0D4E90A3201219342CDE93A
S21400AC380B458DF834800E958DF83C102AD11946B0
S21400AC48204628F0C1F8236B626C14339B1AE06226
S21400AC5823630C9B53B99DF83C303BB1626A616C28
S21400AC682368E06B01FB023128F0E3FB0C9DE36BE5
S21400AC7805225B6901A93846984701A828F021FCF7
S21400AC8830702846236BA26B9A4288BFA36310B025
S21400AC98BDE8F081237C33B91C490BAA04F10800EF
S21400ACA801F096F8D5E72046194A0BABFFF708FEE1
S21400ACB8CFE7237C23BB2246164904F1080001F09F
S21400ACC887F8616A204628F013F8616A421C204615
S21400ACD827F0DCFF054620B9236B626C1344143B4F
S21400ACE823632046A16A28F06FF82368A062C01A7A
S21400ACF8636CB0FBF3F06062204628F0A8F8B6E76D
S21400AD0800232046044AFFF7DBFDDAE775B40000A7
S21400AD18F1B30000572F0300F32E030073B50D465A
S21400AD28D11E4A421C461B7E4A419A4226D12968B1
S21400AD382368994222D3636899421FD8114E0DF1B1
S21400AD4807033246FFF712FDC0B972686B689A426D
S21400AD5814D19DF80730DA1E53425341227E93429F
S21400AD680CD1636901336361D4E90323934205D2A6
S21400AD782968A26842F8231001332361012002B033
S21400AD8870BD00BFD03B00202DE9F04F9B4689B030
S21400AD989DF848309046514A0193136907465B452B
S21400ADA80D46C0F09580D94653680093B9F1000F58
S21400ADB87BD0FB6B01225B6905A90098984705A81C
S21400ADC828F0F1FA454B1B68984240F0848005A8A5
S21400ADD828F0F5FA0428064615D105A828F0F6FA4C
S21400ADE8009B04461E44019B002B3ED1804512D989
S21400ADF81C46A8EB00083846009927F0E5FFA9EBA3
S21400AE0804090090D2E7FB6B02225B69009806A94A
S21400AE18984706A8E2E7A0EB08045C4528BF5C460E
S21400AE28032C4644ABEB040B1DD9FB6B2946304676
S21400AE385B69A208984724F0030304F0030A1E443B
S21400AE481D44DDF80480BAF1000FD4D0FB6B012254
S21400AE5806A930465B6998475246284606A913F065
S21400AE68FFF85544C7E7A246EBE7824600F003031F
S21400AE7802932B1803930644039BA6EB0A00A3EB46
S21400AE880A05029B9A4514D1BAF1000FB3D0FB6BA2
S21400AE98012206A95B6998475246284606A913F078
S21400AEA8E7FA0028DDD04FF03609484609B0BDE875
S21400AEB8F08FFB6B012206A95B6998470422284697
S21400AEC806A913F0D5FA0028EDD1AAF1040AD3E7AB
S21400AED84FF06309E9E74FF06F09E6E7FC3B00200F
S21400AEE82DE9F0410F4616469846044688B060B3EA
S21400AEF890F83450FDB1012127F09EFE00210E9BEC
S21400AF08CDE90511CDE902379DF83C30CDF804802F
S21400AF188DF81C30237C04968BB90D4901AA04F1E0
S21400AF28080000F055FFDDE90553E06B002E08BF6A
S21400AF381D4628F01AF8284608B0BDE8F0812046D5
S21400AF48044A01ABFFF7BCFCEDE70546F3E700BF94
S21400AF58212F030025AD00007FB590F84260044617
S21400AF6801920DF10B030A463046114928F005F800
S21400AF78012E0546E36B17D132465B6903A998474D
S21400AF889DF80B10039B019A59B19BB243EA024302
S21400AF98012228460393E36B03A99B69984704B0EC
S21400AFA870BD62F30F03F3E701229B6901A9F5E779
S21400AFB8FC3B00202DE9F04F99B00E460D920A6929
S21400AFC8416C0B931439D31DB3FBF1F3013302EB39
S21400AFD8C302036B04469342C0F001820023DFF8E5
S21400AFE804940893E36A48461946059300F074FFEC
S21400AFF8D6E9033707930B9B022B4DD1CC2F40F095
S21400B008D7810D9B3BB13146204628F00CF8656C7D
S21400B0181490012044E00120079B656C1B6814937C
S21400B02800F0010000280CBF04230823782F0E9395
S21400B03849D8059A6B1E1340ED1A3B1D9D423CD21B
S21400B048002F3DD0082D3ED80023042506934FF048
S21400B058040A336806990B98C9F80030C9F81070C6
S21400B06828F0C7F94FEA9A030F93059B89F814004E
S21400B0780393002309930C9304930A93616C039B30
S21400B0884A1E1A408B1A27B35544AB4223D8236B63
S21400B0985B1A134423632FE1782F656CB9D8F07DCB
S21400B0A80D9B002BBCD0E36B01225B69706816A968
S21400B0B8984716A828F07BF9B4E700250695C6E752
S21400B0C804250697C3E7012300254FF0080A0693D0
S21400B0D8BFE75345DBD3A3EB0A029742039BB84668
S21400B0E828BF90469742534428D90122D9F8101011
S21400B0F889F817208F4226D10399C9F804100492BC
S21400B10899F817200AB399F818100398CA1C09EB7F
S21400B118C202506004980131A2F80880907289F83B
S21400B1281810B8F1000F07D00B9A022A40F0818059
S21400B138099A72B1012209929B46ABE0049A002A4A
S21400B14818BF0322DBE70222D9E7039AC9F80420CE
S21400B158E7E70C9A4244032AEED9E26B184695694B
S21400B16814A901220993A847099B05460028E1D09F
S21400B1783D2D40F01E8104F1080303932368059AC9
S21400B188606CA2EB030ABAFBF0FA00FB0A3028F060
S21400B198C8F9E16A8046204627F016FEA26A82426F
S21400B1A800F00F81626CD9F80830511E0B40216BF5
S21400B1B82768891A0B442363089BE062DF1BB7FBEA
S21400B1C8F2F7BA4540F0FA80059BB3EB080A12D0AE
S21400B1D8E36B4FEA9A0241469B6998478346E36ABF
S21400B1E8059A5344E362236B03989B1A43442363EC
S21400B1F827F0EFFFDA462368616CE06B01FB073146
S21400B20828F004F9204627F022FD204627F01FFEE6
S21400B2182063BAF1000F00F0D4803269616CD31D48
S21400B2281439B3FBF1F3013302EBC3029042A5D203
S21400B238BFE00D9A002A77D1B8F1030F4FEA9802BB
S21400B2486ED9E16B18468D6907991093A847109B2D
S21400B2580546C0B918F0030515D0079A28F0030B61
S21400B26802EB0B019B444FF0FF3215A815922A46B5
S21400B278109312F0F5FEE26B5846956915A901225F
S21400B288A8470546109B9B46079A42440792002DFE
S21400B29840F08B80049B16A80193069B009399F8B0
S21400B2A814204346316800F0CDFDE36B0F9A9B6986
S21400B2B8039816A99847039A051E089B18BF1346B5
S21400B2C80893434652462046039927F0AAFD236B67
S21400B2D808F10302A3EB0A0322F003029B1AC9F83B
S21400B2E808002363002D7FF443AF0C9BA7EB0807E9
S21400B2F843440C93CDF80CB02046039927F064FD20
S21400B30800250390002F7FF4B9AE364A316893685B
S21400B31804F10800E36252680B9B00F00BFD49E05D
S21400B3289B46454607999EE79B4606F120021092E3
S21400B338F27D7068A2B1002296F818C00A99D5B2B4
S21400B348AC4511D9109D02F1010E35F832508D42E8
S21400B35828D90E9806EBC2020144D069084403E0D7
S21400B3680E9A0A990A441044E26B15A955690122F7
S21400B3781193A847159A0A9B1392E26B04339569B2
S21400B3885846012213A90A93A847119B054603EBC2
S21400B3980802A2EB0B02042A7FF679AF28B90BF154
S21400B3A8040BC5E77246491BC9E7CDF820B088E705
S21400B3B870252F46384619B0BDE8F08F4FF0000AC2
S21400B3C819E73269616CD31D1439B3FBF1F3013305
S21400B3D802EBC302236B9342BFF404AEE9E71C27D3
S21400B3E8E8E700BFA43B0020032A2DE9F341064600
S21400B3F80D4617461C4606D1237A012B23D001207A
S21400B40802B0BDE8F081DFF86080096842460DF1B9
S21400B4180703FFF7ABF960600028EDD19DF8072019
S21400B428237A032AE8D0D8F804106A689142E3D150
S21400B438012B2969D4F80CC007D172690CEB0103FB
S21400B448934202D92074207CDAE708316144E1602F
S21400B4583B46012229463046FFF7ACFD60600028CF
S21400B468CAD00020CCE700BFD03B00202DE9F3412E
S21400B478089C032A1746266806D1237A012B24D06F
S21400B488012002B0BDE8F081DFF8908030464246E1
S21400B4980DF10703FFF76AF960600028EDD125680B
S21400B4A8D8F80400A96AD5F844C04840CCF100038F
S21400B4B81840227AE1D1012A09D1E268D8F810307A
S21400B4C813447269934202D92074207CD9E728680D
S21400B4D8EB6A1B1A081AB3FBFCF3B0FBFCF08342BA
S21400B4E80BD1706CF36A421E1340326B121A134467
S21400B4F82846336327F068FCE862D8F81020E3682B
S21400B50808321344E36001223B4604492068FFF7EB
S21400B51851FD60600028B0D00020B2E7D03B002084
S21400B5282DE9F0410025604B0E46D3F8008004460E
S21400B5381D6018B921252846BDE8F08190F83470BA
S21400B54807B30A6803689A4240F0A3804A684368CB
S21400B5589A4240F09E808A6883689A4240F09980B2
S21400B568CA68C3689A4240F094800A6943699A4256
S21400B57840F08F808A69C36B9A4240F08A804B6994
S21400B5888361D8E768223946856B12F0D9FBD6E97D
S21400B5980212336804F1080023607368A5636360C9
S21400B5A8336963617369A36127F025FEB36904F103
S21400B5B84000E3639B68984720B9676C17B16368D7
S21400B5C8B3FBF7F794F84330E761002BB2D00023BB
S21400B5D8656C2366002D64D0002F62D02368B3FB09
S21400B5E8F5F205FB1233002B55D16668B6FBF5F36A
S21400B5F805FB1363002B4ED1204627F0F4FAA36907
S21400B608043303449E4248D340F634726369CC3B05
S21400B618934244D8B5F5805F43D30321204627F0EC
S21400B6280BFBD4E90001E36B1B6898470546E36B00
S21400B6380220DB689847CDB941462046FFF77AF9DD
S21400B6486428054604D141462046FFF773F90546A7
S21400B658666C5DB9236A2046143E5E4327F0C3FA3B
S21400B668A369043303449E4238BF5A25002D0CBFF5
S21400B6780123002384F8343007D1D4E900010B4AAB
S21400B68813680133136027F050FEE06B27F06DFC5B
S21400B69851E75D254FE759254DE75A254BE75F25C6
S21400B6A849E75B2547E700BF3435002030350020E2
S21400B6B82DE9FF410C4616461F46054680B390F80E
S21400B6C834307BB3B1F5801F2ED2DFF860800121BD
S21400B6D827F0B2FA2146424628460DF10F03FFF737
S21400B6E845F8044670B99DF80F30012B11D1D8F8EB
S21400B6F81030BB4212D10246009031462846FFF76A
S21400B70843FB0446E86B27F030FC204604B0BDE84F
S21400B718F081022B14BF2D246024F3E76324F1E79D
S21400B7282124F2E71124F0E72924EEE7FC3B002069
S21400B7382DE9F04385B00C4617461E460546DDF84B
S21400B748308098B390F8343093B3B1F5801F31D277
S21400B758DFF86490012127F06FFA21464A4628460A
S21400B7680DF10F03FFF702F8044688B99DF80F306D
S21400B778012B14D1D9F8102006EB08039A4213D3EC
S21400B78800904346324639462846FFF7FDFA0446F7
S21400B798E86B27F0EAFB204605B0BDE8F083022BED
S21400B7A814BF2D246024F3E76324F1E72124F2E78D
S21400B7B81124F0E72924EEE7FC3B002073B50C467D
S21400B7C81646054630B390F834302BB3B1F5801FD3
S21400B7D824D2012127F030FA21462846104A0DF1D6
S21400B7E80703FEF7C3FF044680B99DF80730032B0E
S21400B7F80CD0022B0CD12846094927F014FC3060DF
S21400B808E86B27F0B2FB204602B070BD2D24F7E7A0
S21400B8186124F5E72124F6E71124F4E72924F2E762
S21400B828FC3B00202DE9F3411E4600230C46174634
S21400B8380546336050B390F834304BB3B1F5801FEB
S21400B84828D2DFF85480012127F0F6F9214642462F
S21400B85828460DF10703FEF789FF0446A0B99DF8B0
S21400B8680730032B10D0022B03BF01233B600423B1
S21400B878D8F8103018BF38603360E86B27F075FBCF
S21400B888204602B0BDE8F0812D24F6E72124F7E72C
S21400B8981124F5E72924F3E7FC3B002073B504469A
S21400B8A8056B27F0A0F9636E03449D422CBF002366
S21400B8B80123854294BF00252D1A207C84F8503039
